:020000040800F2
:10000000F8FF01207598050877DD040865DD040810
:1000100079DD040889DD040899DD0408000000008A
:10002000000000000000000000000000A9DD04083E
:10003000ABDD0408000000000DED040845ED0408E8
:100040002197050895DE0408A1DE0408A9DE04084E
:100050004D7505082197050829DE04082FDE0408E0
:1000600035DE04083BDE040841DE040845100508BF
:100070005510050865100508751005088510050858
:1000800095100508A5100508219705082197050872
:10009000453205084D3205085532050847DE04088B
:1000A000BDDE0408C3DE0408D5DE0408DBDE040878
:1000B000E1DE0408E7DE0408EDDE040861DF040881
:1000C00067DF04086DDF040873DF04082197050863
:1000D000219705083DDF040843DF040849DF0408D1
:1000E0006BDE04089BDE0408B9DD040819DF040890
:1000F0001FDF040837DF040831DF0408B5100508E6
:1001000021970508E57E0508F5DE04082197050816
:100110004FDF040855DF04080DDF040813DF04086F
:10012000C5100508D5100508E5100508F5100508E7
:1001300005110508000000000000000021970508D7
:100140005B320508633205086B320508ADDD040833
:100150001511050825110508351105085BDF040890
:10016000219705082197050821970508219705087B
:1001700021970508219705080000000000000000F5
:100180002197050821970508006870470B0A017040
:1001900043700B0C090E8370C1707047036A0239FB
:1001A000023B8B4283BFC389406B01FB03000020ED
:1001B0007047C2F307238A76CB764379032B01BFBE
:1001C000120C0A75120A4A75704700F10B010022E1
:1001D000D30143EA520310F8012B52FA83F3884209
:1001E000DAB2F5D11046704737B50D46044620B94E
:1001F000092000232B6003B030BD0368002BF7D02B
:100200005A79002AF4D081885A899142F0D118682D
:100210000DF10702062102F091FA9DF8073003F074
:100220000103034313F0FF00E2D12368E2E72DE965
:10023000F0470026D0F800908E75836907460C467B
:10024000002B00F08C80C36A01336DD1FA69002362
:10025000551E18462E2615F8011F202900F1010011
:100260000CD0052908BFE521092804D10B2B9EBF1E
:10027000E71801337E72E718013379720B28EAD14F
:10028000E11800204872A17D00295DD1002B52D0D9
:100290006FF0080604F109000825361B331810F822
:1002A000011B00294AD02E298BB25AD0A3F141015B
:1002B000192903D8117B0D4200D020330373EDE7D9
:1002C000B8F1000F05D100F520539BB2B3F5006FD4
:1002D00013D340F2B51140EA084059F007FBFF285C
:1002E000C5F1FF0A18D9BAF1010F20D96319020A22
:1002F0009A75D87502231D44002002368046D9F82D
:100300001030985B0028DBD1B8F1000F18BF002532
:1003100025440023AB7599E748B1BAF1000F08D026
:10032000631998750123E6E7B0463546E7E70025EF
:10033000EAE75546E8E73F23A3750123234400215C
:100340009975137B03B96372D37A237202F11C008F
:10035000FFF71AFF2060D38AE380138BA380BDE8E8
:10036000F08710250B46A9E738B50568044615F84F
:10037000010B20B140F2B51159F0D8FA08B125604F
:1003800038BD4FF0FF30FBE737B5C37904461BB9E2
:100390000025284603B030BD00F13C01826B0068A7
:1003A0000191012302F0B5F9054680B9E36AE071D5
:1003B000A06B626AC31A9342EAD2A3790199022B15
:1003C000E6D102440123206802F0A3F9E1E7012508
:1003D000DFE738B5836B8B4205460C4610D0FFF73C
:1003E000D3FF60B922462868012305F13C0102F0E1
:1003F00081F900281CBF4FF0FF340120AC6338BDE9
:100400000020FCE738B50023C3714FF0FF3383634E
:100410000546FFF7DEFF044600BBB5F83A224AF670
:1004200055239A421CD195F83C30EB2B03D018335E
:10043000DBB2012B16D80C49032205F1720042F001
:1004400051FE48B10949052205F18E0042F04AFEED
:10045000003818BF01204400204638BD0424FBE7C3
:100460000324F9E70224F7E7B64E0708BA4E070857
:100470002DE9F041044686B06379006801F0FE057D
:100480008BB106210DF1070202F058F99DF80730F3
:10049000D90708D41DB113F0040500D00A25284659
:1004A00006B0BDE8F081002363710DF107022068FA
:1004B000052102F043F99DF80730DA0700F1EC80DE
:1004C0000DB15B07EAD400212046FFF79BFF02280D
:1004D000034603D0012824D8257975B302AA04F273
:1004E000022304F24221174613F8040C10B11846F7
:1004F000FFF74AFE1033994242F8040BF4D12679F3
:1005000006B1013E57F826507DB129462046FFF737
:1005100079FF0346227952B9012B0ED90136032EF9
:10052000F0D9042B07D10125B9E70323F2E7042B07
:10053000F9D0012B01D90D25B1E7B4F84730B3F557
:10054000007FF8D1B4F8527027B904F16000FFF7CA
:100550001BFE074694F84C3067625A1E012AA371AD
:10056000E9D894F84960E681002EE4D0721E324248
:10057000E1D1B4F84D80A4F80C8018F00F0FDAD157
:10058000B4F84F0018B904F15C00FFF7FDFDB4F8B2
:100590004A20002ACFD007FB03FE02EB181CF444CC
:1005A0006045C8D3A0EB0C01B142B1FBF6F3C2D356
:1005B0003E498B42BFD84FF6F5718B426ED9032668
:1005C000501902330CEB0502032E2362A562E06290
:1005D000626350D1B4F8662058EA0202ABD104F14C
:1005E0006800FFF7D1FD9B0003F2FF13B7EB532F19
:1005F0002063A0D34FF0FF33C4E90533032E4FF03F
:10060000800323722BD1B4F86C30012B27D1691CE5
:100610002046FFF7DEFE10BBB4F83A2220724AF6FD
:1006200055239A421BD104F13C00FFF7ADFD204B4E
:10063000984214D104F50870FFF7A6FD03F1FF53AB
:1006400003F500532033984209D104F50970FFF7F0
:100650009BFDA06104F50A70FFF796FD6061154AE5
:100660006671138801339BB2138063810025124B9E
:100670002361E56113E7B8F1000F3FF45CAF022E90
:100680004FEA43011CBFC91803F0010370440CBFBB
:100690000B4603EB5103A7E7032500E740F6F57689
:1006A000B3428CBF022601268AE700BFF5FFFF0F89
:1006B000525261412C2100202E21002001292DE9D8
:1006C000F04706460C46174673D9036A8B4270D929
:1006D0004379022B3FD0032B50D0012B69D101EB82
:1006E0005108C16A01EB5821FFF773FE054638BB7C
:1006F00006F13C0908F1010AC8F3080814F00104E6
:100700001FBF19F808203B0103F0F00302F00F02AD
:1007100014BF1343FBB209F80830F16A0123F371E7
:1007200001EB5A213046FFF754FE054640B9CAF3A3
:10073000080A44B1C7F3071709F80A700123F371D7
:100740002846BDE8F08719F80A30C7F3032723F0DD
:100750000F031F43F0E7C16A01EB1421FFF739FED5
:1007600005460028ECD1640006F13C0304F4FF7454
:100770001A191F55C7F307275770DFE7C16A01EB46
:10078000D411FFF726FE05460028D9D1A40006F1B2
:100790003C0304F4FE7423441846FFF7F5FC27F0ED
:1007A000704700F0704047EA00011846FFF7EEFC82
:1007B000C4E70225C4E7F7B505460191FFF7E4FD5C
:1007C000044600BB01992846FFF7E8FC05F13C0709
:1007D0000646A8634FF400722146384642F05AFCA0
:1007E000EB899C4205D3E889001B18BF012003B0A8
:1007F000F0BD286801233219394601F08AFF00282C
:10080000F1D10134ECE70120F1E7F8B50446FFF738
:10081000BBFD0546002842D16379032B37D1277AE7
:10082000012F34D104F13C0601464FF400723046EA
:1008300042F030FC552384F83A32AA2384F83B3244
:1008400052234122722184F83C3084F83D306123E8
:1008500084F83E3084F8233284F83F2084F8201254
:1008600084F8211284F82222A16904F50970FFF7A7
:100870008DFC616904F50A70FFF788FCA26A2068A4
:100880000132A2633B46314601F043FF257200224C
:100890002068114601F052FF003818BF0120F8BD52
:1008A00003284B8B04BF8A8A43EA024318467047E9
:1008B0000129F8B506460C464ED9036A99424BD237
:1008C0004379022B29D0032B34D0012B44D101EBE7
:1008D0005105C16A01EB5521FFF77BFD10B14FF0C7
:1008E000FF30F8BD6F1CF16AC5F30805354401EB14
:1008F0005721304695F83C50FFF76BFD0028EED1AC
:10090000C7F30807374497F83C3045EA0320E3076C
:100910004CBF0009C0F30B00E3E7C16A01EB1421EF
:10092000FFF757FD0028DAD1640004F4FF74344463
:10093000A08FD6E7C16A01EBD411FFF74AFD00286A
:10094000CDD1A40006F13C0004F4FE742044FFF76E
:100950001BFC20F07040C4E70120C2E773B50C46D1
:10096000012C0568064611462CD92B6AA34229D9C9
:100970002AB14FF0FF322846FFF7A0FE40B92146CA
:1009800030680194FFF794FF0199044610B90020E4
:1009900002B070BD012815D0431C15D00022284696
:1009A000FFF78CFE0028F3D12A6AAB69911E8B42B7
:1009B00005D20133AB612B7A43F001032B72A242C3
:1009C000DDD8E4E70220E3E70120E1E72DE9F0418B
:1009D000056880460F4649B96E69C6B12B6AB342B5
:1009E00098BF0126AB69A3B9002406E02846FFF7AB
:1009F0005FFF0128044603D801242046BDE8F081AA
:100A0000421C51D02B6A8342F7D83E46EAE70126C2
:100A1000E8E7BE422B6A14D1741CA34298BF02249B
:100A2000D8F800002146FFF743FF0128E4D0431C1B
:100A30003AD0D8B16B69012B03D92A6A9A4288BF90
:100A40001E4634462B6A0134A34202D8012ECBD075
:100A50000224D8F800002146FFF72AFF40B1012800
:100A6000CAD0013020D0B442ECD1BDE7002CE8D090
:100A70004FF0FF3221462846FFF720FE90B957B9C4
:100A80002A6AAB696C61023A934210D92B7A43F01F
:100A900001032B72B1E7224639462846FFF70EFEC6
:100AA0000028EDD00128A7D14FF0FF34A5E7013B86
:100AB000AB61EBE72DE9F843076906682037B7F526
:100AC000001F24BF0023836183690446894673B1F4
:100AD000C7F30808B8F1000F39D1416901338361C8
:100AE00039B9B389B3EB571F31D80023A361042070
:100AF0000BE0F389013B13EA572328D13046FFF777
:100B0000D7FE0128054602D80220BDE8F883421C22
:100B100001D10120F9E7336A834212D8B9F1000FFD
:100B2000E3D061692046FFF751FF0546A8B10128CF
:100B3000EAD0431CEDD001463046FFF73CFE0028CA
:100B4000E7D1656129463046FFF728FBA0613C36B6
:100B500046442761E6610020D7E70720D5E700007B
:100B60002DE9F047FF27D0F80090064688463D461D
:100B700004244FF6FF7AB16911B9002C64D054E017
:100B80004846FFF726FC044600284ED1F06901785C
:100B9000002961D0C37AE52903F03F03B37149D03E
:100BA0002E2947D023F02002A2F1080CDCF100022C
:100BB00042EB0C0242453DD10F2B40D14C0637D5BC
:100BC0003369477BF36201F0BF01437BBB4231D104
:100BD000428B7ABB0378D9F81040DFF880E023F02D
:100BE00040030D25013B6B4301251EF801CB30F876
:100BF0000CC00DB3FF2B1DD824F813C0654601337C
:100C000001320D2AF1D10278520605D525B1FF2B0C
:100C100010D8002224F813204B1EDDB200213046EC
:100C2000FFF748FF04460028A5D00023B3610CE07D
:100C30008D42CAD0FF25F1E7D445E1D0FAE73DB9AE
:100C4000FFF7C3FAB84203D100242046BDE8F0877D
:100C50004FF0FF33F362F8E70424E6E7844F070818
:100C6000B1F5001FF8B5056806460C4601D3022011
:100C7000F8BDCA06FBD182680161BAB96B79022B53
:100C800001D92B6B9BB9AB89B3EB541FEFD9286B00
:100C9000C6E905200028EAD000EB54203C35C4F317
:100CA00008042544B061F5610020E1E71346EF89AF
:100CB0001A467F02BC42114603D22846FFF76EFA5D
:100CC000E6E73068FFF7F4FD431C024606D0012832
:100CD000CDD92B6A8342CAD9E41BEBE70120C7E7D1
:100CE000F8B50E46002107680446FFF7B9FFA8B91A
:100CF0000546A1693846FFF76CFB78B9E3691B78B4
:100D0000E52B00D01BB90135B54201D1F8BD054630
:100D100001212046FFF7CEFE0028EAD0042808BFB4
:100D20000720F3E7C16A4B1C2DE9F041056806690D
:100D3000044618D1E5274FF00108A1692846FFF7BE
:100D400048FB60B9E3691F7085F807802369B342E7
:100D50000DD201462046FFF7ADFE0028EDD0042855
:100D600008BF022003E0FFF77BFF0028E2D0BDE8C8
:100D7000F08100002DE9F04F002185B0D0F800B0DF
:100D80000446FFF76DFF0546002840F08D804FF0C8
:100D9000FF3A4FF0FF08C4F82CA0C146A16958469D
:100DA000FFF717FB054600287ED1E6693778002F4C
:100DB0007ED0F27AE52F02F03F03A37103D0100733
:100DC00004D50F2B04D0C4F82CA050E00F2B56D123
:100DD00094F82B30590640D47A0646D5236996F804
:100DE0000D80E36207F0BF07737B43453FD1738BF0
:100DF000002B3CD13578DBF81030009305F03F052F
:100E0000013D0D23DFF8B0905D43012219F8013B4D
:100E1000F35A7AB3FF2D2AD81846039358F09AFD57
:100E2000009B0290691C33F81500019158F092FD67
:100E3000029A82421BD1039B01991A460D461D4B13
:100E40009945E3D133785B0604D51AB1009B33F89A
:100E5000153063B9013F5FFA87F900212046FFF79B
:100E600029FE0546002899D01EE0B945BCD04FF0B8
:100E7000FF09F2E74FF6FF718B42E0D0F7E7B9F1D7
:100E8000000F04D13046FFF7A0F940450CD094F88C
:100E90002B5015F0010596D10B2204F120013046AC
:100EA00042F020F900288ED1284605B0BDE8F08F29
:100EB0000425F9E7914F0708844F07082DE9F04F03
:100EC00090F82BB01BF0A00489B0054640F0E580F7
:100ED00007683A6932F81430002B6ED105F120060C
:100EE00096E807000DF1140A1BF0010F8AE80700CD
:100EF00000F0DA80402385F82B304FF001089AE8A3
:100F00000700B4463B69ACE803002CF8022BB8F1AB
:100F1000050F4FEA12428CF8002062D9981E424613
:100F200030F8021F00294AD10DF1130C072102F0FD
:100F30000F0E0EF13000392888BF0EF137000F2A4E
:100F40000CF8010901F1FF314FEA12104BD801F101
:100F500020030DEB03027E2002F8140C3046002221
:100F6000914206D010F801CBBCF1200F02F1010E26
:100F70003BD105F11F0C07299CBF01F120030DEBAC
:100F8000030002F1010296BF10F8140C2020013179
:100F9000072A0CF80200EED92846FFF7EBFE81463F
:100FA00000287DD108F10108B8F1640FA7D14FF0F6
:100FB0000709484609B0BDE8F08F01348AE74FF0D1
:100FC000100C01F0010E0EEB4202D30344BF82F479
:100FD000883282F02102BCF1010C4FEA5101F0D1BC
:100FE0009EE74246A0E70246A1E77246B8E72969B4
:100FF0002846A1EB4411FFF733FE81460028D8D1E3
:101000003046FFF7E2F84FF6FF780190A9693846BD
:10101000FFF7DFF981460028CBD1EB69019AD7F8B9
:1010200010E05A73E1B24FF00F024FF00D0CDA727C
:10103000DFF8D8A018734A1E0CFB02F29876D87617
:1010400084461AF8019B404518BF3EF8120003F889
:10105000090003EB090B0CF1010C18BF01324FEA38
:101060001029002808BF4046BCF10D0F8BF80190F5
:10107000E7D1404502D03EF812200AB941F04001C4
:1010800019700123FB7100212846FFF713FD8146EB
:1010900000288ED1013CB9D11AE04FF0060988E74B
:1010A000042886D185F82BB01BF0020F1BBF0C342F
:1010B0000D230124B4FBF3F418BF01342146284664
:1010C000FFF70EFE814600287FF473AF013C8ED1FE
:1010D000A9693846FFF77DF9814600287FF469AF9A
:1010E00001462022E86941F0D5FF03CEEB69186084
:1010F0005960B278318819819A7295F82B30EA6973
:1011000003F0180313730123FB7152E7844F0708A0
:101110002DE9F04F87B0036801930B782F2B06461B
:10112000884601D05C2B0AD1424613782F2B90467B
:1011300002F10102F9D05C2BF7D0002301E0019B02
:10114000DB69B36098F800301F2B00F232818023F6
:101150000021304686F82B3007B0BDE8F04FFFF78E
:101160007FBDFE2D00F24E812AF81540013526E1A3
:1011700008F101030593DDF8148098F800302F2B57
:10118000F6D05C2BF4D01F2C8CBF00240124012D41
:101190004FEA84042ED1BAF800302E2B30D1002330
:1011A0002AF8153006F120029D428CBF2E21202105
:1011B00001330B2B02F8011BF6D144F02004E4B2FA
:1011C00086F82B403046FFF7D5FD96F82B300028E7
:1011D00000F0DE80042840F01681990603F0040236
:1011E00040F1D280002A00F0E480802386F82B3082
:1011F000002008E1022D03D1BAF802302E2BCAD00C
:10120000AAF1020206E032F81530202B01D02E2B75
:1012100002D1013D002DF6D100232AF81530002D12
:1012200000F0F0803AF81320202A194603F1010358
:10123000F8D009B92E2A02D144F00304E4B2AAF18D
:10124000020232F815302E2B01D0013DF9D14FF0BA
:1012500020334FF0000973623362C6F827304FF035
:10126000080B4F463AF811004A1CD0B1202803D091
:101270002E2806D1AA4208D044F00304E4B2114655
:10128000F0E7D94505D2AA423ED1BBF10B0F33D1CD
:1012900002E0BBF10B0F29D144F00304E4B24FF09C
:1012A0000B0B96F82030E52B04BF052386F8203081
:1012B000BBF1080F04BFBF00FFB207F00C030C2BFB
:1012C00003D007F00303032B02D144F00204E4B27D
:1012D000A3073FF575AFFD0744BF44F01004E4B227
:1012E00078077FF56DAF44F0080468E7AA4203D0A1
:1012F00044F00304E4B2D4D8BF00FFB22A464FF052
:101300000B0B4FF00809BAE77F2838D944F00203E5
:10131000DBB240F2B5110392029358F0E7FA10F0F5
:10132000800FDDE9023210D0414900F07F00085CF7
:1013300030B1404C14F8011B002969D08142F9D129
:1013400043F00303DBB25F2011E0FF28F0D90BF17B
:10135000FF31894504D344F00304E4B2D9468EE753
:1013600006EB0901040A81F8204009F1010906EBA6
:1013700009011C4681F8200009F101097FE7234695
:10138000D7E747F00207F2E7002A08BF05203AE056
:101390005A0738D4B379DB0638D5019B03F13C01F9
:1013A0003369C3F308031944019B5879FFF778FAAE
:1013B000B0603368CDF81480D3F810A0002505A8DC
:1013C000FEF7D2FF421C1DD0B0F5803F28BF030CB2
:1013D00084B224BF2AF8153001351F2C7FF6CBAE1E
:1013E0002F2C3FF4C8AE5C2C3FF4C5AE7F2C3FF6EB
:1013F000B8AE114A204612F8013B002B3FF4B1AEC3
:101400008342F8D1062007B0BDE8F08F0520FAE747
:10141000A0F1410189B21929B3D9A0F1610189B2C2
:1014200019299EBF203847F0010780B29FE700BF0F
:10143000044F0708C94E0708C04E07080021417134
:10144000FFF716B82DE9F04105468CB090461E46D0
:101450000C46002900F0BB8003F03F073946FFF738
:1014600007F8002840F0AB80414668460095FFF73A
:101470004FFE024620B99DF92B30002BB8BF062243
:1014800016F01C0F68D0002A3AD0042A35D16846DD
:10149000FFF714FD024680BB47F00807DDF81C800B
:1014A00068794146FFF7FCF9064656F057FD0146BC
:1014B00008F10E00FEF76AFE079B2022DA720799F8
:1014C00000222846FEF775FE079B00221A775A77FE
:1014D0009A77DA770123EB71DEB131466846D5F8A9
:1014E0003880FFF73BFA024638B941462846FEF7F6
:1014F00070FF013E6E61024658B10023236027E071
:101500009DF8063013F0110F30D1730759D430070E
:10151000C4D4AB6B0799236261623807687948BF0E
:1015200047F04007FFF7BCF9A060034601F11C003B
:10153000FEF72AFE6A89A280B9064FF0000206462D
:10154000E060256027746274E261626110D4002259
:1015500010460CB0BDE8F081002ACED19DF80630CF
:10156000D90630D4B207D4D5DE07D2D50722C4E7D6
:101570000028ECD0EF8960617F02B74210D30022CF
:10158000A361002AB9D1C6F308010029DFD01946AA
:101590002846FEF703FEC0B100EB5620E061D7E716
:1015A00019462068FFF784F901280346A6EB0706D1
:1015B00003D9421CE1D10122E2E70222E0E7024620
:1015C0009BE7082299E7042297E7022295E7092280
:1015D000BEE72DE9F04F994685B000238846C9F84B
:1015E000003003A904461546FEF7FEFD064610BB73
:1015F000667C06BB94F810A01AF00103009300F07B
:101600008180E7686369FF1AAF4228BF2F4697B110
:101610006269C2F30803002B59D1DDF80CB0BBF8A6
:101620000E30013B13EA522A15D142B9A0680128B5
:101630000AD802266674304605B0BDE8F08FA1696D
:101640002068FFF735F9F2E7431C03D10123009E20
:101650006374F0E7A061A1695846FEF79FFD00287A
:10166000E7D0B7F5007F0AEB00022FD3BBF80E10CE
:1016700001920AEB572088424FEA572588BFA1EB19
:101680000A05DBF800002B46414601F033F800283C
:10169000DCD19BF807306BB1DBF83800019A801A77
:1016A000A84207D24FF400720BF13C0108EB402036
:1016B00041F0ACFC6D02D9F800302B44C9F8003081
:1016C00063692B447F1BA8446361A0E7E2616569FD
:1016D000DDF80CB0E169C5F30805C5F50075BD423C
:1016E000584628BF3D46FEF774FE0028AED161691A
:1016F0000BF13C0BC1F308012A465944404641F026
:1017000085FCD8E7072696E72DE9F04F994685B086
:1017100000238846C9F8003003A904461746FEF79F
:1017200063FD064618BB667C0EBB237C9A0740F11E
:10173000A5806369FB4200D3DF43A7B16369C3F3AC
:101740000802002A7BD1039DB5F80EB00BF1FF3BD8
:101750001BEA532B1ED173B9A06870B9014620460D
:10176000FFF734F948B9237C43F040032374304633
:1017700005B0BDE8F08FA169F1E7012802D102268A
:101780006674F4E7431C01D10126F9E7A368A06160
:1017900003B9A060AA6BE3699A4204D12846FEF718
:1017A000F3FD0028F0D1A1692846FEF7F7FC0028D8
:1017B000E5D0B7F5007F0BEB000A33D3E9890BEBDB
:1017C000572088424FEA5723286888BFA1EB0B03B4
:1017D00052464146019300F09CFF83460028D3D136
:1017E000A96B019BA1EB0A0199420AD24FF4007246
:1017F00008EB412105F13C0041F008FC019B85F814
:1018000007B05D02D9F800302B44C9F80030636995
:101810007F1BA8441D44E3686561AB422CBFE360B5
:10182000E5608AE76169E368994206D32846FEF7D6
:10183000ABFD0028A8D1C5F838A0C4F81CA0656984
:10184000DDF80CB0E169C5F30805C5F50075BD42CA
:10185000584628BF3D46FEF7BCFD002894D1636979
:101860000BF13C00C3F3080318442A46414641F0FB
:10187000CDFB4FF001038BF80730C3E7072676E76F
:101880002DE9F34101A90546FEF7AEFC044668BB0D
:101890002C7C14F0400429D056F060FB019F296A8B
:1018A00080463846FEF795FD0446F8B96E6AF37A2D
:1018B00043F02003F372AA6828683146FEF779FCEA
:1018C000E96806F11C00FEF761FC414606F11600CE
:1018D000FEF75CFC0123B474F4743846FB71FEF728
:1018E00094FF2B7C23F0400304462B74204602B067
:1018F000BDE8F08113B50446FFF7C2FF28B901A97E
:101900002046FEF771FC00B9206002B010BD70B532
:101910000E468CB000210546FEF7AAFD044660B9CC
:10192000314668460095FFF7F3FB044690B99DF9F0
:101930002B30002B04DA029BEB6120460CB070BD0B
:101940009DF80630DB0609D507996879FEF7A8FFF0
:10195000E861F2E7042808BF0524EEE70524ECE778
:101960002DE9F0470E460021D2B0317081469046F5
:10197000FEF77EFD0546F0B9D9F81C30CDF8009091
:1019800002934446DDF808A0BAF1000F19D144458E
:1019900002D1013C2F2333553346A11B1A5D03F8B6
:1019A000012B5A189045F9D8A8EB04030134A0453F
:1019B00038BF01231E4400232846337052B0BDE8CF
:1019C000F08720216846FFF74BF9002847D1069998
:1019D0004846FEF7FEFC074600283ED1079999F8D5
:1019E0000500FEF75DFF394602906846FFF738F9BB
:1019F000A8BB00216846FFF7B3F8074698BB0799D4
:101A000099F80500FEF74CFF50450AD03946684664
:101A1000FFF750F80028ECD00546042D08BF02253A
:101A2000C9E70CA96846FEF702FC0DF1460319460A
:101A300013F8012BBA460137002AF9D1BC4210D362
:101A4000A4EB0A07013CA4EB0A045246F01941F04A
:101A5000DDFA2F2333557C1E94E70546ABE7054698
:101A6000A9E71125A7E70546D7E72DE9F7430D4676
:101A700001A90446FEF7B8FB0646002852D1667C51
:101A8000002E4FD1E368AB4204D2227C12F0020F49
:101A900008BF1D460022636962619DB90020E268AB
:101AA0006369934282BF227CE36042F04002C3F349
:101AB000080388BF2274002B34D0E369834218BF27
:101AC000E0612FE0DDF80480B8F80E707F02FBB112
:101AD000013B6A1EB3FBF7F1B2FBF7F28A4217D360
:101AE0007A421340A1696361ED1A0029D6D0BD4244
:101AF000636922D863692B446361C5F30803002B33
:101B0000CCD04046FEF74AFB50B100EB5520C6E76B
:101B1000A16881B92046FEF759FF0128014605D189
:101B200002266674304603B0BDE8F083481C01D13C
:101B30000126F6E7A160A161D7E73B446361237CFE
:101B40009A07A5EB070906D52046FEF73FFF054695
:101B500028B90146CEE72068FEF7AAFE05466B1CB1
:101B6000E6D0012DDCD9D8F82030AB42D8D9A56118
:101B700029464D46BBE770B5054616460C4621B3CF
:101B80000021FEF775FC68B9256031462046FFF755
:101B9000BFFAE0B994F92B30002B0BDBA379DB06FD
:101BA00003D40520002323600EE06879E169FEF785
:101BB00077FEA0606B89A38000212046FFF750F8D4
:101BC0000428EED00028EDD170BD0920FCE70428E0
:101BD000E7D0E7E713B501A90446FEF705FB00B916
:101BE000206002B010BD73B50D4601A90446FEF792
:101BF000FBFAC8B935B92946204602B0BDE87040A5
:101C0000FFF72EB801462046FEF7AAFF10F0FB06AC
:101C10000AD129462046FEF70AFB31462046FEF748
:101C200049FF042808BF002002B070BD70B50E4601
:101C30008CB0002104461546FEF71AFC00940446B9
:101C400070B931466846FFF763FA044640B99DF91A
:101C50002B30002B07DB1DB129466846FEF7E7FA5B
:101C600020460CB070BD0624FAE72DE9F84F8846EF
:101C700000210446FEF7FCFB054640B9D4F820A03D
:101C8000A369AAF10202934204D8C8F8003028469A
:101C9000BDE8F88F6379012B17D102270646394634
:101CA0002046FEF705FE431C34D0012834D000B98D
:101CB0000136236A0137BB42F1D8C8F80060237AA5
:101CC000A66143F001032372E1E7E16A0746064695
:101CD00004F13C0937B9204601F1010BFEF779FB0D
:101CE000E0B959466379022B09EB07000AD139F8AC
:101CF000073003B901360237BAF1010AC7F3080702
:101D0000E8D1DAE7FEF740FA30F0704308BF013659
:101D10000437F1E70125D0E70225CEE70546CCE7F9
:101D2000F0B50E4699B002210546FEF7A1FB044628
:101D300088B9314668460095FFF7EAF9044650B97C
:101D40009DF82B3098063BD4190639D49DF80670BF
:101D5000FA0703D50724204619B0F0BD0799687922
:101D6000FEF79EFDFB0606460BD46846FEF7DAFF3B
:101D700004460028EFD1D6B92846FEF746FD0446B2
:101D8000E9E7EB698342E5D00E9021460CA80C955B
:101D9000FEF766FF04460028DDD101460CA8FEF7D9
:101DA000DFFE04460028D5D00428D4D1DDE7024662
:101DB00031466846FEF7D2FD04460028CBD1DBE76A
:101DC0000624C8E72DE9F0410E4690B002210546F1
:101DD000FEF74EFB0446002869D1314604A804955D
:101DE000FFF796F9044600286FD004285FD19DF8CC
:101DF0003B1011F020016AD168460095FEF7E6FD20
:101E00000646002857D0012857D0431C5C425C414D
:101E100056F0A4F80746002C51D131462846FEF76B
:101E2000CAFC044600284AD14FF02033EB632B64F0
:101E3000C5F843302E2385F83C30102385F8473011
:101E4000394605F1520005F13C04FEF79FF9324690
:101E500021462846FEF7ADF905F15C031A4651F814
:101E6000040B42F8040B9942F9D12E23069A85F807
:101E70005D3028464FF00108FEF79BF985F8078092
:101E800004A8FFF71BF80446C8B90B98394616306A
:101E9000FEF77CF932460B992846FEF78AF90B9B30
:101EA0001022DA7285F80780FEF7AFFC0446204660
:101EB00010B0BDE8F0810724AAE70224A8E70022B9
:101EC00031466846FEF74AFDF1E70824EFE70624AD
:101ED000EDE7F0B50D46A1B0022104461746FEF726
:101EE000C7FA002877D1294608A80894FFF710F907
:101EF000002870D19DF84B3013F0A00F6DD10F9BCF
:101F00006D4603F12006186859682A4603C2083353
:101F1000B3421546F7D108AE0FCE14AD0FC50FCEA4
:101F20000FC596E80F0085E80F00394614A8FFF7A3
:101F3000EFF848B9169A0A9B9A4203D1189A0C9B5B
:101F40009A4203D0082046E0042844D114A8FEF7A2
:101F5000B5FF00283FD11B990DF10D0301F10D02D2
:101F60000DF11D0053F8045B42F8045B8342F9D184
:101F7000188810809B7893709DF80B30DA0658BF54
:101F800043F020030125CB72E571CB7ADB061BD52C
:101F90000A9A169B9A4217D06079FEF781FC014697
:101FA0002046FEF7FBF80146C8B12046FEF711FABD
:101FB00088B994F85D302E2B06D1169A04F15C0195
:101FC0002046FEF7F6F8E57108A8FEF7ABFE10B95B
:101FD0002046FEF71AFC21B0F0BD0620FBE70220E8
:101FE000F9E70000F0B595B0064601910221FEF731
:101FF0003FFA0446002833D102AF4FF0203302935A
:1020000005467B60C7F80730019B1B781F2B20D843
:102010009DF80830E52B22D01DB16B1EFA5C202AFA
:1020200030D0002108A808960A91FEF719FE044650
:10203000B0B9012108A8FEF793FD70BB0F9A1DB33C
:102040003B4603CB1060516019889B7893721181D5
:102050001CE001A8FEF788F9B0F5803F03D3062401
:10206000204615B0F0BD57F075FC40F2B51157F0A1
:102070003DFC0028F3D01E4A12F8013B93B398426E
:10208000FAD1ECE71D46C7E7E52313700123F3718E
:102090003046FEF7BAFB0446E2E70428FBD1002DE8
:1020A000DED0012108A8FEF71BFE04460028D7D188
:1020B000202201460F9840F0EDFF0F9B0822DA72B4
:1020C0000F9ABDE7092DCAD805F150036B44020AE7
:1020D00003F8482C013505F150036B44013503F832
:1020E000480C91E7FF28EDD80A2DF4D9B7E700BFD7
:1020F000914F07082DE9F04FD0F800808BB01C46B7
:1021000000234371029103790193154605210DF1D6
:102110001F02404600F012FB9DF81F30DA0700F165
:102120006F825E0700F16E8208AA0321404600F02C
:1021300005FB30B9089A531EB3F5004F01D21A427D
:1021400001D0012308935DB15A4BA5F500729A4264
:1021500003D913200BB0BDE8F08F6B1E2B42F8D1D2
:10216000002C00F05182149BB3F5007FC0F04C822C
:10217000019B002B62D0012300222146404600F043
:10218000B9FA08B10120E5E7B4F8FE214AF6552373
:102190009A4201D00E20DDE7019B04EB031202F509
:1021A000D77392F8B221002AF4D003F10800FDF7AA
:1021B000EBFF074603F10C00FDF7E6FF8346BBF19A
:1021C000150FCDF824B0E5D9B5F5813FC1D2029BFA
:1021D00013F0020305934FEA5522029B41D003F00E
:1021E0000703022B00F01E82029BD80740F11A82DF
:1021F000002A3FD130484FEA1B35012630F8023B18
:102200000BB1AB4234D940F6F573BBFBF6F59D42FA
:102210009BBF05EB4505013502356D088CBF6D0090
:1022200003354FF0200305F2FF1504938CBF4FF0E8
:1022300002094FF001096D0A012316E209AA0121E2
:10224000404600F07BFA00289CD1029B13F0080F57
:10225000099B14BF00273F27BB429BD3A3EB070B6F
:10226000ADE7D907C4D474E75200E2E11346E7E1D1
:102270007600C3E71646C6E7B9F1020F1ED10399EF
:102280004FF6F570814208D9002A40F0C7817600E8
:10229000402E00F222823246AAE7039940F6F570FA
:1022A000814213D8002A7FF475AF7200802A9FD92B
:1022B00070E700BF00FEFF00A44F0708039940F637
:1022C000F57291423FF666AF4FF001094FF400728C
:1022D00000212046059340F0DDFE059BCB4AA37309
:1022E000C3F307231168E37301232160237451684A
:1022F0006160B9F103031189927AA27218BF0123B8
:1023000002225B00BBF5803F218122736673A374B8
:1023100080F0128184F813B0CBF3072B84F814B04B
:10232000F82363753F232376FF23A376394604F110
:102330001C00FDF72BFFB9F1030F40F0038155F0AE
:102340000DFE014604F14300FDF720FF294604F18C
:102350002400FDF71BFF022384F82C30002384F8AF
:102360002D3084F82E3084F82F3084F8313084F802
:102370003330802384F840302923012284F842300E
:10238000A34B84F83020062284F8322003F1100198
:1023900004F1470253F8040B42F8040B8B42F9D1C5
:1023A00019889B7893704FF05503118084F8FE31A3
:1023B0006FF0550384F8FF313A4601232146404629
:1023C00000F0A7F9834600287FF4DCAEB9F1030FD3
:1023D00038D10123BA1D2146404600F09AF94FF446
:1023E00000725946204640F055FE52232370637018
:1023F0006123A37084F8E731039B41227221E270CC
:1024000084F8E41184F8E51184F8E621591E04F5F6
:10241000F470FDF7BBFE022384F8EC314FF0550356
:1024200084F8FE316FF0550384F8FF31FA1D012363
:102430002146404600F06DF90123FA182146404636
:1024400000F067F9149B23F4FF7222F001020021CF
:10245000204640F01FFEB9F1030F40F09080F823B2
:102460002370FF236370A370E37023716371A37102
:10247000E37123726372A3720F23E372149B5B0AEE
:102480000393039BAB4228BF2B462146524640464E
:102490009B4600F03EF9014600287FF473AE4FF4EE
:1024A0000072204640F0F6FDB5EB0B05DA44E8D1AA
:1024B000049BB9F1030F18BF1E46039DB54228BF08
:1024C00035462B4652462146404600F022F9002868
:1024D0007FF458AE761BAA44EFD1B9F1030F58D060
:1024E000099BB3F5803F56D2B9F1020F0CBF04250A
:1024F0000125019B002B50D000220123214640469C
:1025000000F0F8F8024600287FF43CAE019B04EB93
:10251000031383F8B25101232146404600F0F9F835
:1025200000287FF42FAE00221146404600F006F945
:10253000003818BF01200DE6594604F12000FDF7D0
:1025400025FEEDE655F00AFD014604F12700FDF7F2
:102550001DFEC5F30723E375802384F82430292367
:1025600084F826302B4BA57504F12B0203F11001E2
:1025700053F8040B42F8040B8B42F9D110E7B9F180
:10258000010F2549204618BF6FF00701FDF7FEFD3A
:1025900074E70C25ADE70625ABE7029B1B07C2D409
:1025A00001994FF40072204640F074FD552384F8E1
:1025B000C251099D84F8FE31AA2384F8FF31EA193B
:1025C00043F6C163B2FBF3F2FE2384F8C3319308F0
:1025D00043F03F03012684F8C43184F8C52139460D
:1025E00004F5E37084F8BF6184F8C061FDF7CEFDA7
:1025F000294604F5E570FDF7C9FD019A33468BE7DE
:102600000320A7E50A20A5E51120A3E5D04E070881
:10261000DC4E0708F04E0708F8FFFF00059B002B73
:102620003FF4B8AD002A7FF421AE30484FEA5B4555
:10263000012230F8023B1BB1AB427FF615AE0023FE
:10264000BBFBF2F02A4E8500A0F57F40F63805F27C
:102650000725B0424FEA55253FF69CAD16461A466F
:10266000002304934FF0030920230498DDF820E0B1
:1026700007EB030A05EB000CD4440EF1FF30604475
:10268000CEF1000E00EA0E00A0EB0C00B9F1030F32
:1026900006BF1B1882442D18C7EB0610604458452E
:1026A0003FF678AD0498ABEB0000C01AB9F1030F08
:1026B000A0EB0500B0FBF6F003907FF4DDAD0399CD
:1026C0004FF6F57081423FF601AE002A7FF462AD0D
:1026D000012E7FF65FAD7208A4E7059B002BA4D105
:1026E000802E3FF657AD32468DE500BFB24F07084A
:1026F000FFFFFE0F10B50C4611461A4638B12346AF
:1027000004303CF03BFB003818BF012010BD042012
:10271000FCE710B50C4611461A4650B1234604306A
:102720003CF070FB10F11E0F05D0003818BF0120DF
:1027300010BD0420FCE70220FAE7000070B50C464B
:1027400015460646002831D0234A01F00703D15C24
:1027500071B3002204303CF0A5FB062C26D8DFE83C
:1027600004F008050A152518180006202AF0E2FED4
:102770002860002070BD062804D14FF40070288026
:10278000B060F6E72AF0D6FE80B2F8E701232B60AE
:10279000EFE7062801D0430806D1336AB3FA83F382
:1027A0005B099B002B70E4E70123FBE70420E1E7D2
:1027B000062CFBD801A353F824F000BF73270008B0
:1027C0006B2700087B2700088D270008AD2700082D
:1027D0009B2700089B270008308B0608086833F009
:1027E000BCBA0000022970B5044615461E4613D136
:1027F0005368012B0AD0022B0CD01BB91168201D85
:10280000FFF733F9A3692B60002070BD81692B6845
:102810001944F4E70169FAE701290AD10430FFF706
:102820002FF80028F0D0084B1B5C33604FF0FF30CE
:10283000EBE7042906D14368002BE5D00430FFF70D
:1028400059F8EEE71623F0E7708B060837B51D46FA
:10285000043001AB1446FEF757FF38B1064B1B5C42
:102860002B604FF0FF34204603B030BD019BA342E4
:10287000F9D01C23F4E700BF708B060813B51C4683
:10288000043001ABFEF7A5FE30B1044B1B5C2360A6
:102890004FF0FF3002B010BD0198FBE7708B0608C7
:1028A0002DE9F843814650680E46904630F09AFD77
:1028B0002E4A2F490138002410F8013FD3B92C20AB
:1028C0001DF0F8FB0746054647F8046BD8F80000F2
:1028D00030F088FDE3B20246394609F14400FEF7C4
:1028E000B1FD0646C0B328461DF0FEFB214B985DA6
:1028F00029F0FCFF782BDFD8712B08D8612B24D06E
:10290000622B25D02B2BD7D144F00304D4E7723BA4
:10291000062BD1D801A555F823F000BF39290008AE
:10292000B928000855290008B9280008B928000866
:102930003F2900084529000844F00104BCE744F0A1
:102940000A04B9E744F00604B6E744F01204B3E71A
:102950000E46B1E71646AFE7E30603D529693846C8
:10296000FFF783F82846BDE8F88300BFC08B060850
:10297000848B0608708B060830B587B0044603AD1B
:10298000084611461A46064B0093019503232AF088
:10299000B9FA2A4621460020FFF782FF07B030BD72
:1029A000588B06081FB50623CDE90112034903938E
:1029B00001AAFFF775FF05B05DF804FBC08B0608A0
:1029C00013B50446084601912AF028FD019B0449ED
:1029D0000246204602B0BDE8104000F0A3BF00BF91
:1029E000388B06082DE9F74F062907469DF8300079
:1029F00010D8012905D93F2307F8013B00233B707C
:102A000001E00029FAD1012994BF0020012003B080
:102A1000BDE8F08F10EE104A002C3C4622DAB4EEEE
:102A2000400AF1EE10FA1DD62D2004F8010BB1EE8C
:102A3000400A9FEDC47AF0EEC07AF4EE477AF1EEE8
:102A400010FA02F0200912DD49F0490549F04E0163
:102A5000E31C49F04602A270002225706170D81B69
:102A60001A70D4E70028E4D004F8010BE1E7B4EED3
:102A7000400AF1EE10FA06D749F04E0249F0410142
:102A8000E31C1546E7E7002B42F02006B8BF0623FB
:102A9000672E02D1002B08BF012310EE100AE21BA3
:102AA000891A002801F1FF324CD1662E3BD1581C07
:102AB00090424FF00008A8BFCB1E591C662240462A
:102AC0004546652A23EAE37A40F00C810AF10101C8
:102AD000002301934FF02E0BB2EE047A019B994232
:102AE00000F30981662E40F037818D4240F39481D6
:102AF000B8F1000F13D00A2195FBF1F393FBF1F22B
:102B000001FB123201FB135349F0450930323033D7
:102B100084F8009084F80180A270E37004340023EC
:102B20002370E01B73E7581D9042A8BFCB1F652E92
:102B300032464FF0000140F0CA804FF02B080846A3
:102B40000D46BEE7B0F17E5F6FD2DFED7F7ADFF832
:102B50000082DFF800C2B4EEE70AF1EE10FAACBF73
:102B60004FF0310A4FF0300A06204FF0200E0025BA
:102B7000B8EC017AB4EEC07AF1EE10FAC2BF9CED67
:102B8000007A754420EE070A01384FEA6E0E0CF108
:102B9000040CEDD110EE100AB0F17E5F2AD2B4EE33
:102BA000E70AF1EE10FA20DB002D14BF4FF02D08DC
:102BB0004FF02B08B7EE000A662E03D0672E2AD1FD
:102BC000042D28DC672E04BF05F1FF301B18581CAC
:102BD0009042A8BFCB1E84F800A073B901341946F7
:102BE00098464FF0FF3066226BE7F2EE047A20EE53
:102BF000270A01354FF02D08DEE72E2262701946B4
:102C000002343022013D64D009B98846E9E704F86E
:102C1000012B0139F6E78A1F9A4202DC672E5AD04F
:102C2000CB1F3246002108464BE7DFF82881DFF84A
:102C300020C106204FF0200E0025F8EC017AF4EEBA
:102C4000C07AF1EE10FA9EBFDCED007A754420EEFA
:102C5000270A01384FEA6E0E0CF1040CEDD1FDEE9F
:102C6000C07A17EE900A0928C2BFDFED387A013525
:102C700020EE270A662E11D1954211DA5919013139
:102C8000914205DB521B012AA2F1020308BF002377
:102C9000E918013128464FF00008A4E7652E09D154
:102CA0008A1F9A4200DCCB1F00214FF02B080846F8
:102CB000652206E7672E10D1181D904200DB8B1F9E
:102CC0009D4201DB672209E06A1C9B1AE0E7884607
:102CD00035E7A84685E71346A3E7324600214FF0C3
:102CE0002B08A0E7672A7FF4F3AE002BDABF01219F
:102CF0008A465146ECE6FDEEC07A04F1010E17EE6D
:102D0000903A002BA8BF03F1300C019BACBF5FFAD7
:102D10008CFC4FF0300C984284F800C006D1BAF118
:102D2000000F03D004F1020E84F801B0F8EEE77A48
:102D3000019B30EE670A013320EE070A01937446C7
:102D4000CCE600BFFFFF7F7FF8FF7F3FCDCCCC3DBF
:102D5000843406089C340608F1EE047AB4EEE70ADF
:102D6000F1EE10FA38DB611E30200B782E2B8B46EB
:102D700001F1FF31F9D0A3F1300CBCF1090F3DD9BD
:102D80000BF1010B9BF80030302B25D19BF8011083
:102D90002E293FD1662A3DD0B8F12D0F8BF80010B7
:102DA0008BF8013034D1013D08BF4FF02B085C4552
:102DB0000BF10100ABEB0401A0EB04003CBF0021D0
:102DC0000120A4EB0B02214438BF0022204440F034
:102DD0004DF931238BF80030672E7FF489AEBAF1BC
:102DE000000F3FF485AE23461C46013B14F8012C2E
:102DF000302AF9D02E2A08BF1C4679E6392B03D099
:102E000001338BF80030BDE7BB454870ADD1B9E761
:102E10000135CCE70134CAE7F1EE047AB4EEE70AF3
:102E2000F1EE10FA9FDA63E608B5044631B1054BBE
:102E30004A6C0360096800232CF0ECFB20461DF06F
:102E400007F900BFFC4406082DE9FF471E46019222
:102E5000451812B1023A222A34D80446AC42274619
:102E600039D214F8010B1EF09DF980460028F5D1E7
:102E70003B782B2B29D12746E91B384601AA28F09D
:102E800018F80744B9460024A9454B4626D3B8F1A3
:102E9000000F00D06442640044F00104BB4209D03A
:102EA0001F46AF423B4641D2187801371EF07AF9EF
:102EB0000028F6D12049019A20482CF06FFB3146BA
:102EC000FFF7B2FF1E4829F0FDFA2D2B04BF27465D
:102ED0004FF00108D0E74FF00008CDE719F8012BBB
:102EE000A2F1300ABAF1090F09D95F2ACCD042F019
:102EF0002002A2F161011929C9D8A2F1570A01994A
:102F00005145C4D9204636F0DDFD28B9019B03FBAD
:102F100004A494EA4403B7D5019B03974246E91BF6
:102F200003A82DF033FD039B0446B7E7C2D120462A
:102F300004B0BDE8F08700BFC9340608EC450608B8
:102F4000B43406082DE9F04F2DED028B83B0044612
:102F5000DDF83880019391464618B442254680F04A
:102F6000318128781EF01EF9013407460028F4D17B
:102F70002B782B2B09D125468246B4420CD3002353
:102F8000DFED938A1F4618468BE02D2B03D1254693
:102F90004FF0010AF1E782462B7843F02003692BBA
:102FA00032D1AB1C9E4240F205816B7843F0200386
:102FB0006E2B40F0FF80AB7843F02003662B40F08F
:102FC000F980EB1D9E4205F103041AD9EB7843F01A
:102FD0002003692B15D12B7943F020036E2B10D1E0
:102FE0006B7943F02003692B0BD1AB7943F02003BD
:102FF000742B06D1EB7943F02003792B01D105F135
:1030000008049FED748A14E06E2B2AD1AB1C9E42FB
:1030100040F2D0806B7843F02003612B40F0CA80EF
:10302000AB7843F020036E2B40F0C4809FED6A8A9A
:10303000EC1CBAF1000F01D0B1EE488AA54209D0CC
:10304000B442234680F09880187801341EF0AAF824
:103050000028F5D1614962482CF00AFA4146FFF791
:10306000E3FE0023DFED5A8A9FED5E7A0093AC46C3
:1030700018461946F2EE046A644614F801EBAEF104
:10308000300BBBF1090F38D8022922D1564A9042A1
:1030900002DC0A2202FB00B0A6425ED8009A02B10E
:1030A0004042034413F1250FBEBFDFED507A2533B4
:1030B00068EEA78A13F1090F53D35B4200EE903AF2
:1030C000B2EE040AF8EEE00A3DF030F888EE808AAD
:1030D000AFE7F4EEC78AF1EE10FA0BD507EE90BA1F
:1030E000F8EEE77A0129E8EEA67AF0EE678A31D1A8
:1030F000013BD1E729B90133CEE721B9BEF12E0F4B
:1031000003D10121C8E7022917D04EF0200BBBF1F3
:10311000650F12D1A64258D99CF801102B2905D170
:103120000CF10204B44295D00221B5E72D2913D148
:1031300001220CF102040092F4E7B9F1000F04D06F
:103140004EF0200BBBF16A0F09D0BEF15F0FA3D088
:103150006446A3E700219FE70221A4468CE74F467F
:103160009CE707EE903AB2EE040AF8EEE70A3CF06C
:10317000DDFF28EE808A5CE77FF46CAF57B19FEDEE
:10318000140AF0EE480A03B0BDEC028BBDE8F04F24
:103190002BF012BA019B23B1DFED0D0AB0EE480A05
:1031A000F1E7B0EE480A03B0BDEC028BBDE8F04F8A
:1031B0002CF040BBBAF1000F3FF44CAF9FED048AF6
:1031C0002C4639E74FF0000AD9E63FF443AF65E7F4
:1031D000000000000000807F0000C07FD53406089A
:1031E000EC450608EC78AD6064666606EA1C0802E9
:1031F0000846114640F0F2BD37B505460846019134
:103200003FF082FF044620B102466B6801992868AE
:103210009847204603B030BD2DE9F74F89469DF809
:10322000301017460D9A11F0DF0F0646A2EB070289
:103230003DD0302925490CA813BF804688464FF061
:10324000100A4FF0010A13F0800535D002EBD2745A
:103250006510A2EB6404002D35DDAB46DA4552461D
:1032600073683068A8BF5A46414601929847019A50
:10327000ABEB020BBBF1000FF0DC2FB173683068D1
:103280003A46494698473D44002C0CDD2544A2456A
:103290005746A8BF2746736830683A464146E41B44
:1032A0009847002CF3DC284603B0BDE8F08FDFF828
:1032B00020804FF0100AC6E713F0010401D1154633
:1032C000C9E71446D9E70025D7E700BFE12406087F
:1032D000D02406082DE9F04389B006460020119D50
:1032E0009DF84880139F8DF80F000AB381421ADAC7
:1032F0002D228DF80F204942109A08ACA2F10A0045
:103300000DF11009B1FBF3FC03FB1C12092A8CBF61
:103310001218303204F8012D4C458E4661460ED00D
:103320007345EFD90BE0A80727D52B228DF80F2086
:103330000029E1D130238DF81F300DF11F0415F065
:1033400040099DF80F301CD023B30122CDE9008243
:103350002B460DF10F013046FFF75EFF013F81461E
:1033600008AACDE900872B46121B21463046FFF7FD
:1033700053FF484409B0BDE8F0836A07D8D520223E
:10338000D4E7002BECD004AA9442E9D904F8013C1C
:10339000013CE5E79946E3E72DE9F04F93B081461C
:1033A0001E46C8079DF874301C9D0793DDE91E87F3
:1033B0000C4692460BD4A10703D121687F4B99425A
:1033C00005D020462AF0B6F8400040F0010415F080
:1033D000810306D1079A302A03D1B845B8BFB84651
:1033E0001F4620462DF0E4F900280DF1280B18DBCC
:1033F000AA0712D52B238DF828300DF12903E806F2
:10340000F6B21CD5BAF1020F0DD11946302001F8E1
:10341000020B701C58700B4611E06B0701D520237E
:10342000E9E75B46EBE7BAF1080F62D1302119708A
:10343000A90545BF06F10E01597001330233002181
:1034400015F0200F1970A3EB0B0306930CBF0B466E
:103450002C23012F0EA8C8BF45F040050B9015F096
:1034600040024FF01000CDE90C01CDE902638DF868
:103470002710059247D0CDE900A123460DAA0CA93B
:103480000BA82DF06FF803782D2B824606D18DF80E
:1034900027300D9B013B00F1010A0D93012F40F3F2
:1034A00085800D9C059BBC42B8BF3C462BB19DF866
:1034B000273003B10134069B1C44A0452EDD15F0D6
:1034C0000103A8EB04042AD126461C4625F0010579
:1034D0004EB1202300930023019639491A464846ED
:1034E000FFF79AFE0646059B002B5CD1302307931D
:1034F0003AE0BAF1100FA2D11946302001F8020BC0
:1035000006F1170086E70AABCDE900A30DAA234612
:103510000CA90BA82DF026F88246BFE70024002650
:10352000D4E7002426469DF827305BB10023012212
:10353000CDE900320DF127014846FFF76DFE08F195
:10354000FF380644069B63B100230122CDE9003217
:103550005946069A4846FFF75FFE069B0644A8EBCD
:103560000308012FD8BF4746079B00930D9A019788
:103570002B4651464846FFF74FFE06444CB12023E8
:10358000009300230E4901941A464846FFF744FE73
:1035900006440B980EAB984201D01CF0A5FD3046B6
:1035A00013B0BDE8F08F30230793BCE7059B002BD9
:1035B000B7D11C461E464746D6E700BF3C4B06081F
:1035C00013EB06082DE9F0431646B2078BB0984678
:1035D0005ABFC6F380035B012B2300930A46139B5B
:1035E000DDF848900746202102A8FFF7FBF9F30514
:1035F000044610D5431C1F2B0DD800F128020DEBFB
:103600000204252204F8202C03F128026A44002138
:1036100002F8201C1C4616F040051DD09DF808300D
:103620002F2B4FF0000319D8012202A9CDE9003257
:103630003846FFF7F1FD09F1FF390546013C0DF170
:103640000901CDE90089334622463846FFF7E4FDFB
:1036500028440BB0BDE8F08302A9F2E702A91D4699
:10366000EFE700002DE9F04F824689B014460026AE
:103670000B461D4613F8012BC2B9A94219D30B788A
:10368000002B00F04681013120234FF000080A464C
:1036900012F8015B3DB12B2D21D014D8202D21D063
:1036A000212D22D000254FF00A0C25E0252AE0D15B
:1036B000E3E76F1ADAF80430DAF800003A46984780
:1036C0003E442946DBE72D2D05D0302DEAD148F0C8
:1036D00040082B4601E048F001081146D7E748F0C2
:1036E0000208FAE748F00408F7E748F00808F4E7AA
:1036F0000CFB0522A2F130050F4611F8012BA2F1B7
:1037000030000928F4D92E2A40D17A782A2A0FD0FD
:1037100000224FF00A0E0F4611F8010BA0F1300CF9
:10372000BCF1090F07D80EFB020BABF13002F2E738
:1037300054F8042B023722EAE27B3A786C2A08BF5D
:10374000013797F80090B9F1000F00F0E280B9F16D
:10375000780F6AD8B9F1570F1BD8B9F1470F61D864
:10376000B9F1440F61D9073424F00704F4E80201E9
:10377000049359F073FBCDE9005B00EE100A049B43
:10378000424649465046FFF71DFF62E04FF0FF3BBF
:10379000D3E7A9F15802202A47D801A151F822F015
:1037A000E13800082B3800082B3800082B380008B7
:1037B0002B3800082B3800082B3800082B3800085D
:1037C0002B3800082B3800083D3800085F38000807
:1037D000C5380008673700086737000867370008F2
:1037E0002B3800082B3800082B3800082B3800082D
:1037F0002B3800082B3800082B3800082B3800081D
:1038000003390008733800082B3800089D38000879
:103810002B380008E13800082B3800082B38000846
:10382000E1380008B9F1500F6BD0DAF80430DAF85B
:10383000000001223946984701360BE054F8042B6A
:10384000CDE9003543463AB1344904225046FFF7EA
:10385000E3FC0644791C0BE731490522F6E754F8EE
:10386000042B8DF81C20CDE900350122434607A921
:10387000ECE707A954F8040B04931DF068FABBF1B8
:10388000FF3F049B014604D0079A934538BFCDF80B
:103890001CB0CDE90035079A4346D7E754F8041B1E
:1038A0000593084604913FF02FFCBBF1FF3FDDE993
:1038B0000413024602D0584528BF5A46CDE90035C8
:1038C0004346C3E7CDE9023561230093CDF8048078
:1038D0000A23012254F8041B5046FFF7FBFCB8E70B
:1038E00029F00F0209F101010F3A01F00601D2B2ED
:1038F000CDE90235CDF804800092C1F11003002219
:10390000E8E7CDE9023561230093CDF80480102368
:10391000F5E7304609B0BDE8F08F00BFBC240608CB
:10392000C12406080EB403B503AA52F8041B019281
:10393000FFF798FE02B05DF804EB03B0704700009B
:020000040802F0
:10000000024B5A69026058610020704710000020BE
:10001000024B5A6912685A61704700BF10000020F5
:10002000C460056146618761C0F81C80C0F82090FB
:10003000C0F824A0C0F828B0C0F82CD080ED0C8BFC
:1000400080ED0E9B80ED10ABC0F808E0FFF7D8BF45
:10005000104908B54B690BB92DF000FC1A685860BF
:100060004A611846C468056946698769D0F81C80EA
:10007000D0F82090D0F824A0D0F828B0D0F82CD018
:1000800090ED0C8B90ED0E9B90ED10ABD0F808E04E
:10009000012070471000002010B50021044600F038
:1000A000B3FA18B914B120460CF0F8F910BD0021CC
:1000B00000F0AABA10B50121044600F0A5FA18B95B
:1000C00014B120460CF0EAF910BDFFF7E5BF10B5FA
:1000D00001220C4600F0AAFB18B914B120460CF01E
:1000E000DDF910BD00F0A2BB00F062BB2DE9F043CA
:1000F0002A4C00254FF0030CD4F88862002101310E
:1001000043189A0803F00303B25C5B0042FA03F35E
:1001100003F00303022BF2D0D4F89432090103EB6D
:1001200000104FEA910E81B300EB8E0E03681A07A0
:1001300028D1D4F894229A4224D89A1AC2F30111F1
:100140004F00D4F8981299424FEA92164FEA1212D1
:1001500018D9D4F8889219F8068048FA07F303F002
:100160000303012B0ED10CFA07F148EA010805F54B
:10017000A8713F2D09F806809ABF24F81120013597
:10018000C4F89C3204307045D0D12DB1013D05F545
:10019000A87334F81300AFE7BDE8F0831000002027
:1001A00030B51C4CD4E9A453C01AC109C0F3021ED7
:1001B0006B5C012202FA0EF223EA02036B54D4F8BC
:1001C0002C2383094FEA101CB2EB901FD4F888024D
:1001D00088BFC4F82C33C15C4FEA9C0E0CF00303BB
:1001E00003255B0005FA03F321EA030100F80E1072
:1001F0000CF1010CD4F888024FEA9C0E0CF00303BA
:1002000010F80E105A0041FA02F202F00302022A1C
:10021000E7D030BD1000002021F00F0138B5154A9D
:10022000154D0C1AE400A2FB0424640A034623447F
:10023000C5F890322246A1EB8413C5F8981200212C
:10024000C5F89432C5E9A20422F024FFA2000732C7
:10025000D2080021D5F8900222F01CFF00230121D2
:100260004FF0FF32C5E9C932C5F82C332B81A5F810
:10027000201338BDF32C23FA10000020024A138902
:1002800001331381704700BF10000020024A138918
:10029000013B1381704700BF10000020024B1889FA
:1002A000003818BF0120704710000020F8B51C4D21
:1002B0002B8900220133C5F824232B81C5F89C2209
:1002C00005F1080405F5F476032754F8043F1A07EE
:1002D0001AD1D5F89422934216D3D5F898029A1AD7
:1002E000C2F3011183424FEA921C4FEA41014FEAE7
:1002F000121209D2D5F888E21EF80C0040FA01F378
:1003000003F00303012B02D0A642DED1F8BD07FAA9
:1003100001F108430EF80C001046FFF7E7FEF3E783
:1003200010000020A9B32DE9F8431A4F0E46051F0F
:1003300000244FF0030855F8043F1A0704F10104A4
:1003400019D1D7F894229A4215D89A1AC2F30111FA
:100350004800D7F8981299424FEA921C4FEA1212BD
:1003600009D9D7F8889219F80CE04EFA00F303F097
:100370000303012B03D0A642DDD1BDE8F88308FAC0
:1003800000F14EEA010E09F80CE01046FFF7AEFE50
:10039000F1E77047100000202DE9F04F574ED6F8D6
:1003A0008C32D6F89C2285B09800C2B10025C6F8E0
:1003B0009C52002843D00024D6F88812A30804F0E9
:1003C0000302CB5C5200134103F00303032B3FD025
:1003D00001348442F0D3D6F89C32002BE7D170B3BD
:1003E0004FF0000C654603274FF001094FF002085B
:1003F00004E0012B4AD00135854220D2D6F888E2AC
:100400004FEA950A05F003041EF80A20640042FA38
:1004100004F303F00303022B0EEB950128D0032B0A
:10042000E7D108FA04F422EA04020EF80A20D6F80A
:100430008C320135980085424FF0000CDED33389B1
:100440000022013BC6F82C23338105B0BDE8F08FB4
:100450002046FFF74BFED6F88C320134B4EB830F05
:100460004FEA8300A8D3D6F89C32002B9FD1B6E781
:10047000BCF1000FBFD007FA04F422EA04040C70A8
:10048000D6F88C324FF0010C9800B4E7D6F8900201
:10049000EB0805F0070B10F803E0019300EBD50C17
:1004A0004EFA0BF0C307E6D5D6F89402290141585D
:1004B00000EB0510A9B102AAB1210BF0E3F9DDE9C7
:1004C000013242B10CF054FADDE902010CF020FADD
:1004D0000CF064FA019BD6F8902212F803E002EBCC
:1004E000030C09FA0BFB2EEA0B0E8CF800E0D6F891
:1004F000881211F80A205144BDE700BF1000002007
:10050000044B1A8900210132C3F89C121A81FFF7AB
:1005100043BF00BF100000203A4A2DE9F047D2E95E
:10052000A5410023091BD2F888620160D2F88C1221
:10053000C0E90133C0E90333C0E905334FEA810C58
:100540001D469E461F461C461A4699461946984621
:1005500016F8093049000B4103F00303012B47D083
:10056000022B41D0002B38D0013294450ED04FEAF7
:10057000920902F0030116F809304FEA410A43FAE2
:100580000AF313F0030301D0012BE1D1012C11D0A8
:10059000022C02D14169013141618169A14238BF18
:1005A000846194450FD0012B26D04FEA920902F0C6
:1005B0000301CDE70169013101618169A14238BFC1
:1005C00084619445EFD1474500D9C7602D014FEABA
:1005D0000E13C0E90153BDE8F0870EF1010EC0F81B
:1005E00008E001371C46BFE7013545600134BBE731
:1005F000013545601C46B7E7B84501D2C760B8462B
:100600000027D2E7100000200F302DE9F84306093B
:1006100050D0664C2389002B4CD1B4F82033002BEA
:100620000D460CBF4FF0010E4FF0000E46D1D4F82E
:100630002C03D4F88C72874239D9D4F888C2411E71
:10064000614400221AE00132964252D913F00C0F95
:100650001ED10132964240F29F8013F0300F1CD120
:100660000132964240F29B8013F0C00F1AD1013242
:10067000964240F297800130B84218D211F8013FFB
:1006800013F0030FDFD013F00C0F4FF00002E0D097
:1006900013F0300F4FF00002E2D013F0C00F4FF014
:1006A0000002E4D00130B8424FF00002E6D3BEF1C0
:1006B000000F13D000231846BDE8F883D4E9C923FE
:1006C0009A42B4D333F020FFD4F82C03D4F88C72C0
:1006D000B84238BF4FF0010EAFD3EBE733F014FF51
:1006E000D4F82C03D4F88C7287424FF0010EA4D8B2
:1006F000E0E78000811A012A01F1010703D1431CC0
:100700009B08C4F82C334FEA970E07F003081CF837
:100710000E904FEA48080123023103FA08F343EA36
:10072000090388420CF80E3013D34FF002084FEA49
:10073000910CD4F888E201F003031EF80C905B00E2
:1007400008FA03F3013143EA090388420EF80C303A
:10075000EDD2D4F82433D4F894823344C4F824334B
:1007600008EB071312011846002122F093FCEA0758
:100770004FEA071603469ED50022D4F8900248F8A7
:100780000620F9080122445C07F00707BA4022431B
:1007900042541846BDE8F88380000130AAE7800083
:1007A0000230A7E780000330A4E700BF100000205C
:1007B000034B1A8912B908B1FFF7F2BC704700BFAA
:1007C0001000002010F00F021CD11749D1F894320C
:1007D000834218D810B4D1F8984284420ED9C31A73
:1007E000D1F888429909C3F30110615C40000141CE
:1007F00001F0030101294FEA131306D010465DF8FA
:10080000044B70470022104670470132991888083F
:1008100001F00301205C490040FA01F101F00301FD
:100820000229F2D01201E9E7100000202DE9F84F6B
:1008300089460646002800F09D80534D2C890029EA
:100840006ED0002C6ED1D5F89412D5F88C32411AA6
:100850004FEA111E0EF1010709F10F0CB7EB830FE0
:100860004FEA830A4FEA1C1C234680F08980D5F8A2
:1008700088024FF00108BC0807F0030B045D4FEA43
:100880004B0B44FA0BF404F00304022C4ED024B9B1
:10089000013303EB080464454AD3C4453CD04BD331
:1008A000434463451CD2D5F89032C909595CCAB398
:1008B0000EF0070E41FA0EF101F001014846FFF774
:1008C000A3FE044670B34FEA0812314622F09EFBA5
:1008D0002B8913BB3046FFF763FC2046BDE8F88F39
:1008E0000EEB0802E64496450ED902279108D5F88A
:1008F000880202F00303445C5B0007FA03F3013251
:10090000234396454354F1D1ACEB08021201002178
:1009100006EB081022F0BEFB34462046BDE8F88FF7
:10092000002CD8D000242046BDE8F88F08F101083B
:100930000137BA459FD1B0E7F4446246C644032765
:100940009008D5F8884202F00303215C5B0007FAA7
:1009500003F3013221EA030372452354F0D1D5F8A1
:100960002C33B3EB9C0F4FEA9C02D5D9C5F82C234E
:100970003446D2E701464846BDE8F84FFFF744BE8B
:100980004FF0010889E700BF1000002010B58AB0C1
:1009900003A8FFF7C1FDDDE90430094C039A00907C
:1009A00008492046E2F7BEFFDDE908310698079ABC
:1009B000CDE9001004492046E2F7B4FF0AB010BDAB
:1009C000C8240608D0D10508F4D105082DE9F04760
:1009D000DFF864A14949DAF894224948E2F7A2FF16
:1009E000DAF88C12890077D0DFF85091DFF8508167
:1009F000434F00250EE0012B47D02E2241493846B7
:100A0000E2F790FFDAF88C320135B5EB830F4FEA4D
:100A1000830161D205F00306AA06DAF888024FEADC
:100A200046060CD0DAF88822AB08D35C334103F0D9
:100A30000303022B27D0032BDDD16D22DEE72C46EA
:100A4000A20804F00303825C5B0042FA03F39B07F5
:100A500002D101348C42F3D3621B7F2A0CD92A497C
:100A600092093846E2F75EFFDAF88C3224F03F054F
:100A7000B5EB830F30D2002609EA0512414638460D
:100A8000E2F750FFCEE73D22B8E7DAF894221F499B
:100A90002B01D2588A421DD01D4B9A4222D01D4BA9
:100AA0009A4223D01C4B9A421ED01C4B9A421BD018
:100AB0001B4B9A421CD01B4B9A4219D01A4B9A429C
:100AC0001AD01A4B9A4215D0194B9A420CBF4D229C
:100AD000682293E7542291E7BDE8F047154908489A
:100AE000E2F78ABB4C2289E7532287E7442285E755
:100AF000412283E7422281E746227FE73CD2050874
:100B0000C824060880D205085CD20508385B0608B0
:100B1000A84C0608C43E0608B858060854560608ED
:100B2000C83A0608503A0608EC4606087C4706080C
:100B30005C4E060858D2050810000020F0FF0F0098
:100B400078D20508054B1B6A5A68824204D8801A7D
:100B5000043053F8200070471B68F5E710000020B0
:100B6000014441F20553884204D398B2012838BFAA
:100B70000120704710F8012B03EB43135340F2E7B9
:100B8000034B044A1A620022C3F8EC21704700BFED
:100B9000100000200CD906082DE9F84F80460D46BC
:100BA000FFF7DEFF134B1C6A07460CB920461EE018
:100BB000E36804F1100B0BEB83095E464E45B24629
:100BC00001D32468F1E756F8040B0388BB42F5D142
:100BD0008378AB42F2D12A464146033022F082FAB2
:100BE0000028EBD16068AAEB0B0A00EBAA00BDE875
:100BF000F88F00BF100000202DE9F04780460E4618
:100C0000FFF7CAFF024600287FD1FF2E03D94049D3
:100C100040480AF0B1FE404CD4F8EC01351D90B1CB
:100C2000D4E97C132B448B422AD92944FFF75AFA82
:100C30000746E0B90246D4F8F411D4F8EC01FFF706
:100C400051FAC4F8EC71802D2F4638BF8027384602
:100C5000FFF72DFAC4F8EC0100283DD12846FFF734
:100C600026FAC4F8EC01B0BB28460BF017FCD4F808
:100C7000F0312B44C4F8F031D4F8EC31002BE2D041
:100C8000D4F8F491D4F8ECA131464D444046C4F870
:100C9000F451FFF765FF0AEB09070AF80900000A9B
:100CA0007870BE7032464146F81C22F0AFF9BB198D
:100CB0000026DE70236AD3E90253AB421BD36D00DA
:100CC0000A2D38BF0A25281D8000FFF7F0F948B922
:100CD000C4F8EC01C8E72F460023C4F8F071C4F84B
:100CE000F431CDE7226A02605368D268C6601344CB
:100CF000C0E901352062236ADA68511C0432D960E8
:100D000043F822705A68013A0A441046BDE8F08759
:100D100083D20508484406081000002010B5044698
:100D200022F0F2F901462046BDE81040FFF764BF0B
:100D300008B5FFF707FF008808BD08B5FFF702FFF9
:100D4000807808BD08B5FFF7FDFE033008BD08B583
:100D5000FFF7F8FE83780B60033008BD2DE9F843F8
:100D60001D46002303600B6013602B60174BDFF8F8
:100D700060901C6A0746884616460CB14C4505D162
:100D80002B68326813442B60BDE8F8833B6801335D
:100D90003B60E268D8F800301344C8F80030E268DD
:100DA00004F1100303EB8202934207D32046FFF7BE
:100DB00009FD2B68246818442860DEE753F8041BFB
:100DC00088783168043101443160EDE7100000207B
:100DD0000CD906082DE9F8430E4B0F4F1C6ADFF8BB
:100DE0003C80DFF83C900CB1BC4201D1BDE8F883F7
:100DF000E36804F1100505EB8306B54201D32468CE
:100E0000F1E755F8042B414603324846E2F78AFDE4
:100E1000F3E700BF100000200CD9060888D20508AF
:100E2000C824060830B50023202411F8012F0AB980
:100E3000027030BD120600F101051FD50BB1047020
:100E400028460B78124A03F07F036BB9013A12F877
:100E5000013F13F0800F054600F101000BD003F0B5
:100E60007F032B700123E0E712F9015B002DFBDA11
:100E7000013BDBB2E9E700F8013CE8E7012B04BFE6
:100E8000047028460B7800F8013B0223CDE700BF31
:100E90008FD2050838B5436819440368994205465E
:100EA00011D9037BDB0703D5074800210AF064FD55
:100EB00001F1100424F00704083480682146FFF78C
:100EC00006F92C60A86038BD4844060870B5044691
:100ED0000E4611461546FFF7DDFFD4E901302A46DC
:100EE0001844314622F0C2F863682B44636070BD39
:100EF00070B54668B142044628BF31460D4601210F
:100F0000FFF7C8FFA368681C5919721B184422F028
:100F1000ADF86368A06801336360284470BD38B5DC
:100F20000129044638BF012100250846216065607B
:100F3000FFF7B2F8237BA06065F30003237338BD8D
:100F400038B505460C460131FFF7E9FF6C6038BD46
:100F50000023C0E90132037B016043F00103037306
:100F60007047000038B514460546FFF7D8FF024B1E
:100F70002560636038BD00BFCD0E0208037BDB0730
:100F800010B5044602D48068FFF7AEF80023A360D2
:100F900010BD13B501901020FFF77EF801990446AB
:100FA000FFF7BDFF204602B010BD10B5044650B19A
:100FB000037BDB0702D48068FFF796F82046BDE884
:100FC0001040FFF791B810BD38B5037BDB0704462E
:100FD0000D4603D5074800210AF0CEFC0168806861
:100FE0002944FFF774F82368A0601D442560184465
:100FF00038BD00BF4844060838B504460D46FFF723
:1010000049FFD4E901301D446560184438BDD0E97A
:1010100000239A4210B5044602D10121FFF7D4FF04
:10102000D4E901320021D154A06810BD10B50C469E
:101030000121FFF7E1FF047010BD7F29F8B50C46D0
:10104000CEB204D80121FFF7D7FF0670F8BD06F035
:101050003F06B1F5006FC1F3871546F0800607D251
:101060000221FFF7C9FF65F03F0505704670EDE707
:1010700005F03F05B1F5803FC1F3073745F0800526
:1010800008D20321FFF7B8FF67F01F07077045700C
:101090008670DBE70421FFF7AFFFA40C07F03F07E2
:1010A00064F00F0467F07F07047047708570C670A6
:1010B000CCE713B504460846019122F025F80199C2
:1010C0000246204602B0BDE81040FFF7FFBE10B553
:1010D0001446FFF70DFF047010BD10B51446FFF75E
:1010E00007FF047010BD43688B422CBF591A0021C2
:1010F0004160704738B50446154662688A42084622
:1011000003D929448A4201D8606038BDA368521AC5
:101110001844194421F0AAFF63685B1B6360F4E77D
:1011200090F900200378002A0ADA03F07F034022B6
:10113000134207D110F8012F02F0C001802905D019
:101140001846704723EA02035208F1E702F03F0213
:1011500042EA8313EEE7431C18460133027802F09B
:10116000C002802AF8D070470023814201D8184677
:10117000704711F8012D02F0C002802A18BF013318
:10118000F3E701440346002099421A4600D870470D
:10119000127802F0C002802A03F1010318BF013067
:1011A000F2E700007F289DBF024B185CC0F34000AF
:1011B00000207047F22406087F289DBF024B185C70
:1011C000C0F3C00000207047F22406087F289DBFAE
:1011D000024B185CC0F3800000207047F224060820
:1011E0007F289DBF024B185CC0F380100020704721
:1011F000F22406087F2809D8064B1B5C13F00C0F5D
:1012000006D1A0F15F035842584170470020704753
:1012100001207047F22406087F289DBF024B185C0E
:10122000C0F3001000207047F22406087F289DBFFD
:10123000024B185CC0F3401000207047F2240608EF
:1012400008B50246FFF7E8FF00B12032104608BD9E
:1012500008B50246FFF7EAFF00B1203A104608BD84
:101260003038092884BF20F020000738704710B5B7
:1012700001440246E5240020914203D8B0FA80F0F0
:10128000400917E012F8013B30B103F0C003802B96
:1012900011D1431ED8B2EFE7BF2B09D9F72B09D8DC
:1012A000DB0803F0060344FA03F303F00300E3E76B
:1012B0001B06E1D510BD0020FCE7023981420B4638
:1012C00003D31A880239002AF8D00233181A4010C2
:1012D0007047B2EB131F70B54FEA131415D9121BE8
:1012E00003F00F0301EB440115460E46012D31F8C2
:1012F000024B18BF3468DC40A4B2013D20F8024B19
:10130000F3D104B9013A104670BD0022FBE7F0B5F5
:10131000059F0024D21B2646A74210D100EB4705AB
:1013200001EB470100239A4214D105EB42031EB1A1
:10133000012125F812100233181A4010F0BD31F8BF
:10134000145033F814C06544354420F814502E0C62
:101350000134E1E731F81340344425F81340260CFA
:101360000133E0E7F0B4049F0025D21B2C46AF42C6
:101370000BD100EB470601EB470500239A420FD142
:1013800006EB4201F0BCFFF798BF31F8156034441A
:1013900033F81560A41B20F8154024140135E6E746
:1013A00035F813100C4426F8134024140133E5E7F4
:1013B0002DE9F043079CDDF828E0DDE908760239E5
:1013C000154684464FF6FF78A4EB020955B900EBA9
:1013D00042011FB1012320F812300231BDE8F04371
:1013E000FFF76BBF31F8024F013D4444264405EB43
:1013F0000904AC4296BF33F8024B4FF6FF744444E5
:10140000744486EA040E17FA8EF72CF8027B4FEA32
:10141000144E360C3F0CD9E738B5022904468068D3
:1014200038BF02210D4618B12368B1EB930F07D9DD
:101430006900FEF74CFE2368A06065F39F032360FC
:1014400038BD38B504460C20FEF726FE2368227806
:10145000054602F00102C3F39D0023F0030313438A
:101460002B6063686B604000FEF716FEA860226880
:10147000A168C2F39D02520021F0C8FD284638BD84
:10148000994210B511D313D800EB410002EB410291
:1014900009B9084610BD30F8023D32F8024D1B1B59
:1014A000002B02DB04D10139F2E74FF0FF30F1E706
:1014B0000120EFE710B5044638B18068FEF714FE4E
:1014C0002046BDE81040FEF70FBE10BD70B50546C2
:1014D0000C460221FFF7A0FF002C2B78B4BF01229D
:1014E000002262F30003AA682B70B4BF6142214658
:1014F000012388B2090C14461E4622F8020B03F1A0
:101500000103F6D16E60208070BD0023C0E9003376
:101510008360704728B103789B0702D48068FEF788
:10152000E3BD704738B505460C464968FFF774FFC0
:1015300022782B78A86862F300032B7063686B60D5
:101540006268A1685200BDE8384021F05FBD0A46DC
:1015500029B90178426062F3000101707047FFF71A
:10156000B5BF08B5FFF7D1FFBDE80840FFF7EFBFF3
:10157000920042F0020210B402600022C0E9012190
:101580005DF8044B1946FFF7E2BFF8B59DF81870F7
:1015900014461D4604210646FFF73EFF22462B4611
:1015A00027B1002D0CDA624265EB4503317867F311
:1015B000000131700021716052EA030102D1F8BDCF
:1015C0000027F3E7D6E901104C1C746020F81120C5
:1015D000120C42EA03421B0CEEE72DE9F3418DEDBC
:1015E000010A019C0378E20F62F300030370C4F365
:1015F0000F4313F4FF43074608D13B786FF3000312
:101600003B7000237B6002B0BDE8F081B3F5FF4F73
:10161000F3D0C4F3C753A3F17F05002DEDDB05D153
:10162000012102B0BDE8F041FFF750BFA3F16F0800
:10163000C4F31604162D4FEA281844F4000421DCE4
:10164000C5F11705EC4000252E4641463846FFF708
:10165000E3FEC7F8048026B1B8687200002121F0CB
:1016600019FD45B1BB6804FA05F223F81620C5F14F
:101670001005EC400136B045C5D0BB6823F81640D4
:10168000240CF7E7B3F1960605F1090548BFA3F16D
:10169000870605F00F053611D7E72DE9F843044614
:1016A0008F18C2F35B020D46511C9846089EFFF747
:1016B000B3FE237868F300032370AC4600221FFAC0
:1016C00086FEBC456046626002D3401BBDE8F883DD
:1016D0000178A1F13003092B0CF1010C05D9A1F11E
:1016E0004103192B12D8A1F13703B342EDD2A06800
:1016F00090468146B8F1000F0FD100EB420113B1C3
:1017000020F812300231091A4A10DAE7A1F1610318
:10171000192BDAD8A1F15703E7E7B9F8001001FB5C
:101720000E3329F8023B08F1FF381B0CE2E7F8B54D
:10173000044615461E46C1B1531E1E444FF0FF37E6
:10174000E9000F3109092046FFF766FE23780021E2
:101750006FF30003237061604DB9D4E9011000EB11
:101760004101FFF7AAFD6060F8BD0127E8E700230B
:101770000F2908DC32788A401343013D9BB201F106
:1017800008013E44F4D16268501C6060A0681039C2
:1017900020F81230E0E738B505780B7805F0010243
:1017A00003F001030446981A08D1D1E90132D4E9C3
:1017B0000110FFF765FEEB0748BF404238BD884285
:1017C00010B5044601D0FFF7ADFE23786FF3000398
:1017D000237010BD884210B5044601D0FFF7A2FE69
:1017E00063683BB12378C3F30002C2F1010262F3E4
:1017F0000003237010BD88421FB5044601D0FFF7D7
:1018000091FE626862B901212046FFF705FEA268D9
:10181000012313806360237843F00103237010E0F9
:101820002378D9070FD5A1686FF300032370012334
:10183000ADF80E30009308460DF10E03FFF792FD50
:10184000606004B010BD511C2046FFF7E5FDA168A3
:1018500062680123ADF80E30009308460DF10E03C7
:10186000FFF755FD6060D6E72DE9F8434B68054664
:101870000E46144603B12AB931462846BDE8F8435E
:10188000FFF750BE02F10F014FEA111803EB1111DF
:10189000FFF7C2FDD6E9013208EB0307A96807F19B
:1018A000004C14F00F040CF1FF3C01EB4C0C08BF92
:1018B000102402EB43021946E1464FF0000EC4F13A
:1018C000100401BB6FF0010253430CEB0300C8F19D
:1018D00001082EFA04FE4FEA480200EB4808404691
:1018E0002CF803E0524221F0D5FBA8F1020817B111
:1018F00038F817309BB16F6032782B7862F30003B1
:101900002B70BDE8F88332F8020D40EA0E0020FA91
:1019100004FE29F802E901394FEA004ED1E7013F00
:10192000E5E72DE9FF410D4649680646144601B139
:1019300032B92946304604B0BDE8F041FFF7F2BDA8
:10194000FFF76AFDB768D5F808806A682346414604
:101950003846FFF7BEFC70602978337861F30003E6
:101960003370DB0702462AD500236968ADF80E30D4
:101970002009994201D083420ED181421FD904F03F
:101980000F04012338F8101003FA04F4013C21423B
:1019900011D0ADF80E3007E038F813504DB10123E7
:1019A0008142ADF80E30EAD801235AB93B8073600A
:1019B00005E00133DDE7BDF80E30002BF4D104B0B3
:1019C000BDE8F081009339460DF10E033846FFF76C
:1019D0009EFC7060F3E773B50C4615460646D2E9E7
:1019E0000132D1E90110FFF74BFD0028BEBF2346AD
:1019F0002C461D4623782A7861685340DB071AD4A9
:101A000001313046FFF708FD6B680093D4E90121EE
:101A1000AB68B068FFF77BFC706023783278C3F363
:101A2000000300280CBF002303F0010363F300024E
:101A3000327002B070BD3046FFF7EEFC6B68009369
:101A4000D4E90121AB68B068FFF78CFCE4E7F7B597
:101A50000C4617460546D2E90132D1E90110FFF7DD
:101A60000FFD0028BEBF23463C461F4623783A7828
:101A7000616883EA0203B4BF01260026DB0719D59B
:101A800001312846FFF7C8FC7B680093D4E90121A7
:101A9000BB68A868FFF73BFC6860B8B1237803F027
:101AA00001030EB183F001032A7863F300022A7068
:101AB00003B0F0BD2846FFF7AFFC7B680093D4E984
:101AC0000121BB68A868FFF74DFCE5E70346EBE79B
:101AD0002DE9F04F14464A6863689A420D463EBFAE
:101AE00025460B461C462B786968DB0785B0064601
:101AF00022D4237813F001071ED1FFF78DFCD4E91F
:101B0000011CB068AD683B4699420CD100EB410125
:101B1000FFF7D3FB00237060327863F3000232706A
:101B200005B0BDE8F08F35F813203CF81340224093
:101B300020F813200133E7E701313046FFF76CFC52
:101B40002F782378D5F804C0B068A26887EA03012B
:101B5000C94301F0010E41F3000189B207F0010809
:101B600047F300070291B9B20191A968A1F1020AF5
:101B7000616803F0010943F300039BB2A1EB0C0180
:101B800000936746834603918FB900EB4C01BEF189
:101B9000000F03D0012320F81C300231FFF78DFB2A
:101BA000706022782B78C2F300021340B4E73AF851
:101BB000021F019B5940039B013F8844D919B94238
:101BC0009BBF32F8021B009B009959408944029B3D
:101BD00008EA090159401EFA81F12BF8021B4FEA6D
:101BE00019494FEA18484FEA114ECDE72DE9F84F51
:101BF00015464A686B689A420C463EBF2C460B4617
:101C00001D4623786168DB07064632D42A7812F035
:101C100001072ED1FFF700FCD5E9013EA1686468F9
:101C2000D6F808C0E41A3A46934213D101EB4301B7
:101C300000220CEB4303944215D103EB4403A3EBC6
:101C40000C03581000223378706062F30003337085
:101C5000BDE8F88F31F812003EF8125028432CF8F6
:101C600012000132E0E731F8120023F812000132CD
:101C7000E1E701313046FFF7CFFB22782B7861682E
:101C8000B068A468D5E901E702F0010803F0010992
:101C900042F3000243F3000392B29BB2A4F1020CA0
:101CA0000D4683464FF0010AAEEB010E2DB900EB55
:101CB0004101FFF702FB0122C5E73CF8024F013D5D
:101CC0005440A0440EEB0504AC4296BF37F8024BDB
:101CD0001C465C40A14448EA0904E4431AFA84F42F
:101CE0002BF8024B4FEA19494FEA18484FEA144AB9
:101CF000DCE7F0B515464A686B689A4238BF0B4678
:101D00000C463CBF2C461D4627782B7861685F4007
:101D100017F0010785B006463BD1FFF77DFB23781E
:101D200013F0010329D1D5E9012C6168B068A768D7
:101D3000891A9A4212D107EB4207002300EB4202B4
:101D4000994214D102EB4101FFF7B7FA7060002706
:101D5000337867F30003337005B0F0BD37F81340F4
:101D60003CF813506C4020F813400133E1E737F89A
:101D7000134022F813400133E2E7CDE902770197DF
:101D80006B680093D4E90121AB68B068FFF710FBE2
:101D9000DCE70131FFF740FB2B78B068DB4303F051
:101DA000010303932378DB4303F00103012702932C
:101DB00001976B680093D4E90121AB68FFF7F8FA4B
:101DC0007060C5E72DE9F04F4B6885B004460E46BC
:101DD00015460BB1536843B923786FF300032370A2
:101DE0000023636005B0BDE8F08F81422ED1FFF77C
:101DF00028FBA5420646074600D105466B68716878
:101E000020461944FFF708FB2268A068C2F39D0230
:101E10005200002121F03EF9B368D4F808E0D6F86A
:101E200004900193AB68029300226B6803930EEB5E
:101E30004908F4461146039B934231D0DDF804B0C3
:101E4000CDF80090ACF10200002318E0824204D1EA
:101E5000FFF7F7FA05460746D0E70027CEE730F848
:101E600002AF53441946029B3BF802AB33F81230E1
:101E700003FB0A130099038001391B0C00910099A0
:101E80000029ECD14146881C13B1A8F80030014666
:101E9000A1EB0E0149100CF1020C01328046CAE799
:101EA00061602A78337853402278384663F3000221
:101EB000227005B0BDE8F04FFFF7FCBA4B6870B573
:101EC0000546144613B11378DA0706D52B786FF35D
:101ED00000032B7000236B6070BD636823B9BDE8FD
:101EE00070400121FFF7F2BA0846FFF7AAFA06464A
:101EF0002046FFF7A6FA012104462846FFF7E6FA36
:101F0000636883B1A3681B88DB0704D53246294682
:101F10002846FFF757FFA168626801230846FFF7CC
:101F2000D8F9606038B93046FFF7C4FA2046BDE8FA
:101F30007040FFF7BFBA324631463046FFF742FFE6
:101F4000DEE72DE9F04F0C4651688FB09046013125
:101F500005460293FFF760FAD8F80420A86801321A
:101F60005200002121F096F82B7800266FF3000331
:101F70002B706E60D8F8041020460131FFF74CFA40
:101F800041462046FFF7CEFA029BA768D4F804909A
:101F9000D3E9013A0093AB6803935246009B49464C
:101FA0003846FFF76DFA002835D1039A60600123A7
:101FB00013806B6023786168C3F3000200290CBFB3
:101FC000002202F0010262F30003029A237098F8E3
:101FD000003012785340DB0740F100816B682A78AB
:101FE000003B18BF012363F300022A70002900F0B0
:101FF000F5800BA84FF0FF31FFF7B3FA0BAA294683
:102000002846FFF7E8FC029A214620460FB0BDE8BB
:10201000F04FFFF7E0BC01DA6E60CBE7009B03F105
:102020000042013A4FEA420E3AF81230180406F123
:10203000010150D507EB490B0BF102030193B3B239
:10204000002109F10100C3F1100627F81910BC4660
:1020500060600496019EB44541D33AF812209A403C
:102060000492009A012A09D90AEB0E02C3F1100169
:1020700032F8022CCA40049911430491009A801A44
:102080006860039A00F10040013802EB40020692BA
:102090000EF102020992AAF1020A626805920599FC
:1020A000009A8A4227D301F1004B0BF1FF3B07EB6B
:1020B0004B0B0022C3F110005F4576D96FF0004151
:1020C0006B682BB103985A1830F81220002A76D08A
:1020D0006FF0004178E05B009BB20E46A6E7BCF8CB
:1020E000006006FA03F941EA090904992CF8029BF9
:1020F000CE40B1B2AEE7BBF800103BF8022C42EA8A
:1021000001420499B2FBF1F20192099AABEB02028F
:10211000CDE9072A002016468646B3450FD8BBF8FE
:102120000010084400283BD1069A019922F80219B0
:102130000692059A013AABF1020B6260ADE7089A8C
:10214000B6F8009032F8021F08929940019A41EACD
:102150001E4E1FFA8EF1514319FA80F91FFA81FCC5
:10216000090CA9EB0C0CC1EB204126F802CB01EBCA
:102170002C40D2E739F802CF0CFA03FC4CEA1E4E91
:10218000B6F800C011FA8EF18C4426F802CB4FEA63
