:1000000019C033C032C043C030C02FC02EC030C072
:100010002CC02BC02AC029C028C027C026C025C09C
:1000200024C023C022C021C020C01FC01EC01DC0CC
:100030001CC01BC011241FBECFEFCDBFDFE3DEBF4E
:100040001EE3A0E0BEE3E1E4F5E102C005900D92FD
:10005000AE31B107D9F72EE3AEE1BEE301C01D9288
:10006000AE3EB207E1F722D069CACACF66D508957D
:100070001F920F920FB60F9211248F9381E08093FD
:1000800053018F910F900FBE0F901F9018951F92E4
:100090000F920FB60F9211248F938FEF8093090464
:1000A0008F910F900FBE0F901F901895DFDF84E6A1
:1000B0000AC08AB180618AB9C7EAD1E62197F1F70F
:1000C00000C00000892F9FEF980F8111F2CF89B1F6
:1000D000806189B980E090E093D5C82F80931F3E5E
:1000E0002091053E3091063E4091073E5091083EDA
:1000F0006091093E70910A3E80910B3E90910C3EBA
:10010000ACD86B017C01C53658F46C2F70E080E0F0
:1001100090E066D820E030E048EC52E484D704C098
:1001200060E070E080E89FE3A701960135D9F2D73F
:100130002093053E3093063E4093073E5093083E81
:100140006093093E70930A3E80930B3E90930C3E61
:1001500060E080E0FDD6159904C0359904C095E0B3
:1001600003C091E001C091E08091003E899F802D05
:1001700011248093003E92B1892F807295FD04C0B6
:10018000359903C082E001C080E080931E3EC0E04C
:10019000412C512C3201C12CD12C7601F1C080E2CE
:1001A0008093213E2EC060E080E0D2D640912B3E6D
:1001B00050912C3E60912D3E70912E3E480F591F5C
:1001C000611D711D40932B3E50932C3E60932D3E3C
:1001D00070932E3E61E080E0BBD64091273E509167
:1001E000283E6091293E70912A3E480F591F611D9B
:1001F000711D4093273E5093283E6093293E709393
:100200002A3E8091213E9FEF980F9093213E8111CD
:10021000CACF20911E3E30E02E5F3F4F80912B3E93
:1002200090912C3EA0912D3EB0912E3E022E04C006
:10023000B595A795979587950A94D2F74091273E53
:100240005091283E6091293E70912A3E04C07595D8
:100250006795579547952A95D2F7841B950B092EDC
:10026000000CAA0BBB0BC80ED91EEA1EFB1E109277
:10027000273E1092283E1092293E10922A3E10925C
:100280002B3E10922C3E10922D3E10922E3E80E27C
:100290008093213E2EC060E081E05AD640912B3EF3
:1002A00050912C3E60912D3E70912E3E480F591F6B
:1002B000611D711D40932B3E50932C3E60932D3E4B
:1002C00070932E3E61E081E043D64091273E5091ED
:1002D000283E6091293E70912A3E480F591F611DAA
:1002E000711D4093273E5093283E6093293E7093A2
:1002F0002A3E8091213E9FEF980F9093213E8111DD
:10030000CACF20911E3E30E02E5F3F4F80912B3EA2
:1003100090912C3EA0912D3EB0912E3E022E04C015
:10032000B595A795979587950A94D2F74091273E62
:100330005091283E6091293E70912A3E04C07595E7
:100340006795579547952A95D2F7841B950B092EEB
:10035000000CAA0BBB0B480E591E6A1E7B1E109286
:10036000273E1092283E1092293E10922A3E10926B
:100370002B3E10922C3E10922D3E10922E3ECF5FBF
:10038000C93008F40CCFC701B60129E33EE843EEBB
:1003900058E36FD800E296D8822E932EA42EB52E65
:1003A000B694A794979487948092253E9092263E87
:1003B000C301B20129E33EE843EE58E35AD882D89C
:1003C000822E932EA42EB52EB694A794979487943C
:1003D0008092233E9092243E89B18F7E89B9E3E1D9
:1003E000F4E08081887F8160808380910A11EEE053
:1003F000FEE3868380910B11878380910C118087A7
:1004000046E060E1CF01E6D42091053E3091063E02
:100410004091073E5091083E6091093E70910A3E1E
:1004200080910B3E90910C3EADEF68D82093053E35
:100430003093063E4093073E5093083E6093093E3A
:1004400070930A3E80930B3E90930C3E44E154E03F
:10045000FA0180818860808324E334E0E9018881A7
:1004600088608883A5E1B4E08C9188608C93E5E393
:10047000F4E0808188608083C2B1C295CF7081E052
:10048000C827C170BC2ED6B1D295DF70D827D170E5
:10049000AD2EEA018881877F8883E9018881877F83
:1004A00088838C91877F8C938081877F8083D8D24B
:1004B00060E080E04DD580E28093213E2EC060E078
:1004C00080E046D54091333E5091343E6091353EB8
:1004D0007091363E480F591F611D711D4093333E88
:1004E0005093343E6093353E7093363E61E080E039
:1004F0002FD540912F3E5091303E6091313E70910A
:10050000323E480F591F611D711D40932F3E50937D
:10051000303E6093313E7093323E8091213E9FEF9A
:10052000980F9093213E8111CACF80911E3E90E09A
:1005300002964091333E5091343E6091353E709129
:10054000363E082E04C075956795579547950A94D1
:10055000D2F7C0902F3ED090303EE090313EF090E8
:10056000323E9701860104C035952795179507956A
:100570008A95D2F7E091223EF0E0401B510B80912A
:10058000253E9091263E9A01281B390BEE0FFF1F46
:10059000E15CF14C208331838091003E082E000CF9
:1005A000990B2817390724F44093253E5093263E93
:1005B00020E021C0E22FF0E0EE0FFF1FE15CF14CE4
:1005C00080819181092E000CAA0BBB0B40913B3E10
:1005D00050913C3E60913D3E70913E3E840F951F90
:1005E000A61FB71F80933B3E90933C3EA0933D3E99
:1005F000B0933E3E2F5F2430E8F280913B3E9091D5
:100600003C3EA0913D3EB0913E3EB595A795979555
:10061000879510923B3E10923C3E10923D3E1092C8
:100620003E3E10922F3E1092303E1092313E10927C
:10063000323E1092333E1092343E1092353E10926C
:10064000363E992314F480E090E080934F3E9093DF
:10065000503EE9E3FEE39183808380E28093213E74
:100660002EC060E081E074D44091333E5091343E1E
:100670006091353E7091363E480F591F611D711DC6
:100680004093333E5093343E6093353E7093363EF4
:1006900061E081E05DD440912F3E5091303E609109
:1006A000313E7091323E480F591F611D711D4093BC
:1006B0002F3E5093303E6093313E7093323E809196
:1006C000213E9FEF980F9093213E8111CACFCED14A
:1006D00080911E3E90E00296C090333ED090343E12
:1006E000E090353EF090363E082E04C0F594E79435
:1006F000D794C7940A94D2F740912F3E5091303E40
:100700006091313E7091323E8A019B0104C0359563
:100710002795179507958A95D2F7D901C801309189
:10072000223EE32FF0E0C81AD90A8091233E90912F
:10073000243EA601481B590B3496EE0FFF1FE15CC7
:10074000F14C408351838091003E082E000C990BA0
:100750004817590724F4C092233ED092243E20E04B
:1007600022C0E22FF0E03496EE0FFF1FE15CF14C67
:1007700080819181092E000CAA0BBB0B40913B3E5E
:1007800050913C3E60913D3E70913E3E840F951FDE
:10079000A61FB71F80933B3E90933C3EA0933D3EE7
:1007A000B0933E3E2F5F2430E0F280913B3E90912B
:1007B0003C3EA0913D3EB0913E3EB595A7959795A4
:1007C000879510923B3E10923C3E10923D3E109217
:1007D0003E3E10922F3E1092303E1092313E1092CB
:1007E000323E1092333E1092343E1092353E1092BB
:1007F000363E992314F480E090E08093513E90932C
:10080000523EE7E3FEE391838083333018F0832F79
:10081000819501C081E0380F3093223E8091013EE6
:100820009091023EA091033EB091043E8135934CDD
:10083000A105B10548F12091053E3091063E409159
:10084000073E5091083E6091093E70910A3E8091AA
:100850000B3E90910C3E01D52AED38EF4AE15FE462
:10086000E2D320E030E048EC52E496D58AD460939D
:100870001F3E80E090E0C8D11092013E1092023EEF
:100880001092033E1092043E8091013E9091023EF0
:10089000A091033EB091043E0196A11DB11D80932D
:1008A000013E9093023EA093033EB093043E2091FC
:1008B0001F3E8B2D90E0880F991FC22FC07F8C2B7D
:1008C0008160E4E5FEE3808330E1239FA0011124F1
:1008D0002A2D30E0220F331F242B21602183909199
:1008E000173E89131EC09091183E29131CC03091E9
:1008F0003A3E9091193E391318C03091393E90918B
:100900001A3E391314C03091383E90911B3E391372
:1009100010C03091373E90911C3E391761F091E044
:100920000BC091E009C091E007C091E005C091E0E3
:1009300003C091E001C090E091709093203E91112E
:1009400003C090910D3E01C094E190930D3E992318
:1009500009F444C0CEE0DEE389872A87E9E3FEE3B9
:1009600081818B8780818C87E7E3FEE381818D879E
:1009700080818E8787E19EE37AD28F8788D2882311
:1009800031F080910D3E8F5F80930D3E05C08091C8
:100990000D3E815080930D3E2091053E3091063EE4
:1009A0004091073E5091083E6091093E70910A3E89
:1009B00080910B3E90910C3EABEFA0D52093053E6D
:1009C0003093063E4093073E5093083E6093093EA5
:1009D00070930A3E80930B3E90930C3EE0E5F0E06E
:1009E0008081897F84608083F894808181608083A6
:1009F0007894889580818E7F8083F8942091053E3D
:100A00003091063E4091073E5091083E6091093E6C
:100A100070910A3E80910B3E90910C3EA7EF6ED5EF
:100A20002093053E3093063E4093073E5093083E88
:100A30006093093E70930A3E80930B3E90930C3E68
:100A40001399E2CC41E068ED81E490E0F7D0DCCC92
:100A5000E0E0F6E080E5828381E0808380E0089535
:100A6000E0E0F6E08081816080830895E0E0F6E0D8
:100A700080818E7F80830895E0E0F6E0868381E0C8
:100A80008087089580910B068170089580911006EB
:100A9000909111060895F0DFF5DF8823E9F3F6DF82
:100AA000E0E0F6E0238521602387089580E0089543
:100AB00043E068ED81E690E0C1D080E0089578944D
:100AC00080E0089580E008C0E82FF0E0E05FFB4F91
:100AD0009081986090838F5F8830B0F380E008C089
:100AE000E82FF0E0E05DFB4F9081986090838F5F8E
:100AF0008830B0F380E008C0E82FF0E0E05BFB4F07
:100B00009081986090838F5F8830B0F30895E6E11C
:100B1000F4E08081887F846080838081877F808308
:100B2000E0E3F4E08081887F846080838081877F38
:100B300080838EDF089562D00895C4DF80B1877FFF
:100B400080B9E3E1F4E080818860808380B18F7EAA
:100B500080B9E4E1F4E080818860808380B18F7D9A
:100B600080B9E5E1F4E080818860808381B18F778E
:100B700081B980B1806880B984B18D7F84B9E1E3A7
:100B8000F4E08081877F808384B18F7E84B9E4E341
:100B9000F4E080818860808384B18F7D84B9E5E34F
:100BA000F4E080818860808388B18D7F88B9E1E539
:100BB000F4E080818860808388B18B7F88B9E2E52A
:100BC000F4E080818860808389B1877F89B988B1AA
:100BD000886088B989B18F7E89B988B1806188B908
:100BE00089B18F7D89B988B1806288B961DF2AD0E7
:100BF0008EDFA1DF64DF3CD059DF089580E00895E7
:100C00009C5EFC01808108951F93CF93DF93EC01DC
:100C1000162F8091021081FDFCCF44E06DE980E049
:100C200090E10CD0DC5E188343E06DE980E090E158
:100C300005D080E0DF91CF911F910895FC0164BF42
:100C400040830895809141018111FCCFE0E4F1E0FF
:100C500088E7808381E08783809151018111FCCFF7
:100C6000E0E4F1E089E4808B81E0828B80E008950C
:100C700085E08093500080E0089590E811C029B18C
:100C8000277F29B9292F282321F029B1206129B9EB
:100C900003C029B12F7E29B9969529B1286029B9B9
:100CA0009111EDCF89B1877F89B90895CF92DF92F5
:100CB000EF92FF926A017B01882319F0813021F0C5
:100CC00016C080E0DADF0AC0DB01CA018827992755
:100CD000A770BB27BC01CD018861CFDF8D2DCDDF93
:100CE0008C2DCBDF89B18F7E89B980E001C081E096
:100CF000FF90EF90DF90CF90089589B18F7D89B9F3
:100D000083ED90E30197F1F700C0000089B18062A4
:100D100089B9089590E04AC09C01220F331F220F29
:100D2000331F220F331FE091E93EF091EA3EE80FB6
:100D3000F91F4081441F4427441FD901AA5AB14CCE
:100D40004C93408146FB442740F9D901A95AB14C44
:100D50004C93408145FB442740F9D901A85AB14C36
:100D60004C93408142954170D901A75AB14C4C93A4
:100D7000408143FB442740F9D901A65AB14C4C931A
:100D8000408142FB442740F9D901A55AB14C4C930C
:100D9000408146954170D901A45AB14C4C93408191
:100DA0004170F901E35AF14C408301962091E83EED
:100DB00030E08217930708F4AFCF0895E6EDFEE325
:100DC000838B948B628B80E88093533E80E0A2DF1C
:100DD00080E00895FF920F931F93CF93DF938C01D0
:100DE000F62EC42F8ADFE6EDFEE3108A118A1686FE
:100DF000178680E090E28487958780E098E082877C
:100E00009387108611861682178284E090E084838F
:100E1000958387E296E6A4E0B0E080839183A28385
:100E2000B38384E098E2858B968B4C2F50E0D801F9
:100E3000A40FB51F9C919A012F5F3F4F200F311FC8
:100E40004E5F5F4FD801A40FB51FE9018881892744
:100E50009C9189279BED8927878B6F2DC801AEDF79
:100E600080E0DF91CF911F910F91FF900895FC01D9
:100E70008091ED3E50814181328123819481658151
:100E80008527842783278227892786270895CF935C
:100E9000DF93C6EDDEE34D895E8950684D8B5E8B36
:100EA00060E070E080E002DF488159816A817B81E7
:100EB00081E0FCDE8D899E899F778D8B9E8B809152
:100EC00040958D5F27DF80E090E005C020E12A9506
:100ED000F1F700C00196529903C08C3D9105B0F323
:100EE0008C3D9105E8F025C0FC01EA5AF14C2081C7
:100EF000222321F029B1206129B903C029B12F7E15
:100F000029B92AE02A95F1F700C0FC01EA5AF14C10
:100F10002081211103C0000000000000019602C0E2
:100F200080E090E02091533E30E082179307E0F29A
:100F300003C0E3DE81E009C04091EB3E5091EC3EFE
:100F400060E070E080E0B2DE80E0DF91CF91089554
:100F500091B19F7791B9882319F0813089F160C0F0
:100F6000662321F085B1826085B903C085B18D7F8C
:100F700085B984B1826084B98AE0809306066130C5
:100F800021F081B1806481B903C081B18F7B81B9C7
:100F900080B1806480B985E08A95F1F780B18F7B5C
:100FA00080B986E078DD2AE02093060625B122602C
:100FB00025B921B1206421B920B1206420B9089558
:100FC000662321F085B1826085B903C085B18D7F2C
:100FD00085B984B1826084B98AE080930606613065
:100FE00021F085B1816085B903C085B18E7F85B957
:100FF00084B1816084B985E08A95F1F784B18E7FF0
:1010000084B98BE048DD2AE02093060625B12260F2
:1010100025B925B1216025B924B1216024B90895ED
:1010200080E090E008950E9427080C9492090E94A5
:101030008B0958F00E94840940F029F45F3F29F0A1
:101040000C946B0951110C94C6090C9471090E94FF
:10105000A30968F39923B1F3552391F3951B550B1D
:10106000BB27AA2762177307840738F09F5F5F4F7B
:10107000220F331F441FAA1FA9F335D00E2E3AF0BA
:10108000E0E832D091505040E695001CCAF72BD0D2
:10109000FE2F29D0660F771F881FBB1F2617370723
:1010A0004807AB07B0E809F0BB0B802DBF01FF2755
:1010B00093585F4F3AF09E3F510578F00C946B09BE
:1010C0000C94C6095F3FE4F3983ED4F38695779578
:1010D0006795B795F7959F5FC9F7880F911D96950E
:1010E000879597F90895E1E0660F771F881FBB1F6A
:1010F000621773078407BA0720F0621B730B840B17
:10110000BA0BEE1F88F7E0950895BEE304D008F40B
:1011100090E80895BFE322273327A9010E94AB0975
:1011200060F19F5748F1B91740F1BFE3B91B992708
:10113000B8503AF4660F771F881F991FB395D2F302
:1011400016C0B8504AF0232F342F452F562F672F43
:10115000782F8827B850BAF7B85F49F08695779509
:1011600067955795479537952795BA95B9F716F42A
:101170000E94740988940895889460E070E0CB011F
:1011800008950E94AB0988F09F5798F0B92F9927CE
:10119000B751B0F0E1F0660F771F881F991F1AF062
:1011A000BA95C9F714C0B13091F00E94C509B1E0F9
:1011B00008950C94C509672F782F8827B85F39F0F8
:1011C000B93FCCF3869577956795B395D9F73EF4FB
:1011D00090958095709561957F4F8F4F9F4F0895A3
:1011E000E89409C097FB3EF49095809570956195C1
:1011F0007F4F8F4F9F4F9923A9F0F92F96E9BB2777
:101200009395F695879577956795B795F111F8CFF2
:10121000FAF4BB0F11F460FF1BC06F5F7F4F8F4F5D
:101220009F4F16C0882311F096E911C0772321F053
:101230009EE8872F762F05C0662371F096E8862FEB
:1012400070E060E02AF09A95660F771F881FDAF742
:10125000880F9695879597F90895E894F92F96EB5E
:10126000FF2381F0121613061406440B9395F6958E
:1012700087957795679557954040FF23B9F71BC031
:1012800099270895882351F49850D2F7872B762F09
:10129000652F542F432F322F20E0B1F3121613067F
:1012A0001406440B88233AF09A95440F551F661F85
:1012B000771F881FCAF755234AF4440F551F11F4AE
:1012C00060FF04C06F5F7F4F8F4F9F4F880F9695D1
:1012D000879597F9089597F99F6780E870E060E037
:1012E00008959FEF80EC0895909580957095609596
:1012F00050954095309521953F4F4F4F5F4F6F4F21
:101300007F4F8F4F9F4F089500240A94161617069B
:1013100018060906089500240A94121613061406E6
:1013200005060895092E0394000C11F4882352F049
:10133000BB0F40F4BF2B11F460FF04C06F5F7F4F01
:101340008F4F9F4F089557FD9058440F551F59F0E8
:101350005F3F71F04795880F97FB991F61F09F3FA2
:1013600079F087950895121613061406551FF2CFCB
:101370004695F1DF08C0161617061806991FF1CF1B
:1013800086957105610508940895E894BB27662742
:101390007727CB0197F908950E94DF090C949209F1
:1013A0000E94840938F00E948B0920F0952311F0E7
:1013B0000C946B090C94710911240C94C6090E94B9
:1013C000A30970F3959FC1F3950F50E0551F629FDD
:1013D000F001729FBB27F00DB11D639FAA27F00D8E
:1013E000B11DAA1F649F6627B00DA11D661F829FB5
:1013F0002227B00DA11D621F739FB00DA11D621F9A
:10140000839FA00D611D221F749F3327A00D611DB6
:10141000231F849F600D211D822F762F6A2F112498
:101420009F5750409AF0F1F088234AF0EE0FFF1FCB
:10143000BB1F661F771F881F91505040A9F79E3F22
:10144000510580F00C946B090C94C6095F3FE4F3DE
:10145000983ED4F3869577956795B795F795E79578
:101460009F5FC1F7FE2B880F911D9695879597F981
:101470000895E894DF93CF93FC01DB014BD07F9379
:101480006F93E9019A01AC01BF93AF933F932F9300
:10149000DF0140D026F46C1B7D0B820B930B9E0169
:1014A000EB01FC0143D0AF91BF912F913F913ED012
:1014B000BE01CF01F9012F913F91CF91DF910895A6
:1014C00097FB10F8169400080F93083098F0085016
:1014D000232F342F452F562F672F782F892F902DAC
:1014E000F4CF059497958795779567955795479588
:1014F000379527950A95AAF70F9108950024A7FD1F
:1015000000942A0F301D401D501D601D701D801D50
:10151000901D0895A29FB001B39FC001A39F01D069
:10152000B29F700D811D1124911D0895F3DF460FA8
:10153000571FC81FD91F08F431960895F894FFCF9C
:0115400006A4
:10154100F451C3000000DAF89A0000000014AAAABE
:0E1551001EAA55E1000000000000000000008E
:00000001FF
