S010000041574855424144432E73726563D5
S113000019C033C032C043C030C02FC02EC030C06E
S11300102CC02BC02AC029C028C027C026C025C098
S113002024C023C022C021C020C01FC01EC01DC0C8
S11300301CC01BC011241FBECFEFCDBFDFE3DEBF4A
S11300401EE3A0E0BEE3EDE5F3E102C005900D92EE
S1130050A234B107D9F72EE3A2E4BEE301C01D9296
S1130060A33EB207E1F729D077C9CACF62D4089575
S11300701F920F920FB60F9211248F9381E08093F9
S113008053018F910F900FBE0F901F9018951F92E0
S11300900F920FB60F9211248F938FEF8093090460
S11300A08F910F900FBE0F901F9018958160E0E420
S11300B0F1E0808B81E0838B089580E012C02FEF04
S11300C030E0082E02C0359527950A94E2F720FF08
S11300D007C0E82FF0E0E05FFB4F908198609083C9
S11300E08F5F883060F380E012C02FEF30E0082E7D
S11300F002C0359527950A94E2F720FF07C0E82F40
S1130100F0E0E05DFB4F9081986090838F5F8830D2
S113011060F380E012C02FEF30E0082E02C0359566
S113012027950A94E2F720FF07C0E82FF0E0E05B90
S1130130FB4F9081986090838F5F883060F396DFE7
S113014080E090E059D4C82F8093423E2091053E30
S11301503091063E4091073E5091083E6091093E21
S113016070910A3E80910B3E90910C3E5CD76B01DE
S11301707C01C53658F46C2F70E080E090E016D70F
S113018020E030E048EC52E463D604C060E070E064
S113019080E89FE3A7019601E5D7D1D62093053ED9
S11301A03093063E4093073E5093083E6093093EC9
S11301B070930A3E80930B3E90930C3E89B18F7EE0
S11301C089B980910A11E1E3FEE3868380910B11E2
S11301D0878380910C11808746E060E1CF01F6D4DB
S11301E0EEE1F0E00090003E02C0F595E7950A9438
S11301F0E2F71F2F110F110B2091053E3091063E9F
S11302004091073E5091083E6091093E70910A3E2C
S113021080910B3E90910C3EAE2EBF2EC12ED12E5E
S1130220E12EF12E012F83D82093053E3093063E14
S11302304093073E5093083E6093093E70930A3EF4
S113024080930B3E90930C3E24E134E0F9018081CD
S113025088608083C4E3D4E0888188608883A5E1D2
S1130260B4E08C9188608C9345E354E0FA0180817A
S11302708860808380B18F7E80B984B18F7E84B999
S113028080B18F7D80B984B18F7D84B992B096940A
S113029096949694969481E0992D98279170292E9E
S11302A086B08694869486948694982D9827917027
S11302B0392E62B066946694669466946694962D1C
S11302C098279170692E76B0769476947694769485
S11302D0769487258170782EF9018081877F8083C9
S11302E08881877F88838C91877F8C93FA018081B2
S11302F0877F808381B18F7E81B985B18F7E85B9F7
S113030081B18F7D81B985B18F7D85B980B18061DF
S113031080B984B1806184B980B1806280B984B1CC
S1130320806284B960E080E024D510E0B4C0C12FBD
S1130330D0E0FE01E295F295F07FFE27E07FFE27F4
S1130340E35FF14C80E490E0848795871086118602
S11303501286138621C060E0812F0BD56B017C01CE
S113036061E0812F06D5C61AD70AE80AF90AFE0108
S1130370E295F295F07FFE27E07FFE27E35FF14CE4
S113038080859185A285B385C80ED91EEA1EFB1E01
S1130390C086D186E286F386FE01E295F295F07F6F
S11303A0FE27E07FFE27E35FF14C84859585019766
S11303B084879587892B79F6FE01E295F295F07F83
S11303C0FE27E07FFE27E35FF14C80819181A281CB
S11303D0B381F6849C01AD010F2C04C0559547955B
S11303E0379527950A94D2F7A785B0E028D780845B
S11303F09184A284B384880C991CAA1CBB1CA501FB
S1130400940104C05595479537952795FA94D2F7EA
S1130410DC01CB01820F931FA41FB51F808391833E
S1130420A283B3832091433E30E0C480D580E6802C
S1130430F780B701A601415F5F4F6F4F7F4F4817A9
S113044059076A077B076CF04FE0C41AD108E1082A
S1130450F1088C159D05AE05BF0534F441E050E06C
S113046005C041E050E002C040E050E0242B352BB1
S113047041E0232B09F440E04093433EC295D295DA
S1130480D07FDC27C07FDC27C35FD14C8C839D8366
S1130490AE83BF831F5F123008F449CFEDE0FEE363
S11304A080819181A6E4BEE311969C9311978C936D
S11304B080899189E4E4FEE3918380838091013E05
S11304C09091023EA091033EB091043E8138914543
S11304D0A140B10508F466C02091053E3091063E66
S11304E04091073E5091083E6091093E70910A3E4A
S11304F080910B3E90910C3E02E0F7D6422E532E93
S1130500D42FC52FB62FA72FF82FE92FEED6A22E62
S1130510B32EC42ED52EE62EF72E082F192F242DF8
S1130520352D4D2F5C2F6B2F7A2F8F2F9E2FF6D6C4
S1130530422E532ED42FC52FB62FA72FF82FE92FD5
S113054002E0D3D6A22EB32EC42ED52EE62EF72E3D
S1130550082F192F242D352D4D2F5C2F6B2F7A2F1B
S11305608F2F9E2FDBD66894AA24A6F80F2EFCEAC0
S1130570BF2EF02D0F2EF7E2CF2EF02DD12CE12C33
S1130580F12C00E010E067D62093423E622F80E019
S113059090E036D21092013E1092023E1092033E39
S11305A01092043E8091013E9091023EA091033E40
S11305B0B091043E0196A11DB11D8093013E90931C
S11305C0023EA093033EB093043E2091423E822D0E
S11305D090E0880F991F922F907F892B682AE9E475
S11305E0FEE3608230E1239FC0011124832C912C0F
S11305F0880C991C882A872881828091433E90E048
S113060020913A3E621207C020913B3E821631F09F
S113061021E030E005C021E030E002C020E030E01D
S1130620822B932B21E0892B09F420E0222321F053
S11306308091303E8B3048F080912E3E90912F3E39
S1130640892B29F02091303E03C029E201C029E220
S11306502093303E80912E3E90912F3E009729F0BA
S1130660222331F04CE251E005C04CE251E002C0DB
S113067041E050E0841B950B80932E3E90932F3ED7
S11306801092433E222309F45AC080912D3E8111D9
S113069056C0C1E3DEE369868A86E6E4FEE381812F
S11306A08B8780818C87E4E4FEE381818D87808160
S11306B08E878AE39EE3D7D28F87E5D2882331F0F1
S11306C08091303E8F5F8093303E05C08091303EF4
S11306D081508093303EE8E2F0E00090003E02C09A
S11306E0F595E7950A94E2F71F2F110F110B20914E
S11306F0053E3091063E4091073E5091083E609180
S1130700093E70910A3E80910B3E90910C3EAE2EB4
S1130710BF2EC12ED12EE12EF12E012F08D620930B
S1130720053E3093063E4093073E5093083E609347
S1130730093E70930A3E80930B3E90930C3EE0E595
S1130740F0E08081897F84608083F8948091303EDA
S1130750843120F4882321F081E003C080E001C0CB
S113076082E08093003E895F880F880F880F9EDCAB
S1130770E0E5F0E0808181608083789488958081D1
S11307808E7F8083F894ECE3F0E00090003E02C09A
S1130790F595E7950A94E2F71F2F110F110B20919D
S11307A0053E3091063E4091073E5091083E6091CF
S11307B0093E70910A3E80910B3E90910C3EAE2E04
S11307C0BF2EC12ED12EE12EF12E012FB0D52093B4
S11307D0053E3093063E4093073E5093083E609397
S11307E0093E70930A3E80930B3E90930C3E80B179
S11307F0877F80B9139B0BC024C0E3E2F4EF3197E9
S1130800F1F700C000008AB180618AB901C094E6A2
S1130810139902C0915089F791110EC064E680E0EB
S113082090E0EED08091021081FDFCCF89E698E142
S11308300197F1F700C0000041E068ED81E490E029
S1130840F9D0E3E1F4E080818860808380912D3EDB
S113085091E0811101C090E0891B80932D3EC0CCB2
S1130860E0E0F6E082E5828381E0808380E0089521
S1130870E0E0F6E0868381E08087089580910B06AE
S11308808170089580911006909111060895F0DF0B
S1130890F5DF8823E9F3F6DFE0E0F6E02385216065
S11308A02387089580E0089543E068ED81E690E0B1
S11308B0C1D080E00895789480E0089580E008C075
S11308C0E82FF0E0E05FFB4F9081986090838F5FAA
S11308D08830B0F380E008C0E82FF0E0E05DFB4F23
S11308E09081986090838F5F8830B0F380E008C077
S11308F0E82FF0E0E05BFB4F9081986090838F5F7E
S11309008830B0F30895E6E1F4E08081887F846064
S113091080838081877F8083E0E3F4E08081887F27
S1130920846080838081877F80839ADF089562D08A
S11309300895C4DF80B1877F80B9E3E1F4E080816A
S11309408860808380B18F7E80B9E4E1F4E08081A7
S11309508860808380B18F7D80B9E5E1F4E0808197
S11309608860808381B18F7781B980B1806880B9D4
S113097084B18D7F84B9E1E3F4E08081877F808353
S113098084B18F7E84B9E4E3F4E08081886080835D
S113099084B18F7D84B9E5E3F4E08081886080834D
S11309A088B18D7F88B9E1E5F4E080818860808337
S11309B088B18B7F88B9E2E5F4E080818860808328
S11309C089B1877F89B988B1886088B989B18F7EF8
S11309D089B988B1806188B989B18F7D89B988B1B5
S11309E0806288B961DF2AD08EDFA1DF64DF3CD06A
S11309F059DF089580E008959C5EFC01808108958C
S1130A001F93CF93DF93EC01162F8091021081FD89
S1130A10FCCF44E06DE980E090E10CD0DC5E18830B
S1130A2043E06DE980E090E105D080E0DF91CF9173
S1130A301F910895FC0164BF408308958091410192
S1130A408111FCCFE0E4F1E088E7808381E08783D3
S1130A50809151018111FCCFE0E4F1E089E4808BC5
S1130A6081E0828B80E0089585E08093500080E0EF
S1130A70089590E811C029B1277F29B9292F282387
S1130A8021F029B1206129B903C029B12F7E29B9E8
S1130A90969529B1286029B99111EDCF89B1877F45
S1130AA089B90895CF92DF92EF92FF926A017B0198
S1130AB0882319F0813021F016C080E0DADF0AC003
S1130AC0DB01CA0188279927A770BB27BC01CD0188
S1130AD08861CFDF8D2DCDDF8C2DCBDF89B18F7E6B
S1130AE089B980E001C081E0FF90EF90DF90CF9062
S1130AF0089589B18F7D89B983ED90E30197F1F76A
S1130B0000C0000089B1806289B9089590E04AC0AC
S1130B109C01220F331F220F331F220F331FE0913A
S1130B20DE3EF091DF3EE80FF91F4081441F442769
S1130B30441FD901A55BB14C4C93408146FB44272B
S1130B4040F9D901A45BB14C4C93408145FB442747
S1130B5040F9D901A35BB14C4C934081429541705B
S1130B60D901A25BB14C4C93408143FB442740F92B
S1130B70D901A15BB14C4C93408142FB442740F91D
S1130B80D901A05BB14C4C93408146954170D90189
S1130B90AF5AB14C4C9340814170F901EE5AF14C7B
S1130BA0408301962091DD3E30E08217930708F4DC
S1130BB0AFCF0895EBECFEE3838B948B628B80E8DC
S1130BC08093483E80E0A2DF80E00895FF920F9377
S1130BD01F93CF93DF938C01F62EC42F8ADFEBECA7
S1130BE0FEE3108A118A1686178680E090E28487D5
S1130BF0958780E098E08287938710861186168215
S1130C00178284E090E08483958387E296E6A4E0EB
S1130C10B0E080839183A283B38384E098E2858BE0
S1130C20968B4C2F50E0D801A40FB51F9C919A01CC
S1130C302F5F3F4F200F311F4E5F5F4FD801A40F2E
S1130C40B51FE901888189279C9189279BED892714
S1130C50878B6F2DC801AEDF80E0DF91CF911F91AC
S1130C600F91FF900895FC018091E23E50814181F3
S1130C703281238194816581852784278327822774
S1130C808927862708951F93CF93DF93CBECDEE368
S1130C904D895E8950684D8B5E8B60E070E080E02A
S1130CA001DF182F488159816A817B8181E0FADE56
S1130CB0182B8D899E899F778D8B9E8B80915C9359
S1130CC08D5F24DFE2E5F4E080818860808320E0AA
S1130CD030E006C080E18A95F1F700C02F5F3F4FF6
S1130CE0529903C02C3D3105A8F32C3D310508F081
S1130CF011E0E2E5F4E08081877F80832C3D3105BB
S1130D00F0F011E024C0F901E55BF14C90819923E6
S1130D1021F099B1906199B903C099B19F7E99B9B5
S1130D208AE08A95F1F700C0F901E55BF14C908106
S1130D30911102C0000000002F5F3F4F02C020E06D
S1130D4030E04091483E50E024173507E0F24091EE
S1130D50E03E5091E13E60E070E080E0A3DEC12F10
S1130D60C82BC13009F4C5DE8C2FDF91CF911F91C0
S1130D700895882319F08130A1F166C0662321F01B
S1130D8085B1826085B903C085B18D7F85B984B191
S1130D90826084B98AE080930606613021F081B1D3
S1130DA0806481B903C081B18F7B81B980B18064D3
S1130DB080B985E08A95F1F780B18F7B80B986E0B0
S1130DC066DD2AE02093060625B1226025B921B10B
S1130DD0206421B920B1206420B9BC0180E090E0F6
S1130DE00895662321F085B1826085B903C085B179
S1130DF08D7F85B984B1826084B98AE080930606C8
S1130E00613021F085B1816085B903C085B18E7FE1
S1130E1085B984B1816084B985E08A95F1F784B19C
S1130E208E7F84B98BE033DD2AE02093060625B15A
S1130E30226025B925B1216025B924B1216024B9E6
S1130E40BC0180E090E0089560E070E0CB0108957B
S1130E500E943C070C9478080E94710858F00E9484
S1130E606A0840F029F45F3F29F00C9451085111AD
S1130E700C94AC080C9457080E94890868F39923D1
S1130E80B1F3552391F3951B550BBB27AA27621782
S1130E907307840738F09F5F5F4F220F331F441F8F
S1130EA0AA1FA9F335D00E2E3AF0E0E832D09150C3
S1130EB05040E695001CCAF72BD0FE2F29D0660FB0
S1130EC0771F881FBB1F261737074807AB07B0E8F3
S1130ED009F0BB0B802DBF01FF2793585F4F3AF0F9
S1130EE09E3F510578F00C9451080C94AC085F3F78
S1130EF0E4F3983ED4F3869577956795B795F7957F
S1130F009F5FC9F7880F911D9695879597F9089566
S1130F10E1E0660F771F881FBB1F62177307840702
S1130F20BA0720F0621B730B840BBA0BEE1F88F711
S1130F30E0950895BEE304D008F490E80895BFE373
S1130F4022273327A9010E94910860F19F5748F195
S1130F50B91740F1BFE3B91B9927B8503AF4660FAB
S1130F60771F881F991FB395D2F316C0B8504AF063
S1130F70232F342F452F562F672F782F8827B850CB
S1130F80BAF7B85F49F08695779567955795479571
S1130F9037952795BA95B9F716F40E945A0888949C
S1130FA00895889460E070E0CB010895E89409C046
S1130FB097FB3EF490958095709561957F4F8F4F88
S1130FC09F4F9923A9F0F92F96E9BB279395F6959E
S1130FD0879577956795B795F111F8CFFAF4BB0F1C
S1130FE011F460FF1BC06F5F7F4F8F4F9F4F16C080
S1130FF0882311F096E911C0772321F09EE8872F0A
S1131000762F05C0662371F096E8862F70E060E0C5
S11310102AF09A95660F771F881FDAF7880F96953E
S1131020879597F90895E894F92F96EBFF2381F0BB
S1131030121613061406440B9395F6958795779527
S1131040679557954040FF23B9F71BC0992708952A
S1131050882351F49850D2F7872B762F652F542F7D
S1131060432F322F20E0B1F3121613061406440B5B
S113107088233AF09A95440F551F661F771F881FDF
S1131080CAF755234AF4440F551F11F460FF04C0F6
S11310906F5F7F4F8F4F9F4F880F9695879597F976
S11310A0089597F99F6780E870E060E008959FEFE6
S11310B080EC089590958095709560955095409535
S11310C0309521953F4F4F4F5F4F6F4F7F4F8F4F5D
S11310D09F4F089500240A94161617061806090649
S11310E0089500240A94121613061406050608959A
S11310F0092E0394000C11F4882352F0BB0F40F422
S1131100BF2B11F460FF04C06F5F7F4F8F4F9F4F61
S1131110089557FD9058440F551F59F05F3F71F0E3
S11311204795880F97FB991F61F09F3F79F087954A
S11311300895121613061406551FF2CF4695F1DFD3
S113114008C0161617061806991FF1CF8695710563
S1131150610508940895E894BB2766277727CB0197
S113116097F908950E94C5080C9478080E946A08AB
S113117038F00E94710820F0952311F00C94510866
S11311800C94570811240C94AC080E94890870F33D
S1131190959FC1F3950F50E0551F629FF001729F18
S11311A0BB27F00DB11D639FAA27F00DB11DAA1F27
S11311B0649F6627B00DA11D661F829F2227B00D74
S11311C0A11D621F739FB00DA11D621F839FA00DFF
S11311D0611D221F749F3327A00D611D231F849F4F
S11311E0600D211D822F762F6A2F11249F575040A6
S11311F09AF0F1F088234AF0EE0FFF1FBB1F661F21
S1131200771F881F91505040A9F79E3F510580F0E9
S11312100C9451080C94AC085F3FE4F3983ED4F36B
S1131220869577956795B795F795E7959F5FC1F78D
S1131230FE2B880F911D9695879597F9089580D078
S1131240A59F900DB49F900DA49F800D911D112416
S11312500895689401C0E8948F929F92CF93DF938E
S113126005D0DF91CF919F908F9008958824992481
S1131270F401E401B0E41B2ED4019D158E049F04F7
S1131280E007F10738F4FC014B01CA01B901AD01D3
S11312909E011694220F331F441F551F661F771F8C
S11312A0881F991F881C991CEE1FFF1FCC1FDD1F70
S11312B0AA1FBB1F8A149B04EC05FD05CE05DF05A0
S11312C0A007B10748F08A189B08EC09FD09CE096C
S11312D0DF09A00BB10B21601A94E1F62EF49401FE
S11312E0AF01BE01CD01000C08950F93083090F0BA
S11312F0982F872F762F652F542F432F322F222795
S11313000850F4CF220F331F441F551F661F771F49
S1131310881F991F0A95B2F70F9108952A0D3B1D56
S11313204C1D5D1D6E1D7F1D801F911F08952A1980
S11313303B094C095D096E097F09800B910B0895E7
S1131340A29FB001B39FC001A39F01D0B29F700DB3
S10F1350811D1124911D0895F894FFCF15
S104135C0686
S113135D028151010040AC27000000000000000094
S113136D0000000000000000000000020300000067
S113137D000000000000000000000002030A2C0120
S113138D29AAAA1EAA55E1000000000000000000D1
S105139D00004A
S9030000FC
