:1000000019C033C032C043C030C02FC02EC030C072
:100010002CC02BC02AC029C028C027C026C025C09C
:1000200024C023C022C021C020C01FC01EC01DC0CC
:100030001CC01BC011241FBECFEFCDBFDFE3DEBF4E
:100040001EE3A0E0BEE3E7E9F5E102C005900D92F2
:10005000AE36B107D9F72FE3AEE6BEE301C01D927D
:10006000AF30B207E1F722D094CACACF80D5089545
:100070001F920F920FB60F9211248F9381E08093FD
:1000800053018F910F900FBE0F901F9018951F92E4
:100090000F920FB60F9211248F938FEF8093090464
:1000A0008F910F900FBE0F901F901895DFDF80E0AB
:1000B00090E0C0D5C82F80936E3E2091043E3091D1
:1000C000053E4091063E5091073E6091083E70917A
:1000D000093E80910A3E90910B3EB0D86B017C01A5
:1000E000C53658F46C2F70E080E090E06AD820E0CC
:1000F00030E048EC52E4B7D704C060E070E080E83C
:100100009FE3A701960139D925D82093043E309367
:10011000053E4093063E5093073E6093083E709321
:10012000093E80930A3E90930B3E89B18F7E89B938
:10013000E3E1F4E08081887F8160808385E09AE05C
:10014000E0E008C0E1E08111E0E021E0811101C0C0
:1001500020E0821B9150B1F740911B3E50911C3E14
:10016000EE2319F082E090E002C081E090E0ACE084
:10017000BEE3849F9001859F300D949F300D112424
:100180001F962D933C93509757966D917D918D912D
:100190009C915A97EE2329F022E030E040E050E0B5
:1001A00004C021E030E040E050E0CCE0DEE352D992
:1001B0006F8B788F898F9A8F49895A89EE2319F02E
:1001C00082E090E002C081E090E0ACE0BEE3849F7A
:1001D0009001859F300D949F300D112451962D93E1
:1001E0003C935297D7964D915C91D897EE2319F096
:1001F00082E090E002C081E090E0849F9001859FC2
:10020000300D949F300D11242093433E3093443E93
:1002100060914B3E70914C3E80914D3E90914E3E90
:10022000EE2329F022E030E040E050E004C021E07D
:1002300030E040E050E00ED960934B3E70934C3E6E
:1002400080934D3E90934E3E4091453E5091463EA8
:10025000EE2319F082E090E002C081E090E0849FFC
:100260009001859F300D949F300D11242093453EC1
:100270003093463E80910A11EDE5FEE3868380913E
:100280000B11878380910C11808746E060E1CF01DC
:10029000BBD52091043E3091053E4091063E5091E1
:1002A000073E6091083E7091093E80910A3E909110
:1002B0000B3EADEF56D92093043E3093053E40935C
:1002C000063E5093073E6093083E7093093E80932C
:1002D0000A3E90930B3E84E194E0FC01208128606B
:1002E0002083C4E3D4E0288128602883A5E1B4E01A
:1002F0002C9128602C9345E354E0FA01208128607A
:10030000208392B0969496949694969421E0392DF9
:1003100032273170932E86B0869486948694869484
:1003200028252170822EFC012081277F208388814F
:10033000877F88838C91877F8C93FA018081877F68
:100340008083A8D360E080E01CD610E0EAC1C12F12
:10035000D0E088E28C9FF0018D9FF00D1124E45FC6
:10036000F14C80E490E084A395A310A211A212A204
:1003700013A220C060E0812F04D66B017C0161E0F4
:10038000812FFFD5C61AD70AE80AF90A88E28C9F9E
:10039000F0018D9FF00D1124E45FF14C80A191A13B
:1003A000A2A1B3A1C80ED91EEA1EFB1EC0A2D1A2F3
:1003B000E2A2F3A288E28C9FF0018D9FF00D112440
:1003C000E45FF14C84A195A1019784A395A3892BA7
:1003D00089F688E28C9FF0018D9FF00D1124E45F77
:1003E000F14C448D558D668D778D86A1E82EF12CCC
:1003F0009A01AB0104C055954795379527958A9585
:10040000D2F7A7A1B0E035D840A051A062A073A058
:100410002FEFE21AF20AA301920104C05595479505
:1004200037952795EA94D2F7DC01CB01820F931F11
:10043000A41FB51F848F958FA68FB78F208122238D
:1004400009F451C128E22C9FF0012D9FF00D1124D9
:10045000E45FF14CC388D488E588F6888C199D093F
:10046000AE09BF0982839383A483B583C788D08CE8
:10047000E18CF28C8C159D05AE05BF05B4F488E2C5
:100480008C9FF0018D9FF00D1124E45FF14C848D61
:10049000958DA68DB78D838B948BA58BB68B118292
:1004A00012821382148215821EC128E22C9FF00151
:1004B0002D9FF00D1124E45FF14C238D21118AC092
:1004C00028E22C9FF0012D9FF00D1124E45FF14CE8
:1004D000C284D384E484F5848C159D05AE05BF05E4
:1004E00014F4D701C60128E22C9FF0012D9FF00DD6
:1004F0001124E45FF14C82879387A487B5878181BB
:100500009685891718F0982F919501C091E0890F71
:1005100098E29C9FF0019D9FF00D1124E45FF14C47
:10052000818381112FC088E28C9FF0018D9FF00D97
:100530001124E45FF14C4285538564857585878578
:100540009089092E000CAA0BBB0B481759076A07A4
:100550007B07C4F428E22C9FF0012D9FF00D11249D
:10056000E45FF14C448D558D668D778D840F951F1A
:10057000A61FB71F838B948BA58BB68B1282138219
:100580001482158288E28C9FF0018D9FF00D11245A
:10059000E45FF14C8181882369F088E28C9FF0014F
:1005A0008D9FF00D1124E45FF14C428553856485E5
:1005B000758503C040E050E0BA0188E28C9FF001ED
:1005C0008D9FF00D1124E45FF14C428753876487BF
:1005D000758789C08C159D05AE05BF056CF088E256
:1005E0008C9FF0018D9FF00D1124E45FF14C448D40
:1005F000558D668D778D0CC088E28C9FF0018D9FA4
:10060000F00D1124E45FF14C4389548965897689A2
:1006100088E28C9FF0018D9FF00D1124E45FF14C76
:10062000438B548B658B768B8181428153816481AE
:10063000758114161506160617068CF098E29C9F15
:10064000F0019D9FF00D1124E45FF14CC788D08C20
:10065000E18CF28C4C155D056E057F051CF4982F1E
:10066000919501C091E0890F98E29C9FF0019D9FB8
:10067000F00D1124E45FF14C8183268530E0220FD8
:10068000331F220F331F220F331F90E02817390723
:1006900054F088E28C9FF0018D9FF00D1124E45FEF
:1006A000F14C838D01C080E098E29C9FF0019D9FFA
:1006B000F00D1124E45FF14C838F882351F088E220
:1006C0008C9FF0018D9FF00D1124E45FF14C91811E
:1006D00001C090E088E28C9FF0018D9FF00D112405
:1006E000E45FF14C918388E28C9FF0018D9FF00DC7
:1006F0001124E45FF14C82819381A481B581BB23F5
:100700001CF480E090E0DC0128E22C9FF0012D9F9A
:10071000F00D1124E45FF14C82839383A483B583AD
:100720001F5F123008F413CEBBD18091273E811198
:1007300081C180914F3E81117DC1ECE0FEE3828159
:100740009381A2E7BEE311969C9311978C9382A5A7
:1007500093A5E0E7FEE3918380838091003E909132
:10076000013EA091023EB091033E81389145A140E7
:10077000B10508F467C02091043E3091053E4091D8
:10078000063E5091073E6091083E7091093E80916F
:100790000A3E90910B3E02E0C2D6622E732ED42FF9
:1007A000C52FB62FA72FF82FE92FB9D6A22EB32E1B
:1007B000C42ED52EE62EF72E082F192F262D372DD5
:1007C0004D2F5C2F6B2F7A2F8F2F9E2FC1D6622E2D
:1007D000732ED42FC52FB62FA72FF82FE92F02E0A5
:1007E0009ED6A22EB32EC42ED52EE62EF72E082F7F
:1007F000192F262D372D4D2F5C2F6B2F7A2F8F2FF2
:100800009E2FA6D6A12C0F2EFAEDBF2EF02D0F2E67
:10081000F8EFCF2EF02D0F2EFAE9DF2EF02DE12C80
:10082000F12C00E010E031D620936E3E622F80E084
:1008300090E004D21092003E1092013E1092023ECF
:100840001092033E8091003E9091013EA091023EA5
:10085000B091033E0196A11DB11D8093003E90937F
:10086000013EA093023EB093033E20916E3E892D3F
:1008700090E0880F991F922F907F892B982F91607D
:10088000E5E7FEE3908340E1249F90011124912C41
:10089000880C991C822F8829816081832091663E73
:1008A000921334C02091673E821332C03091733E60
:1008B0002091683E32132EC04091723E50E020914C
:1008C000693E30E0B901655071094617570724F1B8
:1008D0002B5F3F4F241735070CF13091713E20916B
:1008E0006A3E32131DC04091703E50E020916B3E35
:1008F00030E0B90165507109461757079CF02B5F2E
:100900003F4F2417350784F421E00FC021E00DC0CC
:1009100021E00BC021E009C021E007C021E005C0B3
:1009200021E003C021E001C020E0322F317030937C
:100930006F3E311103C020915C3E01C02AE020933C
:100940005C3E222309F444C0CDE5DEE399878A8723
:10095000E2E7FEE381818B8780818C87E0E7FEE31D
:1009600081818D8780818E8786E69EE39AD28F87EC
:10097000A8D2882331F080915C3E8F5F80935C3EEB
:1009800005C080915C3E815080935C3E2091043E86
:100990003091053E4091063E5091073E6091083EE1
:1009A0007091093E80910A3E90910B3EA9EFD9D5F6
:1009B0002093043E3093053E4093063E5093073EFD
:1009C0006093083E7093093E80930A3E90930B3EDD
:1009D000E0E5F0E08081897F84608083F894808105
:1009E000816080837894889580818E7F8083F8945D
:1009F0002091043E3091053E4091063E5091073EC5
:100A00006091083E7091093E80910A3E90910B3EA4
:100A1000A9ECA7D52093043E3093053E4093063EB3
:100A20005093073E6093083E7093093E80930A3EC0
:100A300090930B3E13992DCC0AC0E3E2F4EF31976B
:100A4000F1F700C000008AB180618AB901C094E664
:100A5000139902C0915089F791110EC064E680E0AD
:100A600090E0ECD08091021081FDFCCF89E698E106
:100A70000197F1F700C0000041E068ED81E490E0EB
:100A8000F7D007CCE0E0F6E082E5828381E0808366
:100A900080E00895E0E0F6E0808181608083089541
:100AA000E0E0F6E080818E7F80830895E0E0F6E06C
:100AB000868381E08087089580910B068170089578
:100AC00080911006909111060895F0DFF5DF8823DC
:100AD000E9F3F6DFE0E0F6E023852160238708955F
:100AE00080E0089543E068ED81E690E0C1D080E0C9
:100AF0000895789480E0089580E008C0E82FF0E041
:100B0000E05FFB4F9081986090838F5F8830B0F3F7
:100B100080E008C0E82FF0E0E05DFB4F9081986036
:100B200090838F5F8830B0F380E008C0E82FF0E05A
:100B3000E05BFB4F9081986090838F5F8830B0F3CB
:100B40000895E6E1F4E08081887F8460808380817D
:100B5000877F8083E0E3F4E08081887F8460808306
:100B60008081877F80838EDF089562D00895C4DFFF
:100B700080B1877F80B9E3E1F4E080818860808381
:100B800080B18F7E80B9E4E1F4E080818860808369
:100B900080B18F7D80B9E5E1F4E080818860808359
:100BA00081B18F7781B980B1806880B984B18D7F40
:100BB00084B9E1E3F4E08081877F808384B18F7E14
:100BC00084B9E4E3F4E080818860808384B18F7D20
:100BD00084B9E5E3F4E080818860808388B18D7F0B
:100BE00088B9E1E5F4E080818860808388B18B7FFB
:100BF00088B9E2E5F4E080818860808389B1877FED
:100C000089B988B1886088B989B18F7E89B988B17E
:100C1000806188B989B18F7D89B988B1806288B9CE
:100C200061DF2AD08EDFA1DF64DF3CD059DF089579
:100C300080E008959C5EFC01808108951F93CF930E
:100C4000DF93EC01162F8091021081FDFCCF44E070
:100C50006DE980E090E10CD0DC5E188343E06DE943
:100C600080E090E105D080E0DF91CF911F91089561
:100C7000FC0164BF40830895809141018111FCCF44
:100C8000E0E4F1E088E7808381E08783809151018F
:100C90008111FCCFE0E4F1E081E4808B81E0828B84
:100CA00080E0089585E08093500080E0089590E80A
:100CB00011C029B1277F29B9292F282321F029B173
:100CC000206129B903C029B12F7E29B9969529B190
:100CD000286029B99111EDCF89B1877F89B908952D
:100CE000CF92DF92EF92FF926A017B01882319F085
:100CF000813021F016C080E0DADF0AC0DB01CA01D2
:100D000088279927A770BB27BC01CD018861CFDF59
:100D10008D2DCDDF8C2DCBDF89B18F7E89B980E021
:100D200001C081E0FF90EF90DF90CF90089589B1EE
:100D30008F7D89B983ED90E30197F1F700C0000042
:100D400089B1806289B9089590E04AC09C01220F60
:100D5000331F220F331F220F331FE0910A3FF09100
:100D60000B3FE80FF91F4081441F4427441FD9015E
:100D7000A958B14C4C93408146FB442740F9D90116
:100D8000A858B14C4C93408145FB442740F9D90108
:100D9000A758B14C4C93408142954170D901A65857
:100DA000B14C4C93408143FB442740F9D901A558ED
:100DB000B14C4C93408142FB442740F9D901A458DF
:100DC000B14C4C93408146954170D901A358B14C28
:100DD0004C9340814170F901E258F14C40830196F7
:100DE0002091093F30E08217930708F4AFCF0895B0
:100DF000E7EFFEE3838B948B628B80E88093743EF5
:100E000080E0A2DF80E00895FF920F931F93CF93BD
:100E1000DF938C01F62EC42F8ADFE7EFFEE3108A02
:100E2000118A1686178680E090E28487958780E095
:100E300098E082879387108611861682178284E055
:100E400090E08483958387E296E6A4E0B0E0808317
:100E50009183A283B38384E098E2858B968B4C2F99
:100E600050E0D801A40FB51F9C919A012F5F3F4F0E
:100E7000200F311F4E5F5F4FD801A40FB51FE9014E
:100E8000888189279C9189279BED8927878B6F2DE6
:100E9000C801AEDF80E0DF91CF911F910F91FF90ED
:100EA0000895FC0180910E3F508141813281238160
:100EB0009481658185278427832782278927862730
:100EC0000895CF93DF93C7EFDEE34D895E895068C5
:100ED0004D8B5E8B60E070E080E002DF48815981DD
:100EE0006A817B8181E0FCDE8D899E899F778D8B75
:100EF0009E8B809196958D5F27DF80E090E005C006
:100F000020E12A95F1F700C00196529903C08C3D6B
:100F10009105B0F38C3D9105E0F024C0FC01E95847
:100F2000F14C2081222321F029B1206129B903C08D
:100F300029B12F7E29B92AE02A95F1F700C0FC01DA
:100F4000E958F14C2081211102C0000000000196F7
:100F500002C080E090E02091743E30E08217930759
:100F6000E8F203C0E4DE81E009C040910C3F5091FB
:100F70000D3F60E070E080E0B3DE80E0DF91CF9174
:100F8000089591B19F7791B9882319F08130A1F12B
:100F900066C0662321F085B1826085B903C085B142
:100FA0008D7F85B984B1826084B98AE0809306061A
:100FB000613021F081B1806481B903C081B18F7B40
:100FC00081B980B1806480B985E08A95F1F780B1FC
:100FD0008F7B80B986E079DD2AE02093060625B173
:100FE000226025B921B1206421B920B1206420B943
:100FF000BC0180E090E00895662321F085B1826015
:1010000085B903C085B18D7F85B984B1826084B90B
:101010008AE080930606613021F085B1816085B950
:1010200003C085B18E7F85B984B1816084B985E0C4
:101030008A95F1F784B18E7F84B98BE046DD2AE092
:101040002093060625B1226025B925B1216025B976
:1010500024B1216024B9BC0180E090E0089560E0F3
:1010600070E0CB0108950E9447080C9483090E9408
:101070007C0958F00E94750940F029F45F3F29F07F
:101080000C945C0951110C94B7090C9462090E94EC
:10109000940968F39923B1F3552391F3951B550BEC
:1010A000BB27AA2762177307840738F09F5F5F4F3B
:1010B000220F331F441FAA1FA9F335D00E2E3AF07A
:1010C000E0E832D091505040E695001CCAF72BD092
:1010D000FE2F29D0660F771F881FBB1F26173707E3
:1010E0004807AB07B0E809F0BB0B802DBF01FF2715
:1010F00093585F4F3AF09E3F510578F00C945C098D
:101100000C94B7095F3FE4F3983ED4F38695779546
:101110006795B795F7959F5FC9F7880F911D9695CD
:10112000879597F90895E1E0660F771F881FBB1F29
:10113000621773078407BA0720F0621B730B840BD6
:10114000BA0BEE1F88F7E0950895BEE304D008F4CB
:1011500090E80895BFE322273327A9010E949C0944
:1011600060F19F5748F1B91740F1BFE3B91B9927C8
:10117000B8503AF4660F771F881F991FB395D2F3C2
:1011800016C0B8504AF0232F342F452F562F672F03
:10119000782F8827B850BAF7B85F49F086957795C9
:1011A00067955795479537952795BA95B9F716F4EA
:1011B0000E94650988940895889460E070E0CB01EE
:1011C0000895E89409C097FB3EF49095809570953A
:1011D00061957F4F8F4F9F4F9923A9F0F92F96E983
:1011E000BB279395F695879577956795B795F111F8
:1011F000F8CFFAF4BB0F11F460FF1BC06F5F7F4F95
:101200008F4F9F4F16C0882311F096E911C07723A6
:1012100021F09EE8872F762F05C0662371F096E8AF
:10122000862F70E060E02AF09A95660F771F881F7E
:10123000DAF7880F9695879597F90895E894F92F2E
:1012400096EBFF2381F0121613061406440B9395B8
:10125000F69587957795679557954040FF23B9F7A1
:101260001BC099270895882351F49850D2F7872BF3
:10127000762F652F542F432F322F20E0B1F3121613
:1012800013061406440B88233AF09A95440F551F11
:10129000661F771F881FCAF755234AF4440F551F4E
:1012A00011F460FF04C06F5F7F4F8F4F9F4F880F17
:1012B0009695879597F9089597F99F6780E870E06C
:1012C00060E008959FEF80EC08959095809570956B
:1012D000609550954095309521953F4F4F4F5F4F0A
:1012E0006F4F7F4F8F4F9F4F089500240A9416161B
:1012F000170618060906089500240A941216130604
:10130000140605060895092E0394000C11F4882391
:1013100052F0BB0F40F4BF2B11F460FF04C06F5FAD
:101320007F4F8F4F9F4F089557FD9058440F551F83
:1013300059F05F3F71F04795880F97FB991F61F057
:101340009F3F79F087950895121613061406551FCE
:10135000F2CF4695F1DF08C0161617061806991F3A
:10136000F1CF86957105610508940895E894BB272F
:1013700066277727CB0197F908950E94D0090C942E
:1013800083090E94750938F00E947C0920F095239A
:1013900011F00C945C090C94620911240C94B709A7
:1013A0000E94940970F3959FC1F3950F50E0551F6B
:1013B000629FF001729FBB27F00DB11D639FAA27AA
:1013C000F00DB11DAA1F649F6627B00DA11D661FF9
:1013D000829F2227B00DA11D621F739FB00DA11D1A
:1013E000621F839FA00D611D221F749F3327A00DD4
:1013F000611D231F849F600D211D822F762F6A2F70
:1014000011249F5750409AF0F1F088234AF0EE0FD4
:10141000FF1FBB1F661F771F881F91505040A9F701
:101420009E3F510580F00C945C090C94B7095F3F16
:10143000E4F3983ED4F3869577956795B795F7953D
:10144000E7959F5FC1F7FE2B880F911D96958795B5
:1014500097F90895DB018F939F930BD0BF91AF91C4
:10146000A29F800D911DA39F900DB29F900D1124FE
:10147000089583D0A59F900DB49F900DA49F800DDB
:10148000911D11240895689401C0E8948F929F9251
:10149000CF93DF9305D0DF91CF919F908F900895E8
:1014A00088249924F401E401B0E41B2ED4019D1595
:1014B0008E049F04E007F10738F4FC014B01CA01D8
:1014C000B901AD019E011694220F331F441F551F11
:1014D000661F771F881F991F881C991CEE1FFF1F0E
:1014E000CC1FDD1FAA1FBB1F8A149B04EC05FD0542
:1014F000CE05DF05A007B10748F08A189B08EC0964
:10150000FD09CE09DF09A00BB10B21601A94E1F6A9
:101510002EF49401AF01BE01CD01000C08950F938C
:10152000083090F0982F872F762F652F542F432F58
:10153000322F22270850F4CF220F331F441F551F8C
:10154000661F771F881F991F0A95B2F70F9108959C
:101550002A0D3B1D4C1D5D1D6E1D7F1D801F911FA3
:1015600008950024A7FD00942A0F301D401D501D32
:10157000601D701D801D901D0895A29FB001B39F36
:10158000C001A39F01D0B29F700D811D1124911D38
:061590000895F894FFCF5E
:01159600064E
:101597008151010000DAF89A000000000100000004
:1015A70000000000000000000000010A00320000F7
:1015B700000000F6FFFFFF01000000000000000030
:1015C700000002030100000000000000000000000E
:1015D7000000010A00320000000000F6FFFFFF01D3
:1015E70000000000000000000000020314AAAA1E69
:0E15F700AA55E1000000000000000000000006
:00000001FF
