:1000000019C033C032C043C030C02FC02EC030C072
:100010002CC02BC02AC029C028C027C026C025C09C
:1000200024C023C022C021C020C01FC01EC01DC0CC
:100030001CC01BC011241FBECFEFCDBFDFE3DEBF4E
:100040001EE3A0E0BEE3E1E6F2E102C005900D92FE
:10005000A436B107D9F72FE3A4E6BEE301C01D9291
:10006000AB3DB207E1F729D0F9C8CACF4ED4089505
:100070001F920F920FB60F9211248F9381E08093FD
:1000800053018F910F900FBE0F901F9018951F92E4
:100090000F920FB60F9211248F938FEF8093090464
:1000A0008F910F900FBE0F901F9018958160E0E424
:1000B000F1E0808B81E0838B0895D8DF80E090E0D1
:1000C00087D4C82F853008F0C4E0C093643E2091E7
:1000D000053E3091063E4091073E5091083E6091AA
:1000E000093E70910A3E80910B3E90910C3E08D7DC
:1000F0006B017C016C2F70E080E090E0C4D69B0126
:10010000AC01C701B6016CD787D602E076D8209340
:10011000053E3093063E4093073E5093083E609361
:10012000093E70930A3E80930B3E90930C3E89B13A
:100130008F7E89B980910B11EAE3FEE3868380917B
:100140000C11878346E06AE2CF012FD5ECE3F0E0A3
:100150000090003E02C0F595E7950A94E2F71F2F44
:10016000110F110B2091053E3091063E4091073E44
:100170005091083E6091093E70910A3E80910B3E7D
:1001800090910C3EAE2EBF2EC12ED12EE12EF12E1F
:10019000012F4FD82093053E3093063E4093073EF3
:1001A0005093083E6093093E70930A3E80930B3E45
:1001B00090930C3E84E194E0FC0120812860208330
:1001C000C4E3D4E0288128602883A5E1B4E02C9121
:1001D00028602C9345E354E0FA01208128602083B5
:1001E00020B12F7E20B924B12F7E24B920B12F7DDC
:1001F00020B924B12F7D24B992B096949694969408
:10020000969421E0392D32273170932E86B0869452
:1002100086948694869428252170822EFC01208164
:10022000277F20838881877F88838C91877F8C9329
:10023000FA018081877F808381B18F7E81B985B10A
:100240008F7E85B981B18F7D81B985B18F7D85B96B
:1002500080B1806180B984B1806184B980B18062ED
:1002600080B984B1806284B960E080E061D5EDE05E
:10027000FEE384819581A681B781408D518D628D89
:10028000738D841B950BA60BB70B8093693E9093DF
:100290006A3EA0936B3EB0936C3E10E0C9C0C12F84
:1002A000D0E084E18C9FF0018D9FF00D1124E35F7D
:1002B000F14C80E390E0808B918B14861586168636
:1002C000178620C060E0812F33D56B017C0161E08F
:1002D000812F2ED5C61AD70AE80AF90A84E18C9F25
:1002E000F0018D9FF00D1124E35FF14C848595851D
:1002F000A685B785C80ED91EEA1EFB1EC486D58604
:10030000E686F78684E18C9FF0018D9FF00D112425
:10031000E35FF14C808991890197808B918B892BC8
:1003200089F684E18C9FF0018D9FF00D1124E35F2D
:10033000F14C80819181A281B381F2889C01AD0151
:100340000F2C04C056954795379527950A94D2F7F8
:10035000A389B0E0E1D64484558466847784440C54
:10036000551C661C771CA301920104C05695479545
:1003700037952795FA94D2F7DC01CB01820F931FB2
:10038000A41FB51F80839183A283B38320916D3E08
:1003900030E0C480D580E680F780260137014FE049
:1003A000440E511C611C711C481659066A067B06D6
:1003B00068F05FE0C51AD108E108F1088C159D05C9
:1003C000AE05BF0530F441E050E005C041E050E02B
:1003D00002C040E050E0242B352B41E0232B09F4F0
:1003E00040E040936D3E24E12C9FF0012D9FF00DE5
:1003F0001124E35FF14C84839583A683B7838091B6
:10040000353E8130A1F484E18C9FF0018D9FF00D89
:100410001124E35FF14C80819181A281B3818C55DD
:100420009109A109B10980879187A287B3871F5FCE
:10043000123008F434CFEDE0FEE384819581A6818B
:10044000B781408D518D628D738D841B950BA60BEA
:10045000B70B8093653E9093663EA093673EB09342
:10046000683E80819181A281B381408551856285FA
:1004700073859C01241B350B84899589A689B789CE
:10048000448D558D668D778D841B950B332314F425
:1004900020E030E0992314F480E090E02C7F33706A
:1004A0003595279535952795EEE6FEE320838C7FDD
:1004B0009370959587959595879581838091013E59
:1004C0009091023EA091033EB091043E8138914547
:1004D000A140B105B8F12091053E3091063E409112
:1004E000073E5091083E6091093E70910A3E80910E
:1004F0000B3E90910C3E02E065D6A12C0F2EF4E449
:10050000BF2EF02D0F2EF6EECF2EF02D0F2EFDE28A
:10051000DF2EF02D6894EE24E1F8F12C00E010E0DD
:1005200007D62093643E622F80E090E055D210926F
:10053000013E1092023E1092033E1092043E8FE361
:10054000809340008091013E9091023EA091033E35
:10055000B091043E0196A11DB11D8093013E909380
:10056000023EA093033EB093043E6091423E6F7BF7
:1005700080914000882311F070E801C070E09091F4
:10058000643EF0E19F9F90011124882D90E0AC0122
:10059000440F551F440F551F440F551F892D90E0E0
:1005A000880F991F880F991F842B2073272B8F701A
:1005B0008360822B21E0681301C020E090916D3EA2
:1005C000292BC090693ED0906A3EE0906B3EF0903F
:1005D0006C3E4091653E5091663E6091673E7091E1
:1005E000683E4C155D056E057F0514F490E401C06E
:1005F00090E0892B8093723E222321F09091393E26
:10060000953148F02091373E3091383E232B29F028
:100610009091393E03C099E201C099E29093393E2E
:100620002091373E3091383E2115310529F099232C
:1006300031F04CE251E005C04CE251E002C041E033
:1006400050E0241B350B2093373E3093383E1092F8
:100650006D3E992309F450C09091363E91114CC0E3
:10066000CAE3DEE38887EEE6FEE380818987818145
:100670008A8782E49EE3DED28B87E6D2811102C0B4
:1006800091E001C09FEF8091393E891B8093393EF4
:10069000EDE4F0E00090003E02C0F595E7950A9485
:1006A000E2F71F2F110F110B2091053E3091063EEE
:1006B0004091073E5091083E6091093E70910A3E7C
:1006C00080910B3E90910C3EAE2EBF2EC12ED12EAE
:1006D000E12EF12E012FADD52093053E3093063E3D
:1006E0004093073E5093083E6093093E70930A3E44
:1006F00080930B3E90930C3E8091363E811163C0F7
:10070000E0E5F0E08081897F84608083F8949091B7
:10071000393E943120F081E08927817005C099230A
:1007200011F082E001C083E08093003E895F880F72
:10073000880F880FBBDCE0E5F0E08081816080837A
:100740007894889580818E7F8083F894E8E7F0E044
:100750000090003E02C0F595E7950A94E2F71F2F3E
:10076000110F110B2091053E3091063E4091073E3E
:100770005091083E6091093E70910A3E80910B3E77
:1007800090910C3EAE2EBF2EC12ED12EE12EF12E19
:10079000012F4FD52093053E3093063E4093073EF0
:1007A0005093083E6093093E70930A3E80930B3E3F
:1007B00090930C3E8091353E91E0811101C090E014
:1007C000891B8093353E80B1877F80B9139B0BC016
:1007D00024C0E3E2F4EF3197F1F700C000008AB1E2
:1007E00080618AB901C094E6139902C0915089F7DB
:1007F00091110EC064E680E090E0EED0809102108E
:1008000081FDFCCF89E698E10197F1F700C0000077
:1008100041E068ED81E490E0F9D0E3E1F4E080812B
:10082000886080838091363E91E0811101C090E024
:10083000891B8093363E8ACCE0E0F6E082E5828335
:1008400081E0808380E00895E0E0F6E0868381E047
:100850008087089580910B0681700895809110061D
:10086000909111060895F0DFF5DF8823E9F3F6DFB4
:10087000E0E0F6E0238521602387089580E0089575
:1008800043E068ED81E690E0C1D080E0089578947F
:1008900080E0089580E008C0E82FF0E0E05FFB4FC3
:1008A0009081986090838F5F8830B0F380E008C0BB
:1008B000E82FF0E0E05DFB4F9081986090838F5FC0
:1008C0008830B0F380E008C0E82FF0E0E05BFB4F39
:1008D0009081986090838F5F8830B0F30895E6E14F
:1008E000F4E08081887F846080838081877F80833B
:1008F000E0E3F4E08081887F846080838081877F6B
:1009000080839ADF089562D00895C4DF80B1877F25
:1009100080B9E3E1F4E080818860808380B18F7EDC
:1009200080B9E4E1F4E080818860808380B18F7DCC
:1009300080B9E5E1F4E080818860808381B18F77C0
:1009400081B980B1806880B984B18D7F84B9E1E3D9
:10095000F4E08081877F808384B18F7E84B9E4E373
:10096000F4E080818860808384B18F7D84B9E5E381
:10097000F4E080818860808388B18D7F88B9E1E56B
:10098000F4E080818860808388B18B7F88B9E2E55C
:10099000F4E080818860808389B1877F89B988B1DC
:1009A000886088B989B18F7E89B988B1806188B93A
:1009B00089B18F7D89B988B1806288B961DF2AD019
:1009C0008EDFA1DF64DF3CD059DF089580E0089519
:1009D0009C5EFC01808108951F93CF93DF93EC010F
:1009E000162F8091021081FDFCCF44E06DE980E07C
:1009F00090E10CD0DC5E188343E06DE980E090E18B
:100A000005D080E0DF91CF911F910895FC0164BF74
:100A100040830895809141018111FCCFE0E4F1E031
:100A200088E7808381E08783809151018111FCCF29
:100A3000E0E4F1E089E4808B81E0828B80E008953E
:100A400085E08093500080E0089590E811C029B1BE
:100A5000277F29B9292F282321F029B1206129B91D
:100A600003C029B12F7E29B9969529B1286029B9EB
:100A70009111EDCF89B1877F89B90895CF92DF9227
:100A8000EF92FF926A017B01882319F0813021F0F7
:100A900016C080E0DADF0AC0DB01CA018827992787
:100AA000A770BB27BC01CD018861CFDF8D2DCDDFC5
:100AB0008C2DCBDF89B18F7E89B980E001C081E0C8
:100AC000FF90EF90DF90CF90089589B18F7D89B925
:100AD00083ED90E30197F1F700C0000089B18062D7
:100AE00089B9089590E04AC09C01220F331F220F5C
:100AF000331F220F331FE091D63FF091D73FE80F0D
:100B0000F91F4081441F4427441FD901AD58B14CFF
:100B10004C93408146FB442740F9D901AC58B14C75
:100B20004C93408145FB442740F9D901AB58B14C67
:100B30004C93408142954170D901AA58B14C4C93D5
:100B4000408143FB442740F9D901A958B14C4C934B
:100B5000408142FB442740F9D901A858B14C4C933D
:100B6000408146954170D901A758B14C4C934081C2
:100B70004170F901E658F14C408301962091D53F30
:100B800030E08217930708F4AFCF0895E3ECFFE35A
:100B9000838B948B628B80E591E08093703E909381
:100BA000713E80E09FDF80E008950F931F93CF9305
:100BB000DF938C01D62FC42F88DFE3ECFFE3108A8C
:100BC000118A1686178680E090E28487958780E0F8
:100BD00098E08287938780E190E0808791871682F2
:100BE000178284E090E08483958380ED97E6A4E00B
:100BF000B0E080839183A283B38384E198E2858B04
:100C0000968B4C2F50E0D801A40FB51F9C914F5FDD
:100C10005F4FD801A40FB51F8C9189279BED8927C1
:100C2000878B6D2FC801B2DF80E0DF91CF911F91DC
:100C30000F910895FC018091DA3F208191813281EA
:100C400082278927832708951F93CF93DF93C3ECCF
:100C5000DFE34D895E8950684D8B5E8B60E070E00C
:100C600080E00CDF182F488159816A817B8181E007
:100C700005DF182B8D899E899F778D8B9E8B8091A8
:100C800060928E5F2FDFE2E5F4E0808188608083F0
:100C900020E030E006C080E18A95F1F700C02F5FC8
:100CA0003F4F529903C02C3D3105A8F32C3D31052F
:100CB00008F011E0E2E5F4E08081877F80832C3D3D
:100CC0003105D8F011E022C0F901ED58F14C9081C6
:100CD000992321F099B1906199B903C099B19F7E90
:100CE00099B9F901ED58F14C9081911103C00000C0
:100CF000000000002F5F3F4F02C020E030E0409135
:100D0000703E5091713E24173507F0F24091D83F64
:100D10005091D93F60E070E080E0B0DEC12FC82B79
:100D2000C13009F4D2DE8C2FDF91CF911F9108954D
:100D3000882319F08130A1F166C0662321F085B1C6
:100D4000826085B903C085B18D7F85B984B1826029
:100D500084B98AE080930606613021F081B1806415
:100D600081B903C081B18F7B81B980B1806480B9C2
:100D700085E08A95F1F780B18F7B80B986E073DDDD
:100D80002AE02093060625B12D7F25B921B12F7BBE
:100D900021B920B1206420B9BC0180E090E0089521
:100DA000662321F085B1826085B903C085B18D7F4E
:100DB00085B984B1826084B98AE080930606613087
:100DC00021F085B1816085B903C085B18E7F85B979
:100DD00084B1816084B985E08A95F1F784B18E7F12
:100DE00084B98BE040DD2AE02093060625B12D7FF3
:100DF00025B925B12E7F25B924B1216024B9BC01C4
:100E000080E090E0089560E070E0CB010895BEE3DB
:100E100004D008F490E80895BFE322273327A901FE
:100E20000E94D60760F19F5748F1B91740F1BFE320
:100E3000B91B9927B8503AF4660F771F881F991F7E
:100E4000B395D2F316C0B8504AF0232F342F452F54
:100E5000562F672F782F8827B850BAF7B85F49F018
:100E60008695779567955795479537952795BA95C0
:100E7000B9F716F40E94BE0788940895889460E03C
:100E800070E0CB010895E89409C097FB3EF490957B
:100E90008095709561957F4F8F4F9F4F9923A9F053
:100EA000F92F96E9BB279395F695879577956795E2
:100EB000B795F111F8CFFAF4BB0F11F460FF1BC026
:100EC0006F5F7F4F8F4F9F4F16C0882311F096E9B9
:100ED00011C0772321F09EE8872F762F05C0662367
:100EE00071F096E8862F70E060E02AF09A95660F20
:100EF000771F881FDAF7880F9695879597F90895D9
:100F0000E894F92F96EBFF2381F0121613061406CE
:100F1000440B9395F695879577956795579540403F
:100F2000FF23B9F71BC099270895882351F49850DF
:100F3000D2F7872B762F652F542F432F322F20E0A7
:100F4000B1F3121613061406440B88233AF09A954F
:100F5000440F551F661F771F881FCAF755234AF491
:100F6000440F551F11F460FF04C06F5F7F4F8F4F18
:100F70009F4F880F9695879597F90895909580953E
:100F80007095609550954095309521953F4F4F4F06
:100F90005F4F6F4F7F4F8F4F9F4F089557FD905872
:100FA000440F551F59F05F3F71F04795880F97FB2D
:100FB000991F61F09F3F79F08795089512161306E7
:100FC0001406551FF2CF4695F1DF08C01616170616
:100FD0001806991FF1CF869571056105089408954B
:100FE0000E9403080C9474080E94660838F00E945E
:100FF0006D0820F0952311F00C945D080C946308A3
:1010000011240C9486080E94CE0770F3959FC1F3BB
:10101000950F50E0551F629FF001729FBB27F00DA6
:10102000B11D639FAA27F00DB11DAA1F649F6627FB
:10103000B00DA11D661F829F2227B00DA11D621F4A
:10104000739FB00DA11D621F839FA00D611D221F04
:10105000749F3327A00D611D231F849F600D211DE8
:10106000822F762F6A2F11249F5750409AF0F1F06B
:1010700088234AF0EE0FFF1FBB1F661F771F881FD4
:1010800091505040A9F79E3F510580F00C945D08A7
:101090000C9486085F3FE4F3983ED4F386957795E9
:1010A0006795B795F795E7959F5FC1F7FE2B880F7A
:1010B000911D9695879597F9089597F99F6780E810
:1010C00070E060E008959FEF80EC089500240A949A
:1010D0001616170618060906089500240A94121613
:1010E0001306140605060895092E0394000C11F446
:1010F000882352F0BB0F40F4BF2B11F460FF04C0F3
:101100006F5F7F4F8F4F9F4F0895E894BB276627EF
:101110007727CB0197F9089595D0A59F900DB49F9F
:10112000900DA49F800D911D11240895689401C015
:10113000E8948F929F92CF93DF9305D0DF91CF9168
:101140009F908F90089588249924F401E401B0E4DD
:101150001B2ED4019D158E049F04E007F10738F47F
:10116000FC014B01CA01B901AD019E011694220F89
:10117000331F441F551F661F771F881F991F881C28
:10118000991CEE1FFF1FCC1FDD1FAA1FBB1F8A1457
:101190009B04EC05FD05CE05DF05A007B10748F06F
:1011A0008A189B08EC09FD09CE09DF09A00BB10BD9
:1011B00021601A94E1F62EF49401AF01BE01CD0135
:1011C000000C08950F93083090F0982F872F762FFA
:1011D000652F542F432F322F22270850F4CF220F90
:1011E000331F441F551F661F771F881F991F0A95BD
:1011F000B2F70F91089597FB10F8169400080F931B
:10120000083098F00850232F342F452F562F672F82
:10121000782F892F902DF4CF059497958795779502
:10122000679557954795379527950A95AAF70F9192
:1012300008952A193B094C095D096E097F09800B45
:10124000910B0895A29FB001B39FC001A39F01D04D
:10125000B29F700D811D1124911D0895F894FFCF48
:011260000687
:1012610003815101000044E62D020000000000004E
:10127100000000000000000000000000000000026B
:10128100030000000000000000000000000000005A
:10129100000000020304642C010BAAAA1EAA55E156
:1012A100000000000000000000000000000000003D
:1012B100000000000000000000000000000000002D
:0412C1000000000029
:00000001FF
