:1000000019C033C032C043C030C02FC02EC030C072
:100010002CC02BC02AC029C028C027C026C025C09C
:1000200024C023C022C021C020C01FC01EC01DC0CC
:100030001CC01BC011241FBECFEFCDBFDFE3DEBF4E
:100040001EE3A0E0BEE3EDE2F9E102C005900D92EF
:10005000A233B107D9F72FE3A2E3BEE301C01D929B
:10006000AA31B207E1F722D05FCCCACF85D7089575
:100070001F920F920FB60F9211248F9381E08093FD
:1000800053018F910F900FBE0F901F9018951F92E4
:100090000F920FB60F9211248F938FEF8093090464
:1000A0008F910F900FBE0F901F901895CF93DF93F5
:1000B000CDB7DEB76F97CDBFDEBFD8DF90E088EC5D
:1000C00013C08AB180618AB9A7EAB1E61197F1F746
:1000D00000C00000139907C0911105C064E680E0DC
:1000E00090E0B1D791E0898144244A94480E498236
:1000F0008111E7CF89B1806189B980E090E09FD715
:1001000089838093333E2091063E3091073E409193
:10011000083E5091093E60910A3E70910B3E8091DD
:100120000C3E90910D3EB8DA6B017C012981253699
:1001300058F4622F70E080E090E071DA20E030E067
:1001400048EC52E48FD904C060E070E080E89FE39F
:10015000A701960140DBFDD92093063E3093073E70
:100160004093083E5093093E60930A3E70930B3EC5
:1001700080930C3E90930D3E60E080E008D9159985
:1001800005C0359906C083E090E005C081E090E0AD
:1001900002C081E090E04091003E5091013E489FB6
:1001A0009001499F300D589F300D11242093003E3F
:1001B0003093013E159904C0359904C081E003C015
:1001C0008FEF01C08FEF8093323E159904C03599AF
:1001D00004C092E003C091E001C091E0EEE0FEE3D4
:1001E0008085899F802D1124808780931F3E1599DB
:1001F00005C0359906C03DE2398305C04FE049830B
:1002000002C08FE089830F2EF2E32F2EF02D1E8A7D
:100210001F8A188E198E1A8E1B8E1C8E1D8E1E869E
:100220001F86188A198A1A8A1B8A1C8A1D8A1E82AE
:100230001F82188619861A861B861C861D861D82BB
:10024000312C412C612C712C812C912C1E8EA12CD7
:10025000AF8E7DC180E88093353E2EC060E080E0A7
:1002600096D84091433E5091443E6091453E7091F6
:10027000463E480F591F611D711D4093433E5093E8
:10028000443E6093453E7093463E61E080E07FD8F7
:1002900040913F3E5091403E6091413E7091423EC0
:1002A000480F591F611D711D40933F3E5093403EC2
:1002B0006093413E7093423E8091353E9FEF980F90
:1002C0009093353E8111CACF8091323E082E000CAA
:1002D000990B02964091433E5091443E6091453EB9
:1002E0007091463E8A019B01082E04C035952795E2
:1002F000179507950A94D2F740913F3E5091403EA2
:100300006091413E7091423E5A016B0104C0D59408
:10031000C794B794A7948A95D2F778018901EA180F
:10032000FB080C091D09D801C701BB0F880B982FCA
:10033000DC0189839A83AB83BC832D81332D442DCB
:10034000562D672D782D892D9F8DAE2CBF2CC02E5C
:10035000D12EE980FE2C0E2D1E2DC8DA2D83332ED2
:10036000442E652E762E872E982E9F8F10923F3E1C
:100370001092403E1092413E1092423E1092433EF7
:100380001092443E1092453E1092463E80E8809383
:10039000353E2EC060E081E0FAD74091433E509157
:1003A000443E6091453E7091463E480F591F611D85
:1003B000711D4093433E5093443E6093453E70937D
:1003C000463E61E081E0E3D740913F3E5091403EA0
:1003D0006091413E7091423E480F591F611D711D51
:1003E00040933F3E5093403E6093413E7093423E67
:1003F0008091353E9FEF980F9093353E8111CACF83
:100400008091323E082E000C990B02964091433E9B
:100410005091443E6091453E7091463E8A019B0159
:10042000082E04C035952795179507950A94D2F79D
:1004300040913F3E5091403E6091413E7091423E1E
:100440006A017B0104C0F594E794D794C7948A9518
:10045000D2F7D701C60178018901E81AF90A0A0B17
:100460001B0BD801C701BB0F880B982FDC018983B8
:100470009A83AB83BC832E813F81488559856A85E9
:100480007B858C859D85AE2CBF2CC02ED12EE9801E
:10049000FE2C0E2D1E2D2ADA2E833F834887598786
:1004A0006A877B878C879D8710923F3E1092403EE3
:1004B0001092413E1092423E1092433E1092443EB2
:1004C0001092453E1092463E539403C0512C9981A0
:1004D0009E8FB3E0B51508F0BDCE5E8C59825F8C5F
:1004E0002E853F85488959896A897B898C899D89B0
:1004F000AD80B32CC42CD62CE72CF82C092D152D4F
:100500000ADA44F4AE863F86488A698A7A8A8B8AF8
:100510009C8A5D8A2E893F89488D598D6A8D7B8D95
:100520008C8D9D8DAE80BF80C884D984EA84FB8485
:100530000C851D85F0D944F4AE8ABF8AC88ED98E49
:10054000EA8EFB8E0C8F1D8F8AB180618AB92A9446
:100550002110BCCF2E853F85488959896A897B89BE
:100560008C899D8901E0A4D9422E532E642E752ECC
:100570002981C22ED12CE12CF12CD701C601840D8A
:10058000951DA61DB71D80933B3E90933C3EA093C6
:100590003D3EB0933E3E2E893F89488D598D6A8DF0
:1005A0007B8D8C8D9D8D84D9422E532E642E752E7D
:1005B000C40CD51CE61CF71CC092373ED092383EC6
:1005C000E092393EF0923A3E89B18F7E89B9E3E1FB
:1005D000F4E08081887F8160808380910A11E1E26C
:1005E000FEE3868380910B11878380910C118087B5
:1005F00046E060E1CF010DD62091063E3091073EE6
:100600004091083E5091093E60910A3E70910B3E28
:1006100080910C3E90910D3EADEF71D92093063E36
:100620003093073E4093083E5093093E60930A3E44
:1006300070930B3E80930C3E90930D3E44E154E04A
:10064000DA018C9188608C9324E334E0F901808195
:1006500088608083A5E1B4E08C9188608C9365E329
:1006600074E0FB0180818860808392B1E92FE2957C
:10067000EF7081E0E827E1703E2EE6B1E295EF7081
:10068000E827E1702E2E02B1029506950770082723
:10069000017016B112951695177018271170FA018E
:1006A0008081877F8083F9018081877F80838C911F
:1006B000877F8C93DB018C91877F8C93F0D360E0F4
:1006C00080E065D661E081E062D680E88093353EC7
:1006D0002EC060E080E05BD640914B3E50914C3E96
:1006E00060914D3E70914E3E480F591F611D711D26
:1006F00040934B3E50934C3E60934D3E70934E3E24
:1007000061E080E044D64091473E5091483E609180
:10071000493E70914A3E480F591F611D711D40931B
:10072000473E5093483E6093493E70934A3E8091C5
:10073000353E9FEF980F9093353E8111CACF20919F
:10074000323E022E000C330B2E5F3F4F40914B3E4A
:1007500050914C3E60914D3E70914E3E022E04C031
:1007600075956795579547950A94D2F7C090473E7F
:10077000D090483EE090493EF0904A3E04C0F59447
:10078000E794D794C7942A95D2F7E091363EF0E0EB
:100790004C195D096E097F09EE0FFF1FEE0FFF1F59
:1007A000E55AF14C408351836283738390E021C00A
:1007B000E92FF0E0EE0FFF1FEE0FFF1FE55AF14C9F
:1007C0004081518162817381C090573ED090583EE4
:1007D000E090593EF0905A3E4C0D5D1D6E1D7F1D00
:1007E0004093573E5093583E6093593E70935A3E03
:1007F0009F5F9430E8F24091573E5091583E60918F
:10080000593E70915A3E7595679557954795409317
:10081000533E5093543E6093553E7093563EC09065
:100820003B3ED0903C3EE0903D3EF0903E3E4A0143
:100830005B018C189D08AE08BF0891E018141904DC
:100840001A041B040CF090E09093173E91118091D4
:10085000183E8093183E992309F44AC0882391F0EA
:100860004090193E50901A3E60901B3E70901C3E86
:100870004A015B0144155505660577052CF45301C3
:10088000420102C04A015B01E7E1FEE382829382FA
:10089000A482B5829781891718F0982F919501C08D
:1008A00091E0890F8093183E882379F080911F3E54
:1008B0008695869526013701480E511C611C711CD6
:1008C000481459046A047B049CF080911F3EC80EB2
:1008D000D11CE11CF11CC814D904EA04FB0444F047
:1008E00080923B3E90923C3EA0923D3EB0923E3E76
:1008F00080913B3E90913C3E3A01681A790AC301CF
:100900002091003E3091013E6216730644F44093FC
:100910003B3E50933C3E60933D3E70933E3E109272
:10092000573E1092583E1092593E10925A3E1092E5
:10093000473E1092483E1092493E10924A3E109215
:100940004B3E10924C3E10924D3E10924E3E9923DB
:1009500014F480E090E080937B3E90937C3EE1E550
:10096000FEE39183808380E88093353E2EC060E073
:1009700081E00DD540914B3E50914C3E60914D3EF3
:1009800070914E3E480F591F611D711D40934B3EA3
:1009900050934C3E60934D3E70934E3E61E081E03B
:1009A000F6D44091473E5091483E6091493E709147
:1009B0004A3E480F591F611D711D4093473E509399
:1009C000483E6093493E70934A3EF090353E8FEF2B
:1009D0008F0D8093353EF110CACF67D28091323EA1
:1009E000082E000C990B029640914B3E50914C3EC4
:1009F00060914D3E70914E3E082E04C075956795EE
:100A0000579547950A94D2F78090473E9090483E7C
:100A1000A090493EB0904A3E2401350104C075942F
:100A20006794579447948A95D2F72091363EE22FE7
:100A3000F0E05A016B01A418B508C608D70834962F
:100A4000EE0FFF1FEE0FFF1FE55AF14CA082B1829F
:100A5000C282D38280E022C0E82FF0E03496EE0F0D
:100A6000FF1FEE0FFF1FE55AF14C4081518162815B
:100A700073818090573E9090583EA090593EB09020
:100A80005A3E480D591D6A1D7B1D4093573E509399
:100A9000583E6093593E70935A3E8F5F8430E0F227
:100AA0004091573E5091583E6091593E70915A3E48
:100AB00075956795579547954093533E5093543E8F
:100AC0006093553E7093563E8090373E9090383EEE
:100AD000A090393EB0903A3E2A013B01481859088F
:100AE0006A087B0881E014141504160417040CF03E
:100AF00080E080930E3E8111F0900F3EF0920F3E09
:100B0000882309F44AC0FF2091F08091103E909113
:100B1000113EA091123EB091133E2A013B014817AD
:100B200059076A077B072CF42C013D0102C02A01FA
:100B30003B01EEE0FEE3428253826482758287814C
:100B4000F81618F08F2D819501C081E0F80EF09213
:100B50000F3EFF2079F08091163E869586957501AF
:100B60006401C80ED11CE11CF11CC414D504E604B8
:100B7000F7049CF08091163E880E911CA11CB11CBC
:100B800084149504A604B70444F04092373E509272
:100B9000383E6092393E70923A3E8091373E909155
:100BA000383E7A01E81AF90AC701E091003EF09157
:100BB000013EEE16FF0644F44093373E5093383E14
:100BC0006093393E70933A3E1092573E1092583ED1
:100BD0001092593E10925A3E1092473E1092483E53
:100BE0001092493E10924A3E10924B3E10924C3E5B
:100BF00010924D3E10924E3E992314F480E090E006
:100C000080937D3E90937E3EEFE4FEE3918380836C
:100C1000233018F0822F819501C081E0280F2093A6
:100C2000363E8091023E9091033EA091043EB091E9
:100C3000053E81389145A140B10548F12091063E1D
:100C40003091073E4091083E5091093E60910A3E26
:100C500070910B3E80910C3E90910D3E1DD52AED7A
:100C600038EF4AE15FE4FED320E030E048EC52E4A4
:100C7000B2D5A6D46093333E80E090E0E4D11092E8
:100C8000023E1092033E1092043E1092053E809167
:100C9000023E9091033EA091043EB091053E019624
:100CA000A11DB11D8093023E9093033EA093043E8C
:100CB000B093053E8091333E232D30E0220F331F49
:100CC000482F407F242B022BE0E8FEE3008390E1D5
:100CD000899F90011124822D90E0880F991F822B0B
:100CE000182B118380912A3E081332C080912B3E2D
:100CF000181330C09091523E80912C3E98132CC016
:100D00002091513E30E080912D3E90E0AC01455065
:100D100051092417350714F105968217930704F13A
:100D20009091503E80912E3E98131CC020914F3ED2
:100D300030E080912F3E90E0AC01455051092417DE
:100D4000350794F005968217930784F481E00FC06D
:100D500081E00DC081E00BC081E009C081E007C0E7
:100D600081E005C081E003C081E001C080E08170C6
:100D70008093343E811103C08091203E01C084E104
:100D80008093203E00932A3E10932B3EE1E5FEE344
:100D9000818180932C3E808180932D3EEFE4FEE3A1
:100DA000818180932E3E808180932F3E8AE29EE354
:100DB0007DD28093303E8AD2882331F08091203ECC
:100DC0008F5F8093203E05C08091203E81508093AC
:100DD000203E2091063E3091073E4091083E5091C2
:100DE000093E60910A3E70910B3E80910C3E9091BD
:100DF0000D3EA9EF84D52093063E3093073E4093E5
:100E0000083E5093093E60930A3E70930B3E8093D8
:100E10000C3E90930D3EE0E5F0E08081897F846098
:100E20008083F89480818160808378948895808124
:100E30008E7F8083F8942091063E3091073E40914A
:100E4000083E5091093E60910A3E70910B3E8091A0
:100E50000C3E90910D3EA9EC52D52093063E309366
:100E6000073E4093083E5093093E60930A3E7093BC
:100E70000B3E80930C3E90930D3E1399BDCB139B7C
:100E8000FECF41E068ED81E490E0F7D0B5CBE0E043
:100E9000F6E080E1828385E0808380E00895E0E0F1
:100EA000F6E08081816080830895E0E0F6E0808153
:100EB0008E7F80830895E0E0F6E0868381E080877E
:100EC000089580910B06817008958091100690918D
:100ED00011060895F0DFF5DF8823E9F3F6DFE0E09F
:100EE000F6E0238521602387089580E0089543E09C
:100EF00068ED81E690E0C1D080E00895789480E0CC
:100F0000089580E008C0E82FF0E0E05FFB4F90819B
:100F1000986090838F5F8830B0F380E008C0E82F3E
:100F2000F0E0E05DFB4F9081986090838F5F8830A8
:100F3000B0F380E008C0E82FF0E0E05BFB4F908169
:100F4000986090838F5F8830B0F30895E6E1F4E015
:100F50008081887F846080838081877F8083E0E3D5
:100F6000F4E08081887F846080838081877F8083B4
:100F70008EDF089562D00895C4DF80B1877F80B985
:100F8000E3E1F4E080818860808380B18F7E80B966
:100F9000E4E1F4E080818860808380B18F7D80B956
:100FA000E5E1F4E080818860808381B18F7781B949
:100FB00080B1806880B984B18D7F84B9E1E3F4E0C9
:100FC0008081877F808384B18F7E84B9E4E3F4E0FD
:100FD00080818860808384B18F7D84B9E5E3F4E00B
:100FE00080818860808388B18D7F88B9E1E5F4E0F5
:100FF00080818860808388B18B7F88B9E2E5F4E0E6
:1010000080818860808389B1877F89B988B1886051
:1010100088B989B18F7E89B988B1806188B989B171
:101020008F7D89B988B1806288B961DF2AD08EDF6F
:10103000A1DF64DF3CD059DF089580E008959C5E15
:10104000FC01808108951F93CF93DF93EC01162F4D
:101050008091021081FDFCCF44E06DE980E090E1D9
:101060000CD0DC5E188343E06DE980E090E105D0B0
:1010700080E0DF91CF911F910895FC0164BF408310
:101080000895809141018111FCCFE0E4F1E088E70F
:10109000808381E08783809151018111FCCFE0E45E
:1010A000F1E089E3808B81E0828B80E0089585E028
:1010B0008093500080E0089590E811C029B1277F07
:1010C00029B9292F282321F029B1206129B903C08A
:1010D00029B12F7E29B9969529B1286029B9911196
:1010E000EDCF89B1877F89B90895CF92DF92EF92D2
:1010F000FF926A017B01882319F0813021F016C02C
:1011000080E0DADF0AC0DB01CA0188279927A770CF
:10111000BB27BC01CD018861CFDF8D2DCDDF8C2DAC
:10112000CBDF89B18F7E89B980E001C081E0FF907B
:10113000EF90DF90CF90089589B18F7D89B983EDCD
:1011400090E30197F1F700C0000089B1806289B98E
:10115000089590E04AC09C01220F331F220F331FD5
:10116000220F331FE091153FF091163FE80FF91F52
:101170004081441F4427441FD901AE57B14C4C93C2
:10118000408146FB442740F9D901AD57B14C4C93FF
:10119000408145FB442740F9D901AC57B14C4C93F1
:1011A000408142954170D901AB57B14C4C9340817D
:1011B00043FB442740F9D901AA57B14C4C934081D5
:1011C00042FB442740F9D901A957B14C4C934081C7
:1011D00046954170D901A857B14C4C93408141705C
:1011E000F901E757F14C408301962091143F30E01C
:1011F0008217930708F4AFCF0895E2E0FFE3838BF3
:10120000948B628B80E880937F3E80E0A2DF80E059
:101210000895FF920F931F93CF93DF938C01F62EC7
:10122000C42F8ADFE2E0FFE3108A118A1686178650
:1012300080E090E28487958780E098E082879387BA
:10124000108611861682178284E090E0848395834D
:1012500087E296E6A4E0B0E080839183A283B38323
:1012600084E098E2858B968B4C2F50E0D801A40F38
:10127000B51F9C919A012F5F3F4F200F311F4E5F8A
:101280005F4FD801A40FB51FE901888189279C9180
:1012900089279BED8927878B6F2DC801AEDF80E002
:1012A000DF91CF911F910F91FF900895FC018091E4
:1012B000193F508141813281238194816581852745
:1012C000842783278227892786270895CF93DF9352
:1012D000C2E0DFE34D895E8950684D8B5E8B60E034
:1012E00070E080E002DF488159816A817B8181E082
:1012F000FCDE8D899E899F778D8B9E8B80912C99AA
:101300008D5F27DF80E090E005C020E12A95F1F7AE
:1013100000C00196529903C08C3D9105B0F38C3DFD
:101320009105E8F025C0FC01EE57F14C2081222305
:1013300021F029B1206129B903C029B12F7E29B933
:101340002AE02A95F1F700C0FC01EE57F14C20810C
:10135000211103C0000000000000019602C080E0DF
:1013600090E020917F3E30E082179307E0F203C0C7
:10137000E3DE81E009C04091173F5091183F60E0E3
:1013800070E080E0B2DE80E0DF91CF91089591B10E
:101390009F7791B9882319F0813089F160C0662365
:1013A00021F085B1826085B903C085B18D7F85B993
:1013B00084B1826084B98AE080930606613021F0AE
:1013C00081B1806481B903C081B18F7B81B980B163
:1013D000806480B985E08A95F1F780B18F7B80B910
:1013E00086E078DD2AE02093060625B1226025B943
:1013F00021B1206421B920B1206420B90895662369
:1014000021F085B1826085B903C085B18D7F85B932
:1014100084B1826084B98AE080930606613021F04D
:1014200085B1816085B903C085B18E7F85B984B1EE
:10143000816084B985E08A95F1F784B18E7F84B9A3
:101440008BE048DD2AE02093060625B1226025B90D
:1014500025B1216025B924B1216024B9089580E027
:1014600090E008950E94460A0C94B10B0E94AA0BCA
:1014700058F00E94A30B40F029F45F3F29F00C9430
:101480008A0B51110C94E50B0C94900B0E94C20B2B
:1014900068F39923B1F3552391F3951B550BBB27A3
:1014A000AA2762177307840738F09F5F5F4F220FE8
:1014B000331F441FAA1FA9F335D00E2E3AF0E0E8DF
:1014C00032D091505040E695001CCAF72BD0FE2F29
:1014D00029D0660F771F881FBB1F261737074807BD
:1014E000AB07B0E809F0BB0B802DBF01FF27935875
:1014F0005F4F3AF09E3F510578F00C948A0B0C94A4
:10150000E50B5F3FE4F3983ED4F3869577956795B6
:10151000B795F7959F5FC9F7880F911D96958795A9
:1015200097F90895E1E0660F771F881FBB1F6217C8
:1015300073078407BA0720F0621B730B840BBA0B86
:10154000EE1F88F7E0950895BEE304D008F490E814
:101550000895BFE322273327A9010E94CA0B60F137
:101560009F5748F1B91740F1BFE3B91B9927B8500D
:101570003AF4660F771F881F991FB395D2F316C0F0
:10158000B8504AF0232F342F452F562F672F782F2E
:101590008827B850BAF7B85F49F086957795679570
:1015A0005795479537952795BA95B9F716F40E9440
:1015B000930B88940895889460E070E0CB010895BF
:1015C0000E94CA0B88F09F5798F0B92F9927B751FE
:1015D000B0F0E1F0660F771F881F991F1AF0BA95D7
:1015E000C9F714C0B13091F00E94E40BB1E0089546
:1015F0000C94E40B672F782F8827B85F39F0B93F38
:10160000CCF3869577956795B395D9F73EF4909589
:101610008095709561957F4F8F4F9F4F0895E89407
:1016200009C097FB3EF490958095709561957F4F2A
:101630008F4F9F4F9923A9F0F92F96E9BB279395D8
:10164000F695879577956795B795F111F8CFFAF4E8
:10165000BB0F11F460FF1BC06F5F7F4F8F4F9F4F19
:1016600016C0882311F096E911C0772321F09EE877
:10167000872F762F05C0662371F096E8862F70E0DD
:1016800060E02AF09A95660F771F881FDAF7880FB7
:101690009695879597F90895E894F92F96EBFF238F
:1016A00081F0121613061406440B9395F695879550
:1016B0007795679557954040FF23B9F71BC0992749
:1016C0000895882351F49850D2F7872B762F652FF1
:1016D000542F432F322F20E0B1F3121613061406B5
:1016E000440B88233AF09A95440F551F661F771FC5
:1016F000881FCAF755234AF4440F551F11F460FFA1
:1017000004C06F5F7F4F8F4F9F4F880F96958795CF
:1017100097F9089597F99F6780E870E060E0089571
:101720009FEF80EC08959095809570956095509509
:101730004095309521953F4F4F4F5F4F6F4F7F4FF3
:101740008F4F9F4F089500240A9416161706180607
:101750000906089500240A941216130614060506B5
:101760000895092E0394000C11F4882352F0BB0F46
:1017700040F4BF2B11F460FF04C06F5F7F4F8F4FA9
:101780009F4F089557FD9058440F551F59F05F3FE4
:1017900071F04795880F97FB991F61F09F3F79F093
:1017A00087950895121613061406551FF2CF469515
:1017B000F1DF08C0161617061806991FF1CF869597
:1017C0007105610508940895E894BB27662777277B
:1017D000CB0197F908950E94FE0B0C94B10B0E9467
:1017E000A30B38F00E94AA0B20F0952311F00C9463
:1017F0008A0B0C94900B11240C94E50B0E94C20BE5
:1018000070F3959FC1F3950F50E0551F629FF00153
:10181000729FBB27F00DB11D639FAA27F00DB11D6C
:10182000AA1F649F6627B00DA11D661F829F2227F5
:10183000B00DA11D621F739FB00DA11D621F839F7C
:10184000A00D611D221F749F3327A00D611D231F52
:10185000849F600D211D822F762F6A2F11249F57A0
:1018600050409AF0F1F088234AF0EE0FFF1FBB1FA3
:10187000661F771F881F91505040A9F79E3F510562
:1018800080F00C948A0B0C94E50B5F3FE4F3983ED8
:10189000D4F3869577956795B795F795E7959F5F0C
:1018A000C1F7FE2B880F911D9695879597F908959E
:1018B00097FB10F8169400080F93083098F0085022
:1018C000232F342F452F562F672F782F892F902DB8
:1018D000F4CF059497958795779567955795479594
:1018E000379527950A95AAF70F9108952A0D3B1D64
:1018F0004C1D5D1D6E1D7F1D801F911F08950024CE
:10190000A7FD00942A0F301D401D501D601D701D45
:10191000801D901D08952A153B054C055D056E053B
:0C1920007F05800791070895F894FFCF21
:01192C0006B4
:10192D00E2FF8151010000DAF89A00000000010089
:10193D000000000000023201000000000000023231
:10194D0014AAAA1EAA55E100000000000000000024
:02195D00000088
:00000001FF
