S010000041574855424144432E73726563D5
S113000019C033C032C043C030C02FC02EC030C06E
S11300102CC02BC02AC029C028C027C026C025C098
S113002024C023C022C021C020C01FC01EC01DC0C8
S11300301CC01BC011241FBECFEFCDBFDFE3DEBF4A
S11300401EE3A0E0BEE3E1EEF4E102C005900D92F0
S1130050AC31B107D9F72EE3ACE1BEE301C01D9288
S1130060AC3EB207E1F722D039CACACF24D50895ED
S11300701F920F920FB60F9211248F9381E08093F9
S113008053018F910F900FBE0F901F9018951F92E0
S11300900F920FB60F9211248F938FEF8093090460
S11300A08F910F900FBE0F901F901895DFDF88EC93
S11300B00AC08AB180618AB9A7EAB1E61197F1F75B
S11300C000C00000892F9FEF980F8111F2CF89B1F2
S11300D0806189B980E090E051D5C82F80931C3E9F
S11300E02091043E3091053E4091063E5091073EDA
S11300F06091083E7091093E80910A3E90910B3EBA
S1130100D5D86B017C01C53680F46C2F70E080E09B
S113011090E08FD820E030E040E85FE341D720E072
S113012030E048EC52E4A8D704C060E070E080E816
S11301309FE3A701960159D916D82093043E309322
S1130140053E4093063E5093073E6093083E7093ED
S1130150093E80930A3E90930B3E60E080E0B4D663
S1130160C0E0F1C080E280931F3E2EC060E080E0DA
S1130170ABD64091293E50912A3E60912B3E70911E
S11301802C3E480F591F611D711D4093293E509309
S11301902A3E60932B3E70932C3E61E080E094D61F
S11301A04091253E5091263E6091273E7091283E15
S11301B0480F591F611D711D4093253E5093263EE3
S11301C06093273E7093283E80911F3E9FEF980FC7
S11301D090931F3E8111CACF8091293E90912A3E6F
S11301E0A0912B3EB0912C3EB595A79597958795F8
S11301F0B595A795979587954091253E5091263EB4
S11302006091273E7091283E75956795579547955F
S11302107595679557954795841B950B2091233EBB
S11302203091243E821793070CF4C9018093233E36
S11302309093243E1092253E1092263E1092273E23
S11302401092283E1092293E10922A3E10922B3E84
S113025010922C3E80E280931F3E2EC060E081E02D
S113026033D64091293E50912A3E60912B3E7091A5
S11302702C3E480F591F611D711D4093293E509318
S11302802A3E60932B3E70932C3E61E081E01CD6A5
S11302904091253E5091263E6091273E7091283E24
S11302A0480F591F611D711D4093253E5093263EF2
S11302B06093273E7093283E80911F3E9FEF980FD6
S11302C090931F3E8111CACF8091293E90912A3E7E
S11302D0A0912B3EB0912C3EB595A7959795879507
S11302E0B595A795979587954091253E5091263EC3
S11302F06091273E7091283E75956795579547956F
S11303007595679557954795841B950B2091213ECC
S11303103091223E821793070CF4C9018093213E49
S11303209093223E1092253E1092263E1092273E34
S11303301092283E1092293E10922A3E10922B3E93
S113034010922C3ECF5FCA3008F40CCF89B18F7E57
S113035089B9E3E1F4E08081887F816080838091C2
S11303600A11ECE0FEE3868380910B118783809170
S11303700C11808746E060E1CF01EAD42091043E6D
S11303803091053E4091063E5091073E6091083EF3
S11303907091093E80910A3E90910B3EA6EF92D84F
S11303A02093043E3093053E4093063E5093073E0F
S11303B06093083E7093093E80930A3E90930B3EEF
S11303C044E154E0EA0188818860888324E334E0CE
S11303D0F901808188608083A5E1B4E08C91886014
S11303E08C93E5E3F4E0808188608083D2B1D29578
S11303F0DF7081E0D827D170FD2EC6B1C295CF70D1
S1130400C827C170EC2E02B1029506950770082723
S1130410017016B112951695177018271170EA011C
S11304208881877F8883E9018881877F88838C918D
S1130430877F8C938081877F8083D0D260E080E047
S113044043D580E280931F3E2EC060E080E03CD51F
S11304504091313E5091323E6091333E7091343E32
S1130460480F591F611D711D4093313E5093323E18
S11304706093333E7093343E61E080E025D5409133
S11304802D3E50912E3E60912F3E7091303E480F8C
S1130490591F611D711D40932D3E50932E3E609354
S11304A02F3E7093303E80911F3E9FEF980F9093A4
S11304B01F3E8111CACF8091313E9091323EA0916E
S11304C0333EB091343EB595A79597958795B595EC
S11304D0A7959795879540912D3E50912E3E60911A
S11304E02F3E7091303E7595679557954795759554
S11304F0679557954795E091203EF0E0841B950B56
S11305002091233E3091243EAC01421B530B9A01AF
S1130510EE0FFF1FE35CF14C40835183243F3F4FB8
S113052024F48093233E9093243E20E021C0E22FC4
S1130530F0E0EE0FFF1FE35CF14C80819181092E06
S1130540000CAA0BBB0B4091393E50913A3E60918E
S11305503B3E70913C3E840F951FA61FB71F8093AE
S1130560393E90933A3EA0933B3EB0933C3E2F5F7E
S11305702230E8F28091393E90913A3EA0913B3E80
S1130580B0913C3EB595A795979587951092393EC5
S113059010923A3E10923B3E10923C3E10922D3EF9
S11305A010922E3E10922F3E1092303E1092313E09
S11305B01092323E1092333E1092343E992314F43A
S11305C080E090E080934D3E90934E3EE7E3FEE35F
S11305D09183808380E280931F3E2EC060E081E09F
S11305E073D44091313E5091323E6091333E7091CC
S11305F0343E480F591F611D711D4093313E509385
S1130600323E6093333E7093343E61E081E05CD4CB
S113061040912D3E50912E3E60912F3E7091303E80
S1130620480F591F611D711D40932D3E50932E3E5E
S113063060932F3E7093303E80911F3E9FEF980F42
S113064090931F3E8111CACF8091313E9091323EEA
S1130650A091333EB091343EB595A7959795879573
S1130660B595A7959795879540912D3E50912E3E2F
S113067060912F3E7091303E7595679557954795DB
S11306807595679557954795E091203EF0E0841B5A
S1130690950B2091213E3091223EDC01A21BB30B2D
S11306A09D013496EE0FFF1FE35CF14CA083B183F0
S11306B0243F3F4F24F48093213E9093223E20E038
S11306C022C0E22FF0E03496EE0FFF1FE35CF14C02
S11306D080819181092E000CAA0BBB0B4091393EFD
S11306E050913A3E60913B3E70913C3E840F951F81
S11306F0A61FB71F8093393E90933A3EA0933B3E8A
S1130700B0933C3E2F5F2230E0F28091393E9091CD
S11307103A3EA0913B3EB0913C3EB595A795979546
S113072087951092393E10923A3E10923B3E1092B9
S11307303C3E10922D3E10922E3E10922F3E10926F
S1130740303E1092313E1092323E1092333E10925F
S1130750343E992314F480E090E080934F3E9093CC
S1130760503EE5E3FEE3918380833ED18091203EB9
S1130770882319F0982F919501C091E0890F8093F7
S1130780203E8091003E9091013EA091023EB091A6
S1130790033E8135934CA105B10548F12091043EF7
S11307A03091053E4091063E5091073E6091083ECF
S11307B07091093E80910A3E90910B3E77D520E0DE
S11307C031EB4EE15AE458D420E030E048EC52E4F6
S11307D00CD600D560931C3E80E090E0D3D11092FB
S11307E0003E1092013E1092023E1092033E809110
S11307F0003E9091013EA091023EB091033E0196CD
S1130800A11DB11D8093003E9093013EA093023E32
S1130810B093033E20911C3E8F2D90E0880F991FCA
S1130820D22FD07F8D2B802BE2E5FEE38083D0E1B5
S11308302D9F90011124CE2DD0E0CC0FDD1FC22BB3
S1130840C12BC1839091153E89131EC09091163E11
S1130850C9131CC02091383E9091173E291318C02B
S11308602091373E9091183E291314C02091363EB2
S11308709091193E291310C02091353E90911A3E53
S1130880291761F021E00BC021E009C021E007C075
S113089021E005C021E003C021E001C020E0922F47
S11308A0917090931E3E911103C090911D3E01C022
S11308B094E190931D3E992309F44EC00CE01EE38D
S11308C0F8018187C287E7E3FEE38181D8011B96A3
S11308D08C931B9780811C968C931C97E5E3FEE315
S11308E081811D968C931D9780811E968C9385E142
S11308F09EE37BD2E8018F8788D2882331F08091F0
S11309001D3E8F5F80931D3E05C080911D3E81502A
S113091080931D3E2091043E3091053E4091063E59
S11309205091073E6091083E7091093E80910A3EC5
S113093090910B3EACEEC6D52093043E3093053E19
S11309404093063E5093073E6093083E7093093EE1
S113095080930A3E90930B3EE0E5F0E08081897F2E
S113096084608083F8948081816080837894889502
S113097080818E7F8083F8942091043E3091053EDF
S11309804091063E5091073E6091083E7091093EA9
S113099080910A3E90910B3EA2EE94D52093043EA2
S11309A03093053E4093063E5093073E6093083EC5
S11309B07093093E80930A3E90930B3E1399DECCCC
S11309C041E068ED81E490E0F7D0D8CCE0E0F6E0D7
S11309D080E1828381E0808380E00895E0E0F6E0B6
S11309E08081816080830895E0E0F6E080818E7FDD
S11309F080830895E0E0F6E0868381E080870895AF
S1130A0080910B06817008958091100690911106D3
S1130A100895F0DFF5DF8823E9F3F6DFE0E0F6E0A0
S1130A20238521602387089580E0089543E068EDDD
S1130A3081E690E0C1D080E00895789480E0089544
S1130A4080E008C0E82FF0E0E05FFB4F9081986001
S1130A5090838F5F8830B0F380E008C0E82FF0E027
S1130A60E05DFB4F9081986090838F5F8830B0F396
S1130A7080E008C0E82FF0E0E05BFB4F90819860D5
S1130A8090838F5F8830B0F30895E6E1F4E08081CD
S1130A90887F846080838081877F8083E0E3F4E0C3
S1130AA08081887F846080838081877F80838EDFDC
S1130AB0089562D00895C4DF80B1877F80B9E3E1EF
S1130AC0F4E080818860808380B18F7E80B9E4E126
S1130AD0F4E080818860808380B18F7D80B9E5E116
S1130AE0F4E080818860808381B18F7781B980B19F
S1130AF0806880B984B18D7F84B9E1E3F4E08081BA
S1130B00877F808384B18F7E84B9E4E3F4E08081BD
S1130B108860808384B18F7D84B9E5E3F4E08081CB
S1130B208860808388B18D7F88B9E1E5F4E08081B5
S1130B308860808388B18B7F88B9E2E5F4E08081A6
S1130B408860808389B1877F89B988B1886088B9D2
S1130B5089B18F7E89B988B1806188B989B18F7D67
S1130B6089B988B1806288B961DF2AD08EDFA1DFBC
S1130B7064DF3CD059DF089580E008959C5EFC0159
S1130B80808108951F93CF93DF93EC01162F8091FA
S1130B90021081FDFCCF44E06DE980E090E10CD0CF
S1130BA0DC5E188343E06DE980E090E105D080E0ED
S1130BB0DF91CF911F910895FC0164BF4083089594
S1130BC0809141018111FCCFE0E4F1E088E780836A
S1130BD081E08783809151018111FCCFE0E4F1E051
S1130BE089E4808B81E0828B80E0089585E08093A6
S1130BF0500080E0089590E811C029B1277F29B9F9
S1130C00292F282321F029B1206129B903C029B152
S1130C102F7E29B9969529B1286029B99111EDCF74
S1130C2089B1877F89B90895CF92DF92EF92FF92BD
S1130C306A017B01882319F0813021F016C080E01D
S1130C40DADF0AC0DB01CA0188279927A770BB270E
S1130C50BC01CD018861CFDF8D2DCDDF8C2DCBDFA5
S1130C6089B18F7E89B980E001C081E0FF90EF9067
S1130C70DF90CF90089589B18F7D89B983ED90E39A
S1130C800197F1F700C0000089B1806289B9089525
S1130C9090E04AC09C01220F331F220F331F220F02
S1130CA0331FE091E73EF091E83EE80FF91F4081E1
S1130CB0441F4427441FD901AC5AB14C4C93408182
S1130CC046FB442740F9D901AB5AB14C4C934081BF
S1130CD045FB442740F9D901AA5AB14C4C934081B1
S1130CE042954170D901A95AB14C4C93408143FBC0
S1130CF0442740F9D901A85AB14C4C93408142FB96
S1130D00442740F9D901A75AB14C4C9340814695E8
S1130D104170D901A65AB14C4C9340814170F901FC
S1130D20E55AF14C408301962091E63E30E082176B
S1130D30930708F4AFCF0895E4EDFEE3838B948B1F
S1130D40628B80E88093513E80E0A2DF80E00895CA
S1130D50FF920F931F93CF93DF938C01F62EC42F32
S1130D608ADFE4EDFEE3108A118A1686178680E096
S1130D7090E28487958780E098E082879387108645
S1130D8011861682178284E090E08483958387E23B
S1130D9096E6A4E0B0E080839183A283B38384E0E9
S1130DA098E2858B968B4C2F50E0D801A40FB51F89
S1130DB09C919A012F5F3F4F200F311F4E5F5F4F71
S1130DC0D801A40FB51FE901888189279C9189273F
S1130DD09BED8927878B6F2DC801AEDF80E0DF9103
S1130DE0CF911F910F91FF900895FC018091EB3EEC
S1130DF050814181328123819481658185278427B3
S1130E0083278227892786270895CF93DF93C4ED0C
S1130E10DEE34D895E8950684D8B5E8B60E070E047
S1130E2080E002DF488159816A817B8181E0FCDEB8
S1130E308D899E899F778D8B9E8B8091E0948D5FA9
S1130E4027DF80E090E005C020E12A95F1F700C09B
S1130E500196529903C08C3D9105B0F38C3D9105E8
S1130E60D8F023C0FC01EC5AF14C2081222321F05C
S1130E7029B1206129B903C029B12F7E29B92AE0FB
S1130E802A95F1F700C0FC01EC5AF14C20812111A4
S1130E9001C00000019602C080E090E02091513E24
S1130EA030E082179307F0F203C0E5DE81E009C069
S1130EB04091E93E5091EA3E60E070E080E0B4DEAB
S1130EC080E0DF91CF91089591B19F7791B9882304
S1130ED019F0813089F160C0662321F085B1826008
S1130EE085B903C085B18D7F85B984B1826084B929
S1130EF08AE080930606613021F081B1806481B973
S1130F0003C081B18F7B81B980B1806480B985E0F1
S1130F108A95F1F780B18F7B80B986E07ADD2AE08B
S1130F202093060624B12D7F24B921B12F7B21B94A
S1130F3020B1206420B90895662321F085B1826030
S1130F4085B903C085B18D7F85B984B1826084B9C8
S1130F508AE080930606613021F085B1816085B90D
S1130F6003C085B18E7F85B984B1816084B985E081
S1130F708A95F1F784B18E7F84B98BE04ADD2AE04B
S1130F802093060624B12D7F24B925B12E7F25B9DF
S1130F9024B1216024B9089580E090E00895505868
S1130FA0BB27AA270E94E7070C94BB090E94AD093E
S1130FB038F00E94B40920F039F49F3F19F426F464
S1130FC00C949A090EF4E095E7FB0C949409E92F2C
S1130FD00E94CC0958F3BA17620773078407950770
S1130FE020F079F4A6F50C94EE090EF4E0950B2E9E
S1130FF0BA2FA02D0B01B90190010C01CA01A00167
S11310001124FF27591B99F0593F50F4503E68F1C1
S11310101A16F040A22F232F342F4427585FF3CF02
S1131020469537952795A795F0405395C9F77EF4D3
S11310301F16BA0B620B730B840BBAF09150A1F01C
S1131040FF0FBB1F661F771F881FC2F70EC0BA0FA2
S1131050621F731F841F48F4879577956795B7952A
S1131060F7959E3F08F0B0CF9395880F08F0992725
S1131070EE0F9795879508950E9450080C94BB092C
S11310800E94B40958F00E94AD0940F029F45F3F72
S113109029F00C94940951110C94EF090C949A09B9
S11310A00E94CC0968F39923B1F3552391F3951B5E
S11310B0550BBB27AA2762177307840738F09F5F75
S11310C05F4F220F331F441FAA1FA9F335D00E2EE2
S11310D03AF0E0E832D091505040E695001CCAF74F
S11310E02BD0FE2F29D0660F771F881FBB1F261712
S11310F037074807AB07B0E809F0BB0B802DBF01E9
S1131100FF2793585F4F3AF09E3F510578F00C94B7
S113111094090C94EF095F3FE4F3983ED4F3869569
S113112077956795B795F7959F5FC9F7880F911DD8
S11311309695879597F90895E1E0660F771F881FC4
S1131140BB1F621773078407BA0720F0621B730B77
S1131150840BBA0BEE1F88F7E0950895BEE304D024
S113116008F490E80895BFE322273327A9010E94D9
S1131170D40960F19F5748F1B91740F1BFE3B91B97
S11311809927B8503AF4660F771F881F991FB395B3
S1131190D2F316C0B8504AF0232F342F452F562FC0
S11311A0672F782F8827B850BAF7B85F49F086952B
S11311B0779567955795479537952795BA95B9F7D4
S11311C016F40E949D0988940895889460E070E064
S11311D0CB0108950E94D40988F09F5798F0B92F45
S11311E09927B751B0F0E1F0660F771F881F991F58
S11311F01AF0BA95C9F714C0B13091F00E94EE0903
S1131200B1E008950C94EE09672F782F8827B85F12
S113121039F0B93FCCF3869577956795B395D9F7AF
S11312203EF490958095709561957F4F8F4F9F4FB9
S11312300895E89409C097FB3EF4909580957095C5
S113124061957F4F8F4F9F4F9923A9F0F92F96E90E
S1131250BB279395F695879577956795B795F11183
S1131260F8CFFAF4BB0F11F460FF1BC06F5F7F4F20
S11312708F4F9F4F16C0882311F096E911C0772332
S113128021F09EE8872F762F05C0662371F096E83B
S1131290862F70E060E02AF09A95660F771F881F0A
S11312A0DAF7880F9695879597F90895E894F92FBA
S11312B096EBFF2381F0121613061406440B939544
S11312C0F69587957795679557954040FF23B9F72D
S11312D01BC099270895882351F49850D2F7872B7F
S11312E0762F652F542F432F322F20E0B1F312169F
S11312F013061406440B88233AF09A95440F551F9D
S1131300661F771F881FCAF755234AF4440F551FD9
S113131011F460FF04C06F5F7F4F8F4F9F4F880FA2
S11313209695879597F9089597F99F6780E870E0F7
S113133060E008959FEF80EC0895909580957095F6
S1131340609550954095309521953F4F4F4F5F4F95
S11313506F4F7F4F8F4F9F4F089500240A941616A6
S1131360170618060906089500240A94121613068F
S1131370140605060895092E0394000C11F488231D
S113138052F0BB0F40F4BF2B11F460FF04C06F5F39
S11313907F4F8F4F9F4F089557FD9058440F551F0F
S11313A059F05F3F71F04795880F97FB991F61F0E3
S11313B09F3F79F087950895121613061406551F5A
S11313C0F2CF4695F1DF08C0161617061806991FC6
S11313D0F1CF86957105610508940895E894BB27BB
S11313E066277727CB0197F908950E94080A0C9481
S11313F0BB090E94AD0938F00E94B40920F095237E
S113140011F00C9494090C949A0911240C94EF098A
S11314100E94CC0970F3959FC1F3950F50E0551FBE
S1131420629FF001729FBB27F00DB11D639FAA2735
S1131430F00DB11DAA1F649F6627B00DA11D661F84
S1131440829F2227B00DA11D621F739FB00DA11DA5
S1131450621F839FA00D611D221F749F3327A00D5F
S1131460611D231F849F600D211D822F762F6A2FFB
S113147011249F5750409AF0F1F088234AF0EE0F60
S1131480FF1FBB1F661F771F881F91505040A9F78D
S11314909E3F510580F00C9494090C94EF095F3F32
S11314A0E4F3983ED4F3869577956795B795F795C9
S11314B0E7959F5FC1F7FE2B880F911D9695879541
S11314C097F908950024A7FD00942A0F301D401DAC
S11314D0501D601D701D801D901D0895F894FFCF50
S10414E00601
S11314E151C3000040AC270000000000AAAA1EAAB4
S10F14F155E100000000000000000000B5
S9030000FC
