:1000000019C033C032C043C030C02FC02EC030C072
:100010002CC02BC02AC029C028C027C026C025C09C
:1000200024C023C022C021C020C01FC01EC01DC0CC
:100030001CC01BC011241FBECFEFCDBFDFE3DEBF4E
:100040001EE3A0E0BEE3E9ECFFE002C005900D92E4
:10005000AA37B107D9F72FE3AAE7BEE301C01D9283
:10006000AC36B207E1F729D0ADC7CACF4AD308955D
:100070001F920F920FB60F9211248F9381E08093FD
:1000800053018F910F900FBE0F901F9018951F92E4
:100090000F920FB60F9211248F938FEF8093090464
:1000A0008F910F900FBE0F901F9018958160E0E424
:1000B000F1E0808B81E0838B0895D8DF80E090E0D1
:1000C00083D3C82F883008F0C7E0C0937A3E2091D0
:1000D000053E3091063E4091073E5091083E6091AA
:1000E000093E70910A3E80910B3E90910C3ED2D514
:1000F0006B017C016C2F70E080E090E08ED59B015D
:10010000AC01C701B60136D651D503E036D72093EE
:10011000053E3093063E4093073E5093083E609361
:10012000093E70930A3E80930B3E90930C3E89B13A
:100130008F7E89B980910B11EFE5FEE38683809174
:100140000C11878346E06AE1CF0155D48091013ECE
:100150009091023EA091033EB091043E81389145BA
:10016000A140B105D0F12091053E3091063E40916D
:10017000073E5091083E6091093E70910A3E809181
:100180000B3E90910C3E03E0DDD6A12C0F2EF4E443
:10019000BF2EF02D0F2EF6EECF2EF02D0F2EFDE2FE
:1001A000DF2EF02D6894EE24E1F8F12C00E010E051
:1001B0007FD6622F283008F067E060937A3E80E0B7
:1001C00090E006D31092013E1092023E1092033E40
:1001D0001092043E8FE3809340008091013E909105
:1001E000023EA091033EB091043E0196A11DB11DB7
:1001F0008093013E9093023EA093033EB093043E51
:1002000004E114E0F801808188608083C4E3D4E0D5
:10021000888188608883A5E1B4E08C9188608C93A4
:1002200065E374E0FB0180818860808380B18F7E0C
:1002300080B984B18F7E84B980B18F7D80B984B15B
:100240008F7D84B982B182958F7091E0892781700A
:1002500046B142954F704927417022B122952695AB
:1002600027702927217036B132953695377093273C
:1002700091703091803E322B3093803E30917F3EA2
:10028000392B30937F3EF8013081377F30833881BE
:10029000377F38833C91377F3C93FB013081377F38
:1002A000308331B13F7E31B935B13F7E35B931B19F
:1002B0003F7D31B935B13F7D35B930B1306130B9AD
:1002C00034B1306134B930B1306230B934B13062F8
:1002D00034B9F4E62F9FB00111242091803E269F6F
:1002E0004001279F900C1124092C000CAA08BB0880
:1002F000EDE0FEE380829182A282B382A0917B3EF8
:10030000C788D08CE18CF28C31E0C814D904EA049F
:10031000FB0409F430E03A2BCDE0DEE38F8A988EBF
:10032000A98EBA8E54E6959FB0011124E0917F3ECC
:10033000F0E06E9F60016F9FD00C7E9FD00C112467
:100340000D2C000CEE08FF08CFA2D8A6E9A6FAA64D
:1003500040904B3E50904C3E60904D3E70904E3ED3
:10036000A1E04C145D046E047F0409F4A0E0A32B0B
:10037000A0937B3EC0924B3ED0924C3EE0924D3ECD
:10038000F0924E3E1091673E90914000992311F0FB
:10039000B0E801C0B0E0C0917A3E90E1C99FE001B1
:1003A000112450E0440F551F440F551F440F551F93
:1003B000682F70E0CB01880F991F880F991FEE0FEF
:1003C000FF1F4870582F5470452B3E2F3270842FDA
:1003D000832B2170982F922BC077CB2B892F8C2BBE
:1003E0008093833E91E0181301C090E0A92B21F087
:1003F00090915E3E993048F020915C3E30915D3E98
:10040000232B29F090915E3E03C090E101C090E162
:1004100090935E3E20915C3E30915D3E211531050A
:1004200029F0992331F04CE251E005C04CE251E053
:1004300002C041E050E0241B350B20935C3E30931A
:100440005D3E10927B3E992399F120917E3E2111D1
:100450002FC090917C3E933010F130917D3E432F20
:1004600050E0FA01E859F14C9082FA01E759F14C59
:100470008082FA01E059F14CD082FA01EF58F14C38
:10048000C082363018F0432F419501C042E0340F4E
:1004900030937D3E311101C021E020937E3E9630A5
:1004A00018F0292F219501C021E0920F90937C3EF6
:1004B00090915B3E911153C090917E3E992309F437
:1004C0004EC0CFE5DEE3888787E69EE3D7D2898FEB
:1004D00009D390915E3E811102C021E001C02FEF4F
:1004E000921B90935E3E882319F080917E3E01C05E
:1004F00080E080937E3EE0E1F0E00090003E02C0AC
:10050000F595E7950A94E2F71F2F110F110B209133
:10051000053E3091063E4091073E5091083E609165
:10052000093E70910A3E80910B3E90910C3EAE2E9A
:10053000BF2EC12ED12EE12EF12E012F3AD52093C0
:10054000053E3093063E4093073E5093083E60932D
:10055000093E70930A3E80930B3E90930C3E80912F
:100560005B3E811146C0C0E5D0E08881897F846010
:100570008883F8941092003E88E398DD888181603A
:1005800088837894889588818E7F8883F8940090FA
:10059000003E02C0D595C7950A94E2F71D2F110FB2
:1005A000110B2091053E3091063E4091073E50913F
:1005B000083E6091093E70910A3E80910B3E9091F9
:1005C0000C3EAC2EBD2EC12ED12EE12EF12E012FD0
:1005D000F0D42093053E3093063E4093073E50935F
:1005E000083E6093093E70930A3E80930B3E9093C1
:1005F0000C3E80B1877F80B9139B0BC024C0E3E21F
:10060000F4EF3197F1F700C000008AB180618AB938
:1006100001C094E6139902C0915089F791110EC060
:1006200064E680E090E0D4D08091021081FDFCCFA0
:1006300089E698E10197F1F700C0000041E068ED1C
:1006400081E490E0DFD0E3E1F4E0808188608083A2
:1006500080915B3E91E0811101C090E0891B809305
:100660005B3E74CDE0E0F6E082E5828381E080834A
:1006700080E0089580E0089543E068ED81E690E031
:10068000C1D080E00895789480E0089580E008C0AB
:10069000E82FF0E0E05FFB4F9081986090838F5FE0
:1006A0008830B0F380E008C0E82FF0E0E05DFB4F59
:1006B0009081986090838F5F8830B0F380E008C0AD
:1006C000E82FF0E0E05BFB4F9081986090838F5FB4
:1006D0008830B0F30895E6E1F4E08081887F84609B
:1006E00080838081877F8083E0E3F4E08081887F5E
:1006F000846080838081877F8083B4DF089562D0A7
:100700000895C4DF80B1877F80B9E3E1F4E08081A0
:100710008860808380B18F7E80B9E4E1F4E08081DD
:100720008860808380B18F7D80B9E5E1F4E08081CD
:100730008860808381B18F7781B980B1806880B90A
:1007400084B18D7F84B9E1E3F4E08081877F808389
:1007500084B18F7E84B9E4E3F4E080818860808393
:1007600084B18F7D84B9E5E3F4E080818860808383
:1007700088B18D7F88B9E1E5F4E08081886080836D
:1007800088B18B7F88B9E2E5F4E08081886080835E
:1007900089B1877F89B988B1886088B989B18F7E2E
:1007A00089B988B1806188B989B18F7D89B988B1EB
:1007B000806288B961DF2AD08EDFA1DF64DF3CD0A0
:1007C00059DF089580E008959C5EFC0180810895C2
:1007D0001F93CF93DF93EC01162F8091021081FDC0
:1007E000FCCF44E06DE980E090E10CD0DC5E188342
:1007F00043E06DE980E090E105D080E0DF91CF91AA
:100800001F910895FC0164BF4083089580914101C8
:100810008111FCCFE0E4F1E088E7808381E0878309
:10082000809151018111FCCFE0E4F1E089E4808BFB
:1008300081E0828B80E0089585E08093500080E025
:10084000089590E811C029B1277F29B9292F2823BD
:1008500021F029B1206129B903C029B12F7E29B91E
:10086000969529B1286029B99111EDCF89B1877F7B
:1008700089B90895CF92DF92EF92FF926A017B01CE
:10088000882319F0813021F016C080E0DADF0AC039
:10089000DB01CA0188279927A770BB27BC01CD01BE
:1008A0008861CFDF8D2DCDDF8C2DCBDF89B18F7EA1
:1008B00089B980E001C081E0FF90EF90DF90CF9098
:1008C000089589B18F7D89B986EA8A95F1F700C0CC
:1008D00089B1806289B9089590E076C09C01220FA9
:1008E000331F220F331F220F331FE091673FF09118
:1008F000683FE80FF91F408144231CF449B140616F
:1009000002C049B14F7ED901AC57B14C4C93D901CB
:100910001196408146FF03C049B1406102C049B110
:100920004F7EAC57B14C4C93D9011296408145FF94
:1009300003C049B1406102C049B14F7EAC57B14CD0
:100940004C93D9011396408144FF03C049B14061E3
:1009500002C049B14F7EAC57B14C4C93D9011496AB
:10096000408143FF03C049B1406102C049B14F7E9D
:10097000AC57B14C4C93D9011596408142FF03C04E
:1009800049B1406102C049B14F7EAC57B14C4C9364
:10099000D9011696408141FF03C049B1406102C0B0
:1009A00049B14F7EAC57B14C4C93295F3F4F4081CA
:1009B00040FF03C049B1406102C049B14F7EF90117
:1009C000EC57F14C408301962091663F30E082174E
:1009D000930708F483CF0895E4E5FFE3838B948BBA
:1009E000628B80ED90E08093813E9093823E80E028
:1009F00073DF80E008950F931F93CF93DF938C01F3
:100A0000D62FC42F5EDFE4E5FFE3108A118A168635
:100A1000178680E090E28487958780E098E082875F
:100A20009387108611861682178284E090E0848373
:100A3000958387E296E6A4E0B0E080839183A28369
:100A4000B38384E098E2858B968B4C2F50E0D801DD
:100A5000A40FB51F9C914F5F5F4FD801A40FB51F26
:100A60008C9189279BED8927878B6D2FC801B4DF77
:100A700080E0DF91CF911F910F910895DF92EF9267
:100A8000FF920F931F93CF93DF93FC01D0906B3FA6
:100A90008081E180F28003811481D581C681B78194
:100AA000A085718562855385448535852685978522
:100AB000E0898D258E258F25802781278D278C27FE
:100AC0008B278A27872786278527842783278227BE
:100AD00089278E27DF91CF911F910F91FF90EF9083
:100AE000DF9008951F93CF93DF93C4E5DFE34D8933
:100AF0005E8950684D8B5E8B60E070E080E0BADE0E
:100B0000182F488159816A817B8181E0B3DE182BDF
:100B10008D899E899F778D8B9E8B8091C88F8E5FEC
:100B2000DBDEE2E5F4E080818860808320E030E075
:100B300006C080E18A95F1F700C02F5F3F4F5299C0
:100B400003C02C3D3105A8F32C3D310508F011E020
:100B5000E2E5F4E08081877F80832C3D310578F0E9
:100B600011E016C0F901EC57F14C908199B99081D0
:100B70009F7E11F4000000002F5F3F4F02C020E075
:100B800030E04091813E5091823E2417350750F36A
:100B900089B18F7E89B995DE812FDF91CF911F9129
:100BA0000895BEE304D008F490E80895BFE3222737
:100BB0003327A9010E94A00660F19F5748F1B91799
:100BC00040F1BFE3B91B9927B8503AF4660F771F7D
:100BD000881F991FB395D2F316C0B8504AF0232F3F
:100BE000342F452F562F672F782F8827B850BAF704
:100BF000B85F49F0869577956795579547953795EE
:100C00002795BA95B9F716F40E9488068894089536
:100C1000889460E070E0CB010895E89409C097FBE8
:100C20003EF490958095709561957F4F8F4F9F4FC3
:100C30009923A9F0F92F96E9BB279395F695879507
:100C400077956795B795F111F8CFFAF4BB0F11F4CA
:100C500060FF1BC06F5F7F4F8F4F9F4F16C0882371
:100C600011F096E911C0772321F09EE8872F762FA7
:100C700005C0662371F096E8862F70E060E02AF0E8
:100C80009A95660F771F881FDAF7880F96958795D4
:100C900097F90895E894F92F96EBFF2381F0121647
:100CA00013061406440B9395F695879577956795EB
:100CB00057954040FF23B9F71BC099270895882313
:100CC00051F49850D2F7872B762F652F542F432F4E
:100CD000322F20E0B1F3121613061406440B8823BA
:100CE0003AF09A95440F551F661F771F881FCAF761
:100CF00055234AF4440F551F11F460FF04C06F5F81
:100D00007F4F8F4F9F4F880F9695879597F908953E
:100D1000909580957095609550954095309521956A
:100D20003F4F4F4F5F4F6F4F7F4F8F4F9F4F0895F4
:100D300057FD9058440F551F59F05F3F71F047958C
:100D4000880F97FB991F61F09F3F79F08795089571
:100D5000121613061406551FF2CF4695F1DF08C090
:100D6000161617061806991FF1CF869571056105AD
:100D7000089408950E94CD060C943E070E94300707
:100D800038F00E94370720F0952311F00C942707C4
:100D90000C942D0711240C9450070E94980670F3B0
:100DA000959FC1F3950F50E0551F629FF001729F10
:100DB000BB27F00DB11D639FAA27F00DB11DAA1F1F
:100DC000649F6627B00DA11D661F829F2227B00D6C
:100DD000A11D621F739FB00DA11D621F839FA00DF7
:100DE000611D221F749F3327A00D611D231F849F47
:100DF000600D211D822F762F6A2F11249F5750409E
:100E00009AF0F1F088234AF0EE0FFF1FBB1F661F18
:100E1000771F881F91505040A9F79E3F510580F0E1
:100E20000C9427070C9450075F3FE4F3983ED4F3EB
:100E3000869577956795B795F795E7959F5FC1F785
:100E4000FE2B880F911D9695879597F9089597F930
:100E50009F6780E870E060E008959FEF80EC089560
:100E600000240A9416161706180609060895002489
:100E70000A9412161306140605060895092E039403
:100E8000000C11F4882352F0BB0F40F4BF2B11F477
:100E900060FF04C06F5F7F4F8F4F9F4F0895E894AE
:100EA000BB2766277727CB0197F90895689401C07F
:100EB000E8948F929F92CF93DF9305D0DF91CF91EB
:100EC0009F908F90089588249924F401E401B0E460
:100ED0001B2ED4019D158E049F04E007F10738F402
:100EE000FC014B01CA01B901AD019E011694220F0C
:100EF000331F441F551F661F771F881F991F881CAB
:100F0000991CEE1FFF1FCC1FDD1FAA1FBB1F8A14D9
:100F10009B04EC05FD05CE05DF05A007B10748F0F1
:100F20008A189B08EC09FD09CE09DF09A00BB10B5B
:100F300021601A94E1F62EF49401AF01BE01CD01B7
:100F4000000C08950F93083090F0982F872F762F7C
:100F5000652F542F432F322F22270850F4CF220F12
:100F6000331F441F551F661F771F881F991F0A953F
:100F7000B2F70F91089597FB10F8169400080F939D
:100F8000083098F00850232F342F452F562F672F05
:100F9000782F892F902DF4CF059497958795779585
:100FA000679557954795379527950A95AAF70F9115
:100FB00008952A193B094C095D096E097F09800BC8
:080FC000910B0895F894FFCF96
:010FC8000622
:100FC90003815101000044E62D02000000000000E9
:100FD900000000000001000000000003E2FFFFFF25
:100FE9000A000000000000000000000000000000EE
:100FF90000000203000000000000000001000000E2
:10100900000003E2FFFFFF0A0000000000000000EB
:1010190000000000000000000002030A2C0110AAD1
:10102900AA1EAA55E100000000000000000000000F
:0A10390000000000000000000000AD
:00000001FF
