S010000041574855424144432E73726563D5
S113000019C033C032C043C030C02FC02EC030C06E
S11300102CC02BC02AC029C028C027C026C025C098
S113002024C023C022C021C020C01FC01EC01DC0C8
S11300301CC01BC011241FBECFEFCDBFDFE3DEBF4A
S11300401EE3A0E0BEE3E1E7F1E102C005900D92FA
S1130050A43AB107D9F72FE3A4EABEE301C01D9285
S1130060AE39B207E1F729D081C8CACFDED30895EB
S11300701F920F920FB60F9211248F9381E08093F9
S113008053018F910F900FBE0F901F9018951F92E0
S11300900F920FB60F9211248F938FEF8093090460
S11300A08F910F900FBE0F901F9018958160E0E420
S11300B0F1E0808B81E0838B0895D8DF80E090E0CD
S11300C017D4C82F883008F0C7E0C093A43E20910D
S11300D0053E3091063E4091073E5091083E6091A6
S11300E0093E70910A3E80910B3E90910C3E0BD7D5
S11300F06B017C016C2F70E080E090E0C7D69B011F
S1130100AC01C701B6019ED75BD603E00AD82093A1
S1130110053E3093063E4093073E5093083E60935D
S1130120093E70930A3E80930B3E90930C3E89B136
S11301308F7E89B980910B11E9E8FEE38683809173
S11301400C11878346E06BE1CF01E9D48091013E35
S11301509091023EA091033EB091043E81389145B6
S1130160A140B10578F12091053E3091063E4091C1
S1130170073E5091083E6091093E70910A3E80917D
S11301800B3E90910C3EBFD621E939E74BE050E598
S1130190A0D520E030E040E151E454D748D668309F
S11301A008F067E06093A43E80E090E0A5D310924D
S11301B0013E1092023E1092033E1092043E8FE3E1
S11301C0809340008091013E9091023EA091033EB5
S11301D0B091043E0196A11DB11D8093013E909300
S11301E0023EA093033EB093043EE4E1F4E0808138
S11301F088608083E4E3F4E0808188608083E5E1C3
S1130200F4E0808188608083E5E3F4E080818860A5
S1130210808380B18F7E80B984B18F7E84B980B1B0
S11302208F7D80B984B18F7D84B962B162956F701E
S113023081E06827617056B152955F7058275170FC
S113024042B14295469547704827417026B12295A0
S1130250269527702827217084E61CC092B19295B8
S11302609F7081E098279170690F96B192959F7065
S113027098279170590F92B19295969597709827F7
S11302809170490F96B192959695977089278170D0
S1130290280F832F3FEF380F8111E0CFD1E06C346A
S11302A008F4D0E061E05C3408F460E081E04C34B0
S11302B008F480E0382FE1E02C3408F4E0E09E2FCD
S11302C04C34A8F4ADE0BEE313964C9113974F5F02
S11302D013964C9313974530F0F01C92D4961D92CC
S11302E01D921D921C92D79711961C9214C0409196
S11302F0103E411104C040910D3E41110CC0ADE0CF
S1130300BEE313961C92139741E04C93DD964C93F5
S1130310DD9711964C932C34C8F4ADE0BEE3DF9620
S11303202C91DF972F5FDF962C93DF97253020F1F8
S1130330DC961C92DC9710927D3E10927E3E1092C9
S11303407F3E1092803EDD961C9216C020914C3E5A
S1130350211104C02091493E21110EC0ADE0BEE33D
S1130360DF961C92DF9721E0DC962C93DC97DD96D8
S11303702C93DD9711962C932091AA3E232B209346
S1130380AA3E2091A93E922B9093A93EA4E1B4E009
S11303909C91977F9C93A4E3B4E09C91977F9C935A
S11303A0A5E1B4E09C91977F9C93A5E3B4E09C9174
S11303B0977F9C9391B19F7E91B995B19F7E95B99A
S11303C091B19F7D91B995B19F7D95B990B190619F
S11303D090B994B1906194B990B1906290B994B18C
S11303E0906294B998EC899F900111249091AA3E4F
S11303F0929F4001939F900C1124092C000CAA0891
S1130400BB08ADE0BEE3D4968D929D92AD92BC92B2
S1130410D797F091A53E5C96CD90DD90ED90FC9041
S11304205F9781E0C814D904EA04FB0409F480E06E
S11304308F2B8092293E90922A3EA0922B3EB0921E
S11304402C3E28ECE29FF00111242091A93E30E0DB
S1130450E29F6001E39FD00CF29FD00C11240D2C7D
S1130460000CEE08FF08C0927D3ED0927E3EE092E2
S11304707F3EF092803E4090653E5090663E609094
S1130480673E7090683EF1E04C145D046E047F0496
S113049009F4F0E0F82BF093A53EC092653ED092AB
S11304A0663EE092673EF092683EC091913E809134
S11304B04000882311F0E0E801C0E0E0A091A43EF0
S11304C080E1A89FD001112470E0660F771F660FAA
S11304D0771F660F771F4D2F50E0440F551F440FB1
S11304E0551F220F331F862F8870342F3470382BFA
S11304F02270832F822B9170982B8A2F80778E2BDA
S1130500892B8093AD3E91E0C81301C090E0F92B94
S113051021F09091883E993048F02091863E3091A8
S1130520873E232B29F09091883E03C090E101C0BF
S113053090E19093883E2091863E3091873E21152C
S1130540310529F0992331F04CE251E005C04CE229
S113055051E002C041E050E0241B350B2093863E5D
S11305603093873E1092A53E992399F12091A83E9D
S113057021112FC09091A63E933010F13091A73EE7
S1130580432F50E0FA01ED56F14C9082FA01EC56FB
S1130590F14C8082FA01E556F14CD082FA01E4561E
S11305A0F14CC082363018F0432F419501C042E02F
S11305B0340F3093A73E311101C021E02093A83EAF
S11305C0963018F0292F219501C021E0920F9093C5
S11305D0A63E9091853E911156C09091A83E9923D4
S11305E009F451C0C9E8DEE3888780911D3E8987FC
S11305F081E99EE3D7D28A8F0DD39091883E8111F1
S113060002C021E001C02FEF921B9093883E882303
S113061019F08091A83E01C080E08093A83EE0E1FB
S1130620F0E00090003E02C0F595E7950A94E2F7E9
S11306301F2F110F110B2091053E3091063E409162
S1130640073E5091083E6091093E70910A3E8091A8
S11306500B3E90910C3EAE2EBF2EC12ED12EE12E1C
S1130660F12E012F7AD52093053E3093063E409318
S1130670073E5093083E6093093E70930A3E809370
S11306800B3E90930C3E8091853E811146C0C0E59F
S1130690D0E08881897F84608883F8941092003E3A
S11306A088E304DD888181608883789488958881D3
S11306B08E7F8883F8940090003E02C0D595C7953C
S11306C00A94E2F71D2F110F110B2091053E309172
S11306D0063E4091073E5091083E6091093E70915C
S11306E00A3E80910B3E90910C3EAC2EBD2EC12E45
S11306F0D12EE12EF12E012F30D52093053E3093DB
S1130700063E4093073E5093083E6093093E709323
S11307100A3E80930B3E90930C3E80B1877F80B954
S1130720139B0BC024C0E3E2F4EF3197F1F700C050
S113073000008AB180618AB901C094E6139902C0AD
S1130740915089F791110EC064E680E090E0D4D016
S11307508091021081FDFCCF89E698E10197F1F7C1
S113076000C0000041E068ED81E490E0DFD0E3E107
S1130770F4E08081886080838091853E91E08111DE
S113078001C090E0891B8093853EE0CCE0E0F6E078
S113079082E5828381E0808380E0089580E008958B
S11307A043E068ED81E690E0C1D080E0089578945C
S11307B080E0089580E008C0E82FF0E0E05FFB4FA0
S11307C09081986090838F5F8830B0F380E008C098
S11307D0E82FF0E0E05DFB4F9081986090838F5F9D
S11307E08830B0F380E008C0E82FF0E0E05BFB4F16
S11307F09081986090838F5F8830B0F30895E6E12C
S1130800F4E08081887F846080838081877F808317
S1130810E0E3F4E08081887F846080838081877F47
S11308208083B4DF089562D00895C4DF80B1877FE8
S113083080B9E3E1F4E080818860808380B18F7EB9
S113084080B9E4E1F4E080818860808380B18F7DA9
S113085080B9E5E1F4E080818860808381B18F779D
S113086081B980B1806880B984B18D7F84B9E1E3B6
S1130870F4E08081877F808384B18F7E84B9E4E350
S1130880F4E080818860808384B18F7D84B9E5E35E
S1130890F4E080818860808388B18D7F88B9E1E548
S11308A0F4E080818860808388B18B7F88B9E2E539
S11308B0F4E080818860808389B1877F89B988B1B9
S11308C0886088B989B18F7E89B988B1806188B917
S11308D089B18F7D89B988B1806288B961DF2AD0F6
S11308E08EDFA1DF64DF3CD059DF089580E00895F6
S11308F09C5EFC01808108951F93CF93DF93EC01EC
S1130900162F8091021081FDFCCF44E06DE980E058
S113091090E10CD0DC5E188343E06DE980E090E167
S113092005D080E0DF91CF911F910895FC0164BF51
S113093040830895809141018111FCCFE0E4F1E00E
S113094088E7808381E08783809151018111FCCF06
S1130950E0E4F1E089E4808B81E0828B80E008951B
S113096085E08093500080E0089590E811C029B19B
S1130970277F29B9292F282321F029B1206129B9FA
S113098003C029B12F7E29B9969529B1286029B9C8
S11309909111EDCF89B1877F89B90895CF92DF9204
S11309A0EF92FF926A017B01882319F0813021F0D4
S11309B016C080E0DADF0AC0DB01CA018827992764
S11309C0A770BB27BC01CD018861CFDF8D2DCDDFA2
S11309D08C2DCBDF89B18F7E89B980E001C081E0A5
S11309E0FF90EF90DF90CF90089589B18F7D89B902
S11309F086EA8A95F1F700C089B1806289B90895C1
S1130A0090E076C09C01220F331F220F331F220F68
S1130A10331FE091993FF0919A3FE80FF91F40810D
S1130A2044231CF449B1406102C049B14F7ED9014D
S1130A30A255B14C4C93D9011196408146FF03C095
S1130A4049B1406102C049B14F7EA255B14C4C93AB
S1130A50D9011296408145FF03C049B1406102C0EB
S1130A6049B14F7EA255B14C4C93D90113964081A4
S1130A7044FF03C049B1406102C049B14F7EA25551
S1130A80B14C4C93D9011496408143FF03C049B142
S1130A90406102C049B14F7EA255B14C4C93D9017B
S1130AA01596408142FF03C049B1406102C049B17B
S1130AB04F7EA255B14C4C93D9011696408141FF0B
S1130AC003C049B1406102C049B14F7EA255B14C47
S1130AD04C93295F3F4F408140FF03C049B14061BF
S1130AE002C049B14F7EF901E255F14C40830196B1
S1130AF02091983F30E08217930708F483CF08953C
S1130B00E6E8FFE3838B948B628B88ED90E080931F
S1130B10AB3E9093AC3E80E073DF80E008950F938A
S1130B201F93CF93DF938C01D62FC42F5EDFE6E8AB
S1130B30FFE3108A118A1686178680E090E2848784
S1130B40958780E098E082879387108611861682C5
S1130B50178284E090E08483958387E296E6A4E09C
S1130B60B0E080839183A283B38384E098E2858B91
S1130B70968B4C2F50E0D801A40FB51F9C914F5F6A
S1130B805F4FD801A40FB51F8C9189279BED89274E
S1130B90878B6D2FC801B4DF80E0DF91CF911F9167
S1130BA00F910895CF92DF92EF92FF920F931F93CC
S1130BB0CF93DF93FC01C0909D3F8081D180E28080
S1130BC0F38004811581D681C781B085A1857285A2
S1130BD0638554854585368527859089E1898C25EB
S1130BE08D258E258F25802781278D278C278B2780
S1130BF08A2787278627852784278327822789278B
S1130C008E27DF91CF911F910F91FF90EF90DF908E
S1130C10CF9008951F93CF93DF93C6E8DFE34D8908
S1130C205E8950684D8B5E8B60E070E080E0B6DEDC
S1130C30182F488159816A817B8181E0AFDE182BAE
S1130C408D899E899F778D8B9E8B809170918E5F0D
S1130C50D7DEE2E5F4E080818860808320E030E044
S1130C6006C080E18A95F1F700C02F5F3F4F52998B
S1130C7003C02C3D3105A8F32C3D310508F011E0EB
S1130C80E2E5F4E08081877F80832C3D310578F0B4
S1130C9011E016C0F901E255F14C908199B99081A7
S1130CA09F7E11F4000000002F5F3F4F02C020E040
S1130CB030E04091AB3E5091AC3E2417350750F3E1
S1130CC089B18F7E89B991DE812FDF91CF911F91F8
S1130CD008950E947D060C94E8070E94E10758F0ED
S1130CE00E94DA0740F029F45F3F29F00C94C10711
S1130CF051110C941C080C94C7070E94F90768F35F
S1130D009923B1F3552391F3951B550BBB27AA27C0
S1130D1062177307840738F09F5F5F4F220F331FFA
S1130D20441FAA1FA9F335D00E2E3AF0E0E832D0C2
S1130D3091505040E695001CCAF72BD0FE2F29D0C5
S1130D40660F771F881FBB1F261737074807AB0797
S1130D50B0E809F0BB0B802DBF01FF2793585F4F0C
S1130D603AF09E3F510578F00C94C1070C941C088E
S1130D705F3FE4F3983ED4F3869577956795B795EE
S1130D80F7959F5FC9F7880F911D9695879597F9F9
S1130D900895E1E0660F771F881FBB1F6217730772
S1130DA08407BA0720F0621B730B840BBA0BEE1F87
S1130DB088F7E0950895BEE304D008F490E8089518
S1130DC0BFE322273327A9010E94010860F19F573E
S1130DD048F1B91740F1BFE3B91B9927B8503AF469
S1130DE0660F771F881F991FB395D2F316C0B850AA
S1130DF04AF0232F342F452F562F672F782F88271B
S1130E00B850BAF7B85F49F08695779567955795C6
S1130E10479537952795BA95B9F716F40E94CA07EE
S1130E2088940895889460E070E0CB0108950E944E
S1130E30010888F09F5798F0B92F9927B751B0F05F
S1130E40E1F0660F771F881F991F1AF0BA95C9F74A
S1130E5014C0B13091F00E941B08B1E008950C94C5
S1130E601B08672F782F8827B85F39F0B93FCCF378
S1130E70869577956795B395D9F73EF490958095C7
S1130E80709561957F4F8F4F9F4F0895E89409C0E7
S1130E9097FB3EF490958095709561957F4F8F4FA9
S1130EA09F4F9923A9F0F92F96E9BB279395F695BF
S1130EB0879577956795B795F111F8CFFAF4BB0F3D
S1130EC011F460FF1BC06F5F7F4F8F4F9F4F16C0A1
S1130ED0882311F096E911C0772321F09EE8872F2B
S1130EE0762F05C0662371F096E8862F70E060E0E7
S1130EF02AF09A95660F771F881FDAF7880F969560
S1130F00879597F90895E894F92F96EBFF2381F0DC
S1130F10121613061406440B9395F6958795779548
S1130F20679557954040FF23B9F71BC0992708954B
S1130F30882351F49850D2F7872B762F652F542F9E
S1130F40432F322F20E0B1F3121613061406440B7C
S1130F5088233AF09A95440F551F661F771F881F00
S1130F60CAF755234AF4440F551F11F460FF04C017
S1130F706F5F7F4F8F4F9F4F880F9695879597F997
S1130F80089597F99F6780E870E060E008959FEF07
S1130F9080EC089590958095709560955095409556
S1130FA0309521953F4F4F4F5F4F6F4F7F4F8F4F7E
S1130FB09F4F089500240A9416161706180609066A
S1130FC0089500240A9412161306140605060895BB
S1130FD0092E0394000C11F4882352F0BB0F40F443
S1130FE0BF2B11F460FF04C06F5F7F4F8F4F9F4F83
S1130FF0089557FD9058440F551F59F05F3F71F005
S11310004795880F97FB991F61F09F3F79F087956B
S11310100895121613061406551FF2CF4695F1DFF4
S113102008C0161617061806991FF1CF8695710584
S1131030610508940895E894BB2766277727CB01B8
S113104097F908950E9435080C94E8070E94DA077E
S113105038F00E94E10720F0952311F00C94C107A9
S11310600C94C70711240C941C080E94F90770F310
S1131070959FC1F3950F50E0551F629FF001729F39
S1131080BB27F00DB11D639FAA27F00DB11DAA1F48
S1131090649F6627B00DA11D661F829F2227B00D95
S11310A0A11D621F739FB00DA11D621F839FA00D20
S11310B0611D221F749F3327A00D611D231F849F70
S11310C0600D211D822F762F6A2F11249F575040C7
S11310D09AF0F1F088234AF0EE0FFF1FBB1F661F42
S11310E0771F881F91505040A9F79E3F510580F00B
S11310F00C94C1070C941C085F3FE4F3983ED4F3AE
S1131100869577956795B795F795E7959F5FC1F7AE
S1131110FE2B880F911D9695879597F9089597FB57
S113112010F8169400080F93083098F00850232FF5
S1131130342F452F562F672F782F892F902DF4CFDA
S1131140059497958795779567955795479537951E
S113115027950A95AAF70F9108952A193B094C0976
S11311605D096E097F09800B910B0895F894FFCFF8
S10411700674
S113117103815101000044E62D0200000001010138
S1131181000000000600000000000002034000000F
S1131191000000000000000000000000000000004A
S11311A1000000000000000000E2FFFFFF0A000051
S11311B10000000000000000000101010000000027
S11311C106000000000000020340000000000000CF
S11311D1000000000000000000000000000000000A
S11311E10000000000E2FFFFFF0A00000000000011
S11311F100000000000A2C0110AAAA1EAA55E10051
S113120100000000000000000000000000000000D9
S107121100000000D5
S9030000FC
