S010000041574855424144432E73726563D5
S113000019C033C032C043C030C02FC02EC030C06E
S11300102CC02BC02AC029C028C027C026C025C098
S113002024C023C022C021C020C01FC01EC01DC0C8
S11300301CC01BC011241FBECFEFCDBFDFE3DEBF4A
S11300401EE3A0E0BEE3EBEBF7E102C005900D92E6
S1130050AA38B107D9F72FE3AAE8BEE301C01D927D
S1130060AC37B207E1F729D0A6CBCACF82D6089520
S11300701F920F920FB60F9211248F9381E08093F9
S113008053018F910F900FBE0F901F9018951F92E0
S11300900F920FB60F9211248F938FEF8093090460
S11300A08F910F900FBE0F901F9018958160E0E420
S11300B0F1E0808B81E0838B0895D8DF80E090E0CD
S11300C0BBD6C82F883008F0C7E0C0938A3E209181
S11300D0053E3091063E4091073E5091083E6091A6
S11300E0093E70910A3E80910B3E90910C3E1ADAC3
S11300F06B017C016C2F70E080E090E0D6D99B010D
S1130100AC01C701B601ADDA6AD903E023DB209361
S1130110053E3093063E4093073E5093083E60935D
S1130120093E70930A3E80930B3E90930C3E89B136
S11301308F7E89B980910B11EFE6FEE3868380916F
S11301400C11878346E06AE1CF018DD7EDE0FEE331
S11301502184328480AD91AD280E391E8091003EF9
S113016090E0019602C0369427948A95E2F7209194
S1130170053E3091063E4091073E5091083E609105
S1130180093E70910A3E80910B3E90910C3EA22C48
S1130190B32CC12CD12CE12CF12C00E010E0F6DAC8
S11301A02093053E3093063E4093073E5093083E0D
S11301B06093093E70930A3E80930B3E90930C3EED
S11301C0C090013ED090023EE090033EF090043E89
S11301D0E1E8CE16E1E5DE06E1E0EE06F104F8F032
S11301E0A1D921E939E74BE050E582D820E030E09D
S11301F040E151E436DA2AD9683008F067E06093C8
S11302008A3E80E090E01CD61092013E1092023E9D
S11302101092033E1092043E8FE38093400080913D
S1130220013E9091023EA091033EB091043E01969E
S1130230A11DB11D8093013E9093023EA093033E05
S1130240B093043EE4E1F4E0808188608083E4E3D9
S1130250F4E0808188608083E5E1F4E08081886057
S11302608083E5E3F4E080818860808380B18F7EC1
S113027080B984B18F7E84B980B18F7D80B984B117
S11302808F7D84B902B102950F7081E00827017057
S1130290B6B0B694B694B694B6948B258170B82E45
S11302A082B199249394282F207285FD912C86B1D4
S11302B0AA24A394982F907285FDA12C222369F07F
S11302C0EDE0FEE383818F5F83838530A8F01082A5
S11302D013A614A615A616A60FC08091103E811170
S11302E004C080910D3E811107C0EDE0FEE313824E
S11302F081E0808380AB8183992391F0EDE0FEE37C
S113030082A98F5F82AB8530D0F010923C3E109270
S1130310673E1092683E1092693E10926A3E0FC08A
S113032080913F3E811104C080913C3E811107C001
S1130330EDE0FEE312AA81E087A780AB8183E4E1CC
S1130340F4E08081877F8083E4E3F4E08081877F29
S11303508083E5E1F4E08081877F8083E5E3F4E056
S11303608081877F808381B18F7E81B985B18F7EC3
S113037085B981B18F7D81B985B18F7D85B980B112
S1130380806180B984B1806184B980B1806280B9B0
S113039084B1806284B961E080E03BD710E0ECC2B4
S11303A0C12FD0E08FE28C9FF0018D9FF00D1124BE
S11303B0E35FF14C8081882309F4DDC28FE28C9FD6
S11303C0F0018D9FF00D1124E35FF14C818592853E
S11303D080938F3E9093903E178E10A211A212A28A
S11303E020C060E0812F15D76B017C0161E0812F73
S11303F010D7C61AD70AE80AF90A8FE28C9FF001CF
S11304008D9FF00D1124E35FF14C878D90A1A1A184
S1130410B2A1C80ED91EEA1EFB1EC78ED0A2E1A24D
S1130420F2A280918F3E9091903E019780938F3EEF
S11304309093903E892BA9F68FE28C9FF0018D9FBB
S1130440F00D1124E35FF14C83899489A589B68961
S1130450F7809C01AD010F2C04C056954795379544
S113046027950A94D2F7A085B0E068D9478C50A0AC
S113047061A072A0440C551C661C771CA301920158
S113048004C05695479537952795FA94D2F7DC0121
S1130490CB01820F931FA41FB51F838B948BA58B55
S11304A0B68BC784D088E188F2888C199D09AE097F
S11304B0BF0983A794A7A5A7B6A743A054A065A086
S11304C076A084159505A605B705B4F48FE28C9F34
S11304D0F0018D9FF00D1124E35FF14C8389948921
S11304E0A589B6898787908BA18BB28B158213A6B9
S11304F014A615A616A6D6C12FE22C9FF0012D9F97
S1130500F00D1124E35FF14C218121114AC12FE246
S11305102C9FF0012D9FF00D1124E35FF14C4384D7
S1130520548465847684481659066A067B0638F432
S1130530181619061A061B0614F42C013D018FE245
S11305408C9FF0018D9FF00D1124E35FF14C4386E5
S113055054866586768685819681891718F0982F4A
S1130560919501C091E0890F9FE29C9FF0019D9FAE
S1130570F00D1124E35FF14C858381112DC08FE2CE
S11305808C9FF0018D9FF00D1124E35FF14C4385A6
S113059054856585768587A190A5A1A5B2A5481740
S11305A059076A077B07C0F42FE22C9FF0012D9FA7
S11305B0F00D1124E35FF14C4389548965897689F0
S11305C0840F951FA61FB71F8787908BA18BB28BB3
S11305D013A614A615A616A68FE28C9FF0018D9F74
S11305E0F00D1124E35FF14C8281882309F4A1C04A
S11305F09FE29C9FF0019D9FF00D1124E35FF14C5D
S113060043A554A565A576A5453651056105710533
S11306100CF48FC08FE28C9FF0018D9FF00D11249C
S1130620E35FF14C83859485A585B6858536910570
S1130630A105B10588F42FE22C9FF0012D9FF00D48
S11306401124E35FF14C438D548D658D768D452BDC
S1130650462B472B09F47DC02FE22C9FF0012D9FE0
S1130660F00D1124E35FF14C438D548D658D768D2F
S1130670481759076A077B0770F42C9FF0012D9FD8
S1130680F00D1124E35FF14C838F948FA58FB68F07
S11306908CE084835EC08FE28C9FF0018D9FF00D0F
S11306A01124E35FF14C8481882309F452C0815002
S11306B09FE29C9FF0019D9FF00D1124E35FF14C9C
S11306C08483811146C00F2EFDE0EF2EFEE3FF2E42
S11306D0F02D6F016185728580E090E0E6D620E020
S11306E030E048EC52E4BDD72B013C01F601638DA8
S11306F0748D858D968DD9D69B01AC01C301B20151
S1130700F7D5A4D6F70160AF71AF6187728711AADC
S113071012821092573E1092583E1092593E1092F7
S11307205A3E138E148E158E168E81E080AB818313
S113073010C0882371F08FE28C9FF0018D9FF00D23
S11307401124E35FF14C138E148E158E168E8CE0FB
S113075084838FE28C9FF0018D9FF00D1124E35F61
S1130760F14C8581882369F08FE28C9FF0018D9F85
S1130770F00D1124E35FF14C83859485A585B6853E
S113078003C080E090E0DC012FE22C9FF0012D9F5C
S1130790F00D1124E35FF14C83879487A587B68716
S11307A081C084159505A605B7056CF08FE28C9F72
S11307B0F0018D9FF00D1124E35FF14C838994893E
S11307C0A589B6890CC08FE28C9FF0018D9FF00D36
S11307D01124E35FF14C87859089A189B2892FE2C6
S11307E02C9FF0012D9FF00D1124E35FF14C8787BE
S11307F0908BA18BB28B858143A554A565A576A565
S113080014161506160617068CF09FE29C9FF0013D
S11308109D9FF00D1124E35FF14CC3A0D4A0E5A08B
S1130820F6A04C155D056E057F051CF4982F919577
S113083001C091E0890F9FE29C9FF0019D9FF00D04
S11308401124E35FF14C858396819695981750F0B7
S11308508FE28C9FF0018D9FF00D1124E35FF14C2A
S1130860818101C080E09FE29C9FF0019D9FF00D7B
S11308701124E35FF14C8183882351F08FE28C9F34
S1130880F0018D9FF00D1124E35FF14C858101C0CF
S113089080E09FE29C9FF0019D9FF00D1124E35F97
S11308A0F14C85838FE28C9FF0018D9FF00D112414
S11308B0E35FF14C83A594A5A5A5B6A5BB231CF4C1
S11308C080E090E0DC012FE22C9FF0012D9FF00DE1
S11308D01124E35FF14C83A794A7A5A7B6A7878942
S11308E0908DA18DB28D86309105A105B10598F149
S11308F020918B3E30E04FE24C9FF0014D9FF00D74
S11309001124E35FF14C43895489658976896C012C
S11309107D01F5E0CF0ED11CE11CF11CC416D506F7
S1130920E606F70658F00597A109B10948175907D3
S11309306A077B0730F481E090E005C081E090E035
S113094002C080E090E0282B392B81E0232B09F4AE
S113095080E080938B3E8FE28C9FF0018D9FF00DA1
S11309601124E35FF14C83899489A589B689878B27
S1130970908FA18FB28F1F5F123008F411CD509168
S1130980773E80914000882311F040E801C040E0A8
S113099060918A3E20E1629FB00111242B2D30E04A
S11309A0220F331F220F331F220F331F10E0000FBB
S11309B0111F000F111F8A2D90E0880F991F2870B6
S11309C00470022B8270802B982A862F8077842BC8
S11309D089298093933E21E0581301C020E090912F
S11309E08B3E922B20910E3E222321F020910D3E2E
S11309F021110AC020913D3E222341F020913C3E2A
S1130A00222331F020E005C020E003C021E001C032
S1130A1021E0217009F490E0992321F090916E3E39
S1130A20993048F020916C3E30916D3E232B29F093
S1130A3090916E3E03C090E101C090E190936E3EB0
S1130A4020916C3E30916D3E2115310529F099239A
S1130A5031F04CE251E005C04CE251E002C041E00B
S1130A6050E0241B350B20936C3E30936D3E109266
S1130A708B3E9923D9F120918E3E211137C090915C
S1130A808C3E933050F130918D3E432F50E0609175
S1130A90383E7091393EFA01E858F14C7083FA01FE
S1130AA0E758F14C60836091673E7091683EFA01AB
S1130AB0E058F14C7083FA01EF57F14C6083363003
S1130AC018F0432F419501C042E0340F30938D3E1E
S1130AD0311101C021E020938E3E963018F0292F69
S1130AE0219501C021E0920F90938C3E90916B3E32
S1130AF0911153C090918E3E992309F44EC0CFE6D4
S1130B00DEE3888787E79EE3F1D2898F23D3909130
S1130B106E3E811102C021E001C02FEF921B909321
S1130B206E3E882319F080918E3E01C080E0809350
S1130B308E3EE0E1F0E00090003E02C0F595E795BE
S1130B400A94E2F71F2F110F110B2091053E3091EB
S1130B50063E4091073E5091083E6091093E7091D7
S1130B600A3E80910B3E90910C3EAE2EBF2EC12EBC
S1130B70D12EE12EF12E012F09D62093053E30937C
S1130B80063E4093073E5093083E6093093E70939F
S1130B900A3E80930B3E90930C3E80916B3E8111F4
S1130BA046C0C0E5D0E08881897F84608883F8945A
S1130BB01092003E88E37ADA888181608883789491
S1130BC0889588818E7F8883F8940090003E02C0C7
S1130BD0D595C7950A94E2F71D2F110F110B20919B
S1130BE0053E3091063E4091073E5091083E60918B
S1130BF0093E70910A3E80910B3E90910C3EAC2EC2
S1130C00BD2EC12ED12EE12EF12E012FBFD5209362
S1130C10053E3093063E4093073E5093083E609352
S1130C20093E70930A3E80930B3E90930C3E80B134
S1130C30877F80B9139B0BC024C0E3E2F4EF3197A4
S1130C40F1F700C000008AB180618AB901C094E65E
S1130C50139902C0915089F791110EC064E680E0A7
S1130C6090E0EED08091021081FDFCCF89E698E1FE
S1130C700197F1F700C0000041E068ED81E490E0E5
S1130C80F9D0E3E1F4E080818860808380916B3E59
S1130C9091E0811101C090E0891B80936B3E56CA9C
S1130CA0E0E0F6E082E5828381E0808380E00895DD
S1130CB0E0E0F6E0868381E08087089580910B066A
S1130CC08170089580911006909111060895F0DFC7
S1130CD0F5DF8823E9F3F6DFE0E0F6E02385216021
S1130CE02387089580E0089543E068ED81E690E06D
S1130CF0C1D080E00895789480E0089580E008C031
S1130D00E82FF0E0E05FFB4F9081986090838F5F65
S1130D108830B0F380E008C0E82FF0E0E05DFB4FDE
S1130D209081986090838F5F8830B0F380E008C032
S1130D30E82FF0E0E05BFB4F9081986090838F5F39
S1130D408830B0F30895E6E1F4E08081887F846020
S1130D5080838081877F8083E0E3F4E08081887FE3
S1130D60846080838081877F80839ADF089562D046
S1130D700895C4DF80B1877F80B9E3E1F4E0808126
S1130D808860808380B18F7E80B9E4E1F4E0808163
S1130D908860808380B18F7D80B9E5E1F4E0808153
S1130DA08860808381B18F7781B980B1806880B990
S1130DB084B18D7F84B9E1E3F4E08081877F80830F
S1130DC084B18F7E84B9E4E3F4E080818860808319
S1130DD084B18F7D84B9E5E3F4E080818860808309
S1130DE088B18D7F88B9E1E5F4E0808188608083F3
S1130DF088B18B7F88B9E2E5F4E0808188608083E4
S1130E0089B1877F89B988B1886088B989B18F7EB3
S1130E1089B988B1806188B989B18F7D89B988B170
S1130E20806288B961DF2AD08EDFA1DF64DF3CD025
S1130E3059DF089580E008959C5EFC018081089547
S1130E401F93CF93DF93EC01162F8091021081FD45
S1130E50FCCF44E06DE980E090E10CD0DC5E1883C7
S1130E6043E06DE980E090E105D080E0DF91CF912F
S1130E701F910895FC0164BF40830895809141014E
S1130E808111FCCFE0E4F1E088E7808381E087838F
S1130E90809151018111FCCFE0E4F1E089E4808B81
S1130EA081E0828B80E0089585E08093500080E0AB
S1130EB0089590E811C029B1277F29B9292F282343
S1130EC021F029B1206129B903C029B12F7E29B9A4
S1130ED0969529B1286029B99111EDCF89B1877F01
S1130EE089B90895CF92DF92EF92FF926A017B0154
S1130EF0882319F0813021F016C080E0DADF0AC0BF
S1130F00DB01CA0188279927A770BB27BC01CD0143
S1130F108861CFDF8D2DCDDF8C2DCBDF89B18F7E26
S1130F2089B980E001C081E0FF90EF90DF90CF901D
S1130F30089589B18F7D89B986EA8A95F1F700C051
S1130F4089B1806289B9089590E076C09C01220F2E
S1130F50331F220F331F220F331FE091773FF0918D
S1130F60783FE80FF91F408144231CF449B14061E4
S1130F7002C049B14F7ED901AC56B14C4C93D90152
S1130F801196408146FF03C049B1406102C049B196
S1130F904F7EAC56B14C4C93D9011296408145FF1B
S1130FA003C049B1406102C049B14F7EAC56B14C57
S1130FB04C93D9011396408144FF03C049B1406169
S1130FC002C049B14F7EAC56B14C4C93D901149632
S1130FD0408143FF03C049B1406102C049B14F7E23
S1130FE0AC56B14C4C93D9011596408142FF03C0D5
S1130FF049B1406102C049B14F7EAC56B14C4C93EB
S1131000D9011696408141FF03C049B1406102C035
S113101049B14F7EAC56B14C4C93295F3F4F408150
S113102040FF03C049B1406102C049B14F7EF9019C
S1131030EC56F14C408301962091763F30E08217C4
S1131040930708F483CF0895E4E6FFE3838B948B3E
S1131050628B80ED90E08093913E9093923E80E08D
S113106073DF80E008950F931F93CF93DF938C0178
S1131070D62FC42F5EDFE4E6FFE3108A118A1686BA
S1131080178680E090E28487958780E098E08287E5
S11310909387108611861682178284E090E08483F9
S11310A0958387E296E6A4E0B0E080839183A283EF
S11310B0B38384E098E2858B968B4C2F50E0D80163
S11310C0A40FB51F9C914F5F5F4FD801A40FB51FAC
S11310D08C9189279BED8927878B6D2FC801B4DFFD
S11310E080E0DF91CF911F910F910895DF92EF92ED
S11310F0FF920F931F93CF93DF93FC01D0907B3F1C
S11311008081E180F28003811481D581C681B78119
S1131110A0857185628553854485358526859785A7
S1131120E0898D258E258F25802781278D278C2783
S11311308B278A2787278627852784278327822743
S113114089278E27DF91CF911F910F91FF90EF9008
S1131150DF9008951F93CF93DF93C4E6DFE34D89B7
S11311605E8950684D8B5E8B60E070E080E0BADE93
S1131170182F488159816A817B8181E0B3DE182B65
S11311808D899E899F778D8B9E8B8091BA978E5F78
S1131190DBDEE2E5F4E080818860808320E030E0FB
S11311A006C080E18A95F1F700C02F5F3F4F529946
S11311B003C02C3D3105A8F32C3D310508F011E0A6
S11311C0E2E5F4E08081877F80832C3D310578F06F
S11311D011E016C0F901EC56F14C908199B9908157
S11311E09F7E11F4000000002F5F3F4F02C020E0FB
S11311F030E04091913E5091923E2417350750F3D0
S113120089B18F7E89B995DE812FDF91CF911F91AE
S11312100895882319F08130A1F166C0662321F076
S113122085B1826085B903C085B18D7F85B984B1EC
S1131230826084B98AE080930606613021F081B12E
S1131240806481B903C081B18F7B81B980B180642E
S113125080B985E08A95F1F780B18F7B80B986E00B
S113126036DD2AE02093060625B1226025B921B196
S1131270206421B920B1206420B9BC0180E090E051
S11312800895662321F085B1826085B903C085B1D4
S11312908D7F85B984B1826084B98AE08093060623
S11312A0613021F085B1816085B903C085B18E7F3D
S11312B085B984B1816084B985E08A95F1F784B1F8
S11312C08E7F84B98BE003DD2AE02093060625B1E6
S11312D0226025B925B1216025B924B1216024B942
S11312E0BC0180E090E0089560E070E0CB010895D7
S11312F00E948C090C94F70A0E94F00A58F00E948C
S1131300E90A40F029F45F3F29F00C94D00A511106
S11313100C942B0B0C94D60A0E94080B68F39923A7
S1131320B1F3552391F3951B550BBB27AA276217DD
S11313307307840738F09F5F5F4F220F331F441FEA
S1131340AA1FA9F335D00E2E3AF0E0E832D091501E
S11313505040E695001CCAF72BD0FE2F29D0660F0B
S1131360771F881FBB1F261737074807AB07B0E84E
S113137009F0BB0B802DBF01FF2793585F4F3AF054
S11313809E3F510578F00C94D00A0C942B0B5F3FD0
S1131390E4F3983ED4F3869577956795B795F795DA
S11313A09F5FC9F7880F911D9695879597F90895C2
S11313B0E1E0660F771F881FBB1F6217730784075E
S11313C0BA0720F0621B730B840BBA0BEE1F88F76D
S11313D0E0950895BEE304D008F490E80895BFE3CF
S11313E022273327A9010E94100B60F19F5748F16F
S11313F0B91740F1BFE3B91B9927B8503AF4660F07
S1131400771F881F991FB395D2F316C0B8504AF0BE
S1131410232F342F452F562F672F782F8827B85026
S1131420BAF7B85F49F086957795679557954795CC
S113143037952795BA95B9F716F40E94D90A889476
S11314400895889460E070E0CB0108950E94100B29
S113145088F09F5798F0B92F9927B751B0F0E1F071
S1131460660F771F881F991F1AF0BA95C9F714C021
S1131470B13091F00E942A0BB1E008950C942A0B2C
S1131480672F782F8827B85F39F0B93FCCF386955A
S113149077956795B395D9F73EF4909580957095B7
S11314A061957F4F8F4F9F4F0895E89409C097FB34
S11314B03EF490958095709561957F4F8F4F9F4F27
S11314C09923A9F0F92F96E9BB279395F69587956B
S11314D077956795B795F111F8CFFAF4BB0F11F42E
S11314E060FF1BC06F5F7F4F8F4F9F4F16C08823D5
S11314F011F096E911C0772321F09EE8872F762F0B
S113150005C0662371F096E8862F70E060E02AF04B
S11315109A95660F771F881FDAF7880F9695879537
S113152097F90895E894F92F96EBFF2381F01216AA
S113153013061406440B9395F6958795779567954E
S113154057954040FF23B9F71BC099270895882376
S113155051F49850D2F7872B762F652F542F432FB1
S1131560322F20E0B1F3121613061406440B88231D
S11315703AF09A95440F551F661F771F881FCAF7C4
S113158055234AF4440F551F11F460FF04C06F5FE4
S11315907F4F8F4F9F4F880F9695879597F90895A2
S11315A097F99F6780E870E060E008959FEF80EC12
S11315B008959095809570956095509540953095D7
S11315C021953F4F4F4F5F4F6F4F7F4F8F4F9F4F2F
S11315D0089500240A941616170618060906089595
S11315E000240A9412161306140605060895092EFB
S11315F00394000C11F4882352F0BB0F40F4BF2B6A
S113160011F460FF04C06F5F7F4F8F4F9F4F0895A9
S113161057FD9058440F551F59F05F3F71F047959F
S1131620880F97FB991F61F09F3F79F08795089584
S1131630121613061406551FF2CF4695F1DF08C0A3
S1131640161617061806991FF1CF869571056105C0
S113165008940895E894BB2766277727CB0197F968
S113166008950E94440B0C94F70A0E94E90A38F08A
S11316700E94F00A20F0952311F00C94D00A0C94E7
S1131680D60A11240C942B0B0E94080B70F3959F1F
S1131690C1F3950F50E0551F629FF001729FBB2765
S11316A0F00DB11D639FAA27F00DB11DAA1F649F01
S11316B06627B00DA11D661F829F2227B00DA11DB4
S11316C0621F739FB00DA11D621F839FA00D611D3A
S11316D0221F749F3327A00D611D231F849F600D5B
S11316E0211D822F762F6A2F11249F5750409AF084
S11316F0F1F088234AF0EE0FFF1FBB1F661F771F10
S1131700881F91505040A9F79E3F510580F00C94DA
S1131710D00A0C942B0B5F3FE4F3983ED4F38695E8
S113172077956795B795F795E7959F5FC1F7FE2B7A
S1131730880F911D9695879597F9089530D0A59FA8
S1131740900DB49F900DA49F800D911D11240895B8
S113175097FB10F8169400080F93083098F008507F
S1131760232F342F452F562F672F782F892F902D15
S1131770F4CF0594979587957795679557954795F1
S1131780379527950A95AAF70F9108952A193B09C9
S11317904C095D096E097F09800B910B0895A29F86
S11317A0B001B39FC001A39F01D0B29F700D811DF2
S10D17B01124911D0895F894FFCF51
S10417BA0624
S11317BB03815101000044E62D02000000010101E8
S11317CB00000003020340000000000000000000C2
S11317DB00000000000000000000000000000000FA
S11317EBE2FFFFFF0A0000000000000001010100FE
S11317FB0000030203400000000000000000000092
S113180B000000000000000000000000000000E2E7
S113181BFFFFFF0A000000000000000A2C0110AAC1
S113182BAA1EAA55E1000000000000000000000001
S10D183B000000000000000000009F
S9030000FC
