:020000040800F2
:20000000F8FF0120259A050863DE040851DE040865DE040875DE040885DE04080000000057
:2000200000000000000000000000000095DE040897DE04080000000001EE040839EE040892
:20004000D198050881DF04088DDF040895DF0408D9760508D198050815DF04081BDF0408EE
:2000600021DF040827DF04082DDF0408711105088111050891110508A1110508B1110508DF
:20008000C1110508D1110508D1980508D198050859330508613305086933050833DF0408A5
:2000A000A9DF0408AFDF0408C1DF0408C7DF0408CDDF0408D3DF0408D9DF04084DE0040841
:2000C00053E0040859E004085FE00408D1980508D198050829E004082FE0040835E0040814
:2000E00057DF040887DF0408A5DE040805E004080BE0040823E004081DE00408E1110508BE
:20010000D198050899800508E1DF0408D19805083BE0040841E00408F9DF0408FFDF0408DF
:20012000F1110508011205081112050821120508311205080000000000000000D19805085A
:200140006F330508773305087F33050899DE040841120508511205086112050847E0040874
:20016000D1980508D1980508D1980508D1980508D1980508D19805080000000000000000BB
:20018000D1980508D1980508006870470B0A017043700B0C090E8370C1707047036A02396A
:2001A000023B8B4283BFC389406B01FB030000207047C2F307238A76CB764379032B01BF5C
:2001C000120C0A75120A4A75704700F10B010022D30143EA520310F8012B52FA83F38842BB
:2001E000DAB2F5D11046704737B50D46044620B9092000232B6003B030BD0368002BF7D06A
:200200005A79002AF4D081885A899142F0D118680DF10702062102F06BFA9DF8073003F0D9
:200220000103034313F0FF00E2D12368E2E72DE9F0470026D0F800A08E75836907460C4602
:20024000002B00F08D80C36A01336ED1FA690023551E18462E2615F8011F202900F10100C3
:200260000CD0052908BFE521092804D10B2B9EBFE71801337E72E718013379720B28EAD1DF
:20028000E11800204872A17D00295ED1002B53D06FF0080604F109000825361B331810F88B
:2002A000011B00294BD02E298BB25BD0A3F14101192903D8117B0D4200D020330373EDE7E4
:2002C000B9F1000F05D100F520539BB2B3F5006F13D340F2B51140EA094059F0DFFBFF2828
:2002E000C8F1FF0519D9012D22D904EB0803020A9A75D87502239844002002368146DAF8D2
:200300001030985B0028DBD14546B9F1000F18BF002525440023AB7598E758B1002DF4D071
:2003200004EB080398750123E5E7B146B046E6E70025EAE70546E8E73F23A37501232344F7
:2003400000219975137B03B96372D37A237202F11C00FFF719FF2060D38AE380138BA3804F
:20036000BDE8F08710250B46A8E738B50568044615F8010B20B140F2B51159F0AFFB08B11A
:20038000256038BD4FF0FF30FBE737B5C37904461BB90025284603B030BD00F13C01826BFF
:2003A00000680191012302F08EF9054680B9E36AE071A06B626AC31A9342EAD2A379019989
:2003C000022BE6D102440123206802F07CF9E1E70125DFE738B5836B8B4205460C4610D007
:2003E000FFF7D3FF60B922462868012305F13C0102F05AF900281CBF4FF0FF340120AC63E3
:2004000038BD0020FCE7000038B50023C3714FF0FF3383630546FFF7DDFF0446F8B9B5F884
:200420003A224AF655239A421BD195F83C30EB2B03D01833DBB2012B15D80C49032205F19D
:20044000720042F0ABFE40B10949052205F18E0042F0A4FE002818BF0224204638BD0424E5
:20046000FBE70324F9E70224F7E700BF7250070876500708F0B5437987B0044601F0FE0554
:200480008BB100680DF10702062102F031F99DF80730DE0707D41DB113F0040500D00A2509
:2004A000284607B0F0BD0023637120680DF10702052102F01DF99DF80730D80700F1E680B4
:2004C0000DB15907EBD400212046FFF79DFF022803D0012823D825796DB302AA04F2022380
:2004E00004F24221174613F8040C10B11846FFF74BFE1033994242F8040BF4D1267906B14B
:20050000013E57F8265075B129462046FFF77CFF237953B901280ED90136032EF1D9042855
:2005200007D10125BCE70320F2E70428F9D0012801D90D25B4E7B4F84730B3F5007FF8D146
:20054000B4F8521021B904F16000FFF71DFE014694F84C3061625A1E012AA371E9D894F837
:200560004960E681002EE4D0721E3242E1D1B4F84D70A7813A07DCD1B4F84F0018B904F193
:200580005C00FFF701FEB4F84A20002AD1D001FB03FE02EB171CF4446045CAD3A0EB0C00FB
:2005A000B042B0FBF6F3C4D33D488342C1D84FF6F57083426CD9032602332A440CEB0500BF
:2005C000032E2362A562E26260634FD1B4F866203A43AED104F16800FFF7D6FD9B002063C5
:2005E00003F2FF13B1EB532FA3D34FF0FF33C4E90533032E4FF0800323722BD1B4F86C303E
:20060000012B27D1691C2046FFF7E4FE10BBB4F83A2220724AF655239A421BD104F13C00DD
:20062000FFF7B2FD1F4B984214D104F50870FFF7ABFD03F1FF5303F500532033984209D145
:2006400004F50970FFF7A0FDA06104F50A70FFF79BFD6061144A6671138801339BB21380EE
:2006600063810025114B2361E56119E7002F3FF460AF7244022E22634FEA43021BBFD2182D
:2006800003F00103134603EB5203A9E7032507E740F6F576B3428CBF022601268CE700BFBF
:2006A000F5FFFF0F525261412C2100202E21002001292DE9F04706460C46174673D9036AEB
:2006C0008B4270D94379022B3FD0032B50D0012B69D101EB5108C16A01EB5821FFF77AFE15
:2006E000054638BB06F13C0908F1010AC8F3080814F001041FBF19F8083003F00F023B0141
:2007000003F0F00314BF1343FBB209F80830F16A0123F37101EB5A213046FFF75BFE05468A
:2007200040B9CAF3080A44B1C7F3071709F80A700123F3712846BDE8F08719F80A30C7F392
:20074000032723F00F031F43F0E7C16A01EB1421FFF740FE05460028ECD1640006F13C03C7
:2007600004F4FF7418191F55C7F307274770DFE7C16A01EBD411FFF72DFE05460028D9D1CA
:20078000A40006F13C0304F4FE741C442046FFF7FBFC27F0704700F0704047EA000120465C
:2007A000FFF7F4FCC4E70225C4E7F7B505460191FFF7EBFD044600BB01992846FFF7EEFC82
:2007C00005F13C070646A8634FF400722146384642F0BCFCEB899C4205D3E889001B18BF78
:2007E000012003B0F0BD286801233219394601F06AFF0028F1D10134ECE70120F1E7F8B508
:200800000446FFF7C2FD0546002842D16379032B37D1277A012F34D104F13C0601464FF4AA
:200820000072304642F092FC552384F83A32AA2384F83B3252234122722184F83C3084F82B
:200840003D30612384F83E3084F8233284F83F2084F8201284F8211284F82222A16904F5F1
:200860000970FFF793FC616904F50A70FFF78EFCA26A20680132A2633B46314601F023FFE6
:20088000257200222068114601F032FF003818BF0120F8BD03284B8B04BF8A8A43EA02436F
:2008A000184670470129F8B506460C464ED9036A99424BD24379022B29D0032B34D0012BE2
:2008C00044D101EB5105C16A01EB5521FFF782FD10B14FF0FF30F8BD6F1CF16AC5F3080530
:2008E000354401EB5721304695F83C50FFF772FD0028EED1C7F308073E44E30796F83C0041
:2009000045EA00204CBF0009C0F30B00E3E7C16A01EB1421FFF75EFD0028DAD1640004F420
:20092000FF742644B08FD6E7C16A01EBD411FFF751FD0028CDD1A40006F13C0004F4FE7497
:200940002044FFF721FC20F07040C4E70120C2E737B50C46012C054611462BD9036A9C428F
:2009600028D222B14FF0FF32FFF7A2FE40B9214628460194FFF796FF0199044610B90020E9
:2009800003B030BD012815D0431C15D000222846FFF78EFE0028F3D12A6AAB69911E8B4243
:2009A00005D20133AB612B7A43F001032B729442DDD3E4E70220E3E70120E1E7F8B5054689
:2009C0000F4649B94669B6B1036A9E4228BF0126AB6993B9002405E0FFF764FF012804461A
:2009E00002D801242046F8BD421C50D02B6A9842F8D33E46ECE70126EAE7B74215D12B6A62
:200A00007C1C9C4228BF022421462846FFF74AFF0128E6D0431C3AD0D8B16B69012B04D991
:200A20002A6A934234BF1E463E4634462B6A01349C4202D3012ECDD9022421462846FFF7B5
:200A400031FF40B10128CCD0013020D0A642EDD1C0E7002CE9D04FF0FF3221462846FFF722
:200A600027FE90B957B92A6AAB696C61023A934210D92B7A43F001032B72B3E7224639468F
:200A80002846FFF715FE0028EDD00128A9D14FF0FF34A7E7013BAB61EBE72DE9F84307697C
:200AA00006682037B7F5001F24BF0023836183690446894673B1C7F30808B8F1000F39D107
:200AC00041690133836139B9B389B3EB571F31D80023A36104200BE0F389013B13EA5723A4
:200AE00028D13046FFF7DEFE0128054602D80220BDE8F883421C01D10120F9E7336A834292
:200B000012D8B9F1000FE3D061692068FFF756FF0546A8B10128EAD0431CEDD00146304682
:200B2000FFF743FE0028E7D1656129463046FFF735FBA0613C3646442761E6610020D7E723
:200B40000720D5E72DE9F047FF27D0F80090064688463D4604244FF6FF7AB16911B9002C54
:200B600064D054E04846FFF735FC044600284ED1F0690178002961D0C37AE52903F03F031B
:200B8000B37149D02E2947D023F02002A2F1080CDCF1000242EB0C0242453DD10F2B40D1E4
:200BA0004C0637D53369477BF36201F0BF01437BBB4231D1428B7ABB0378D9F81040DFF841
:200BC00080E023F040030D25013B6B4301251EF801CB30F80CC00DB3FF2B1DD824F813C079
:200BE0006546013301320D2AF1D10278520605D525B1FF2B10D8002224F813204D1EEDB2DB
:200C000000213046FFF749FF04460028A5D00023B3610CE08D42CAD0FF25F1E7D445E1D0C6
:200C2000FAE73DB9FFF7D1FAB84203D100242046BDE8F0874FF0FF33F362F8E70424E6E70E
:200C400040510708B1F5001FF8B506460C4601D30220F8BDCA06FBD1826805680161CAB961
:200C60006B79022B01D92B6B9BB9AB89B3EB541FEED92B6BB361B3697261002BE8D003EB29
:200C800054233C35C4F308042C44B361F4610020DFE71A46EF897F02BC42114604D22846F8
:200CA000FFF77CFAB061E6E73068FFF7FBFD431C024606D00128CBD92B6A8342C8D9E41B20
:200CC000EAE70120C5E7F8B50E46002107680446FFF7B8FFA8B90546A1693846FFF77AFB4F
:200CE00078B9E3691B78E52B00D01BB90135B54201D1F8BD054601212046FFF7CEFE0028BF
:200D0000EAD0042808BF0720F3E7C16A4B1C2DE9F04105680669044618D1E5274FF00108E9
:200D2000A1692846FFF756FB60B9E3691F7085F807802369B3420DD201462046FFF7ADFE4E
:200D40000028EDD0042808BF022003E0FFF77AFF0028E2D0BDE8F0812DE9F04F002185B0AC
:200D6000D0F800B00446FFF76DFF0546002840F08D804FF0FF3A4FF0FF08C4F82CA0C14652
:200D8000A1695846FFF726FB054600287ED1E6693778002F7ED0F27AE52F02F03F03A3718F
:200DA00003D0100704D50F2B04D0C4F82CA050E00F2B56D194F82B30590640D47A0646D554
:200DC000236996F80D80E36207F0BF07737B43453FD1738B002B3CD13578DBF8103000935B
:200DE00005F03F05013D0D23DFF8B0905D43012219F8013BF35A7AB3FF2D2AD81846039389
:200E000058F080FE009B0290691C33F81500019158F078FE029A82421BD1039B01991A46E6
:200E20000D461D4B9945E3D133785B0604D51AB1009B33F8153063B9013F5FFA87F9002154
:200E40002046FFF72AFE0546002899D01EE0B945BCD04FF0FF09F2E74FF6FF718B42E0D058
:200E6000F7E7B9F1000F04D13046FFF7AEF940450CD094F82B5015F0010596D10B2204F1F7
:200E80002001304642F08AF900288ED1284605B0BDE8F08F0425F9E74D51070840510708E2
:200EA0002DE9F04F90F82BB01BF0A00489B0054640F0E18007683A6932F81430002B6AD1D0
:200EC00005F1200696E807000DF1140A1BF0010F8AE8070000F0D680402385F82B304FF001
:200EE00001089AE80700B4463B69ACE803002CF8022BB8F1050F4FEA12428CF800205ED9B5
:200F0000981E424630F8021F002946D10DF1130C072102F00F0E0EF13000392888BF0EF1E0
:200F200037000F2A0CF8010901F1FF314FEA121047D808AB5A187E2002F8140C3046002222
:200F4000914206D010F801CBBCF1200F02F1010E39D105F11F0C07299CBF08AB581802F16A
:200F6000010296BF10F8140C20200131072A0CF80200F0D92846FFF7EFFE814600287DD1F1
:200F800008F10108B8F1640FABD14FF00709484609B0BDE8F08F01348EE74FF0100C01F007
:200FA000010E0EEB4202D30344BF82F4883282F02102BCF1010C4FEA5101F0D1A2E7424630
:200FC000A4E70246A5E77246BAE729692846A1EB4411FFF737FE81460028D8D13046FFF749
:200FE000F4F84FF6FF780190A9693846FFF7F2F981460028CBD1EB69019AD7F810E05A7341
:20100000E1B24FF00F024FF00D0CDA72DFF8D8A018734A1E0CFB02F29876D87684461AF8D4
:20102000019B404518BF3EF8120003F8090003EB090B0CF1010C18BF01324FEA10290028BC
:2010400008BF4046BCF10D0F8BF80190E7D1404502D03EF812200AB941F04001197001230D
:20106000FB7100212846FFF718FD814600288ED1013CB9D11AE04FF0060988E7042886D11B
:2010800085F82BB01BF0020F1BBF0C340D210124B4FBF1F418BF013421462846FFF713FEF3
:2010A000814600287FF473AF013C8ED1A9693846FFF790F9814600287FF469AF01462022FE
:2010C000E86942F043F803CEEB6918605960B278318819819A7295F82B30EA6903F018032A
:2010E00013730123FB7152E7405107082DE9F04F0B78D0F800B02F2B87B00646884601D035
:201100005C2B0AD1424613782F2B904602F10102F9D05C2BF7D0002301E0DBF81C30B360E7
:2011200098F800301F2B00F21D8180230021304686F82B3007B0BDE8F04FFFF783BDFE2D06
:2011400000F239812AF81530013511E108F101010591DDF8148098F800202F2AF6D05C2A05
:20116000F4D0202B34BF04240024012D2DD1BAF800302E2B2FD100232AF8153006F1200217
:201180009D428CBF2E21202101330B2B02F8011BF6D144F0200486F82B403046FFF7DCFDC8
:2011A00096F82B30002800F0CD80042840F00481990603F0040240F1C180002A00F0D2808A
:2011C000802386F82B300020F6E0022D03D1BAF802302E2BCBD0AAF102028DBB00232AF896
:2011E0001530002D00F0E7803AF81320202A194603F10103F8D009B92E2A01D144F0030431
:20120000AAF1020232F815302E2B01D0013DF9D14FF020334FF0000973623362C6F8273035
:201220004F4608233AF811004A1CE8B1202803D02E280DD195420FD044F003041146F1E73D
:2012400032F81530202B01D02E2BC7D1013DC4E7994504D2954234D10B2B2BD101E00B2B50
:2012600023D144F003040B2396F82020E52A04BF052286F82020082B04BFBF00FFB207F02F
:201280000C030C2B03D007F00303032B01D144F00204A3073FF57FAFFD0748BF44F010049F
:2012A000780748BF44F0080475E7954202D044F00304D9D3BF00FFB22A460B234FF008091E
:2012C000BCE77F2813D9CDE9022340F2B51144F00203019358F0E2FB10F0800FDDE9022399
:2012E00011D03F4900F07F00085C019C38B1DFF8F8C01CF8011B002963D08142F9D144F050
:2013000003045F2010E0FF28EFD9591E894503D344F00304994691E706EB0901040A81F839
:201320002040019C09F1010906EB090109F1010981F8200082E747F00207F5E7002A08BF9E
:20134000052039E05A0737D4B379DB0637D531699BF805000BF13C03C1F308011944FFF74D
:2013600099FAB0603368CDF81480D3F810A0002505A8FEF7FAFF421C1DD0B0F5803F24BF09
:20138000030C2AF8153083B228BF01351F2B7FF6E0AE2F2B3FF4DDAE5C2B3FF4DAAE7F2B34
:2013A0003FF6CDAE0F49184611F8012B002A3FF4C6AE8242F8D1062007B0BDE8F08F05200E
:2013C000FAE7A0F1410189B21929B4D9A0F1610189B219299EBF203847F0010780B2A3E72F
:2013E000C05007087C5007088550070800214171FFF740B82DE9F04105468CB090461E4646
:201400000C46002900F0BB8003F03F073946FFF731F8002840F0AB80414668460095FFF70C
:2014200065FE024620B99DF92B30002BB8BF062216F01C0F68D0002A3AD0042A35D16846EE
:20144000FFF72EFD024680BB47F00807DDF81C8068794146FFF71EFA064656F059FE01468B
:2014600008F10E00FEF792FE079B2022DA72079900222846FEF79DFE079B00221A775A77CA
:201480009A77DA770123EB71DEB10098D5F838803146FFF75DFA024638B941462846FEF7D7
:2014A00099FF013E6E61024658B10023236027E09DF8063013F0110F30D1730759D43007BB
:2014C000C4D4AB6B0799236261623807687948BF47F04007FFF7DEF9A060034601F11C00AD
:2014E000FEF752FE6A89A280B9064FF000020646E060256027746274E261626110D4002204
:2015000010460CB0BDE8F081002ACED19DF80630D90630D4B207D4D5DE07D2D50722C4E76A
:201520000028ECD0EF8960617F02B74210D30022A361002AB9D1C6F308010029DFD019465E
:201540002846FEF72BFEC0B100EB5620E061D7E719462068FFF7A6F901280346A6EB0706A2
:2015600003D9421CE1D10122E2E70222E0E702469BE7082299E7042297E7022295E70922C5
:20158000BEE72DE9F04F994685B000238846C9F8003003A904461746FEF726FE0646F8B9F2
:2015A000667CEEB994F810A01AF0010300937CD0E2686369D21A974228BF174687B1626957
:2015C000C2F30803002B57D1039BDB89013B13EA522A15D142B9A06801280AD8022666744B
:2015E000304605B0BDE8F08FA1692068FFF75AF9F2E7431C03D10123009E6374F0E7A06144
:20160000DDF80CB0A1695846FEF7C8FD0028E5D0B7F5007F0AEB00022DD3BBF80E10019274
:201620000AEB572088424FEA572588BFA1EB0A05DBF800002B46414601F036F80028DAD120
:201640000399CB795BB1886B019A801AA84206D24FF400723C3108EB402041F033FD6D026F
:20166000D9F800302B44C9F8003063692B447F1BA8446361A2E7E2616569E1690398C5F34D
:201680000805C5F50075BD4228BF3D46FEF7A2FE0028B0D1039963693C31C3F308032A4661
:2016A0001944404641F00EFDDAE7072698E72DE9F04F9A4685B000238946CAF8003003A9A4
:2016C00004461746FEF790FD064620BB667C16BB237C9A0740F1A9806369FB4200D3DF436F
:2016E000AFB16369C3F30802002A40F08180039AB2F80E8008F1FF3818EA53281ED173B906
:20170000A06870B901462068FFF758F948B9237C43F040032374304605B0BDE8F08FA1697C
:20172000F1E7012802D102266674F4E7431C01D10126F9E7A368A06103B9A0600398E36911
:20174000826B9A4203D1FEF720FE0028F0D1039DA1692846FEF722FD0028E4D0B7F5007FBD
:2017600008EB000B36D3E98908EB572088424FEA5723286888BFA1EB08035A4649460193D8
:2017800000F0A1FF05460028D2D1DDF80C80019BD8F83810A1EB0B0199420AD24FF400728A
:2017A00009EB412108F13C0041F08CFC019B88F807505D02DAF8003062692B44CAF80030E5
:2017C0007F1BE368A94415446561AB422CBFE360E56085E76169E368994207D32846FEF71F
:2017E000D4FD0028A4D1039BC3F838B0C4F81CB06569E1690398C5F30805C5F50075BD420C
:2018000028BF3D46FEF7E6FD002891D1039863693C30C3F308032A461844494641F052FC8E
:20182000039B4FF00102DA71C4E7072673E7F7B501A90546FEF7D8FC044660BB2C7C14F0D0
:20184000400428D056F064FC296A07460198FEF7C1FD0446F8B96E6AF37A43F02003F3727F
:20186000AA6828683146FEF7A4FCE96806F11C00FEF78CFC394606F11600FEF787FC01983C
:20188000B4740123F474C371FEF7B9FF2B7C23F0400304462B74204603B0F0BD13B50446F5
:2018A000FFF7C5FF28B901A92046FEF79DFC00B9206002B010BD70B50E468CB00021054616
:2018C000FEF7D8FD044660B9314668460095FFF70DFC044690B99DF92B30002B04DA029BF8
:2018E000EB6120460CB070BD9DF80630DB0609D507996879FEF7CEFFE861F2E7042808BF6B
:201900000524EEE70524ECE72DE9F0470E460021D2B0317081469046FEF7ACFD0546F0B9B9
:20192000D9F81C30CDF8009002934446DDF808A0BAF1000F19D1444502D1013C2F23335582
:201940003346A11B1A5D03F8012B5A189045F9D8A8EB04030134A04538BF01231E44002348
:201960002846337052B0BDE8F08720216846FFF769F9002849D106994846FEF72BFD074618
:20198000002840D1079999F80500FEF783FF394602906846FFF756F9B8BB00216846FFF725
:2019A000D1F80746A8BB079999F80500FEF772FF50450AD039466846FFF76FF80028ECD035
:2019C0000546042D08BF0225C9E70CA96846FEF72EFC0DF14603194613F8012BBA46013756
:2019E000002AF9D1BC4212D3A4EB0A005246304441F068FB631EA3EB0A032F226FEA0A0AFD
:201A0000F254544492E70546A9E70546A7E71125A5E70546D5E72DE9F3410D4601A9044661
:201A2000FEF7E2FB0646002850D1667C002E4DD1E368AB4204D2227C12F0020F08BF1D4628
:201A40000022636962619DB90025E2686369934282BF227CE36042F04002C3F3080388BFD1
:201A60002274002B32D0E369AB4218BFE5612DE0019AD7897F02FBB1013B6A1EB3FBF7F1BE
:201A8000B2FBF7F28A4217D37A421340A1696361ED1A0029D8D0BD42636922D863692B4445
:201AA0006361C5F30803002BCED00198FEF776FB50B100EB5525C8E7A16881B92068FEF702
:201AC0007DFF0128014605D102266674304602B0BDE8F081481C01D10126F6E7A160A161C7
:201AE000D7E73B446361237C20689A07A5EB070805D5FEF763FF054620B90146CEE7FEF738
:201B0000D1FE05466B1CE7D0012DDDD9019B1B6AAB42D9D9A56129464546BCE770B50546B6
:201B200016460C4621B30021FEF7A4FC68B9256031462046FFF7DAFAE0B994F92B30002B74
:201B40000BDBA379DB0603D40520002323600EE06879E169FEF79EFEA0606B89A38000211E
:201B60002046FFF76FF80428EED00028EDD170BD0920FCE70428E7D0E7E713B501A904462C
:201B8000FEF732FB00B9206002B010BD73B50D4601A90446FEF728FB20B9014620461DB988
:201BA000FFF750F802B070BDFEF7CCFF10F0FB06F8D129462046FEF73AFB31462046FEF7AD
:201BC0006CFF042808BF0020ECE770B50E468CB0002104461546FEF74DFC0094044670B9F4
:201BE00031466846FFF782FA044640B99DF92B30002B07DB1DB129466846FEF718FB2046B4
:201C00000CB070BD0624FAE72DE9F84F884600210446FEF72FFC054640B9D4F820A0A3693E
:201C2000AAF10202934204D8C8F800302846BDE8F88F6379012B17D1022706463946204680
:201C4000FEF730FE431C34D0012834D000B90136236A0137BB42F1D8C8F80060237AA66192
:201C600043F001032372E1E7E16A0746064604F13C0937B9204601F1010BFEF7ABFBE0B92A
:201C800059466379022B09EB07000AD139F8073003B901360237BAF1010AC7F30807E8D1FA
:201CA000DAE7FEF771FA30F0704308BF01360437F1E70125D0E70225CEE70546CCE7F0B5C3
:201CC0000E4699B002210546FEF7D4FB044688B9314668460095FFF709FA044650B99DF80F
:201CE0002B3098063BD4190639D49DF80670FA0703D50724204619B0F0BD07996879FEF74F
:201D0000C9FDFB0606460BD46846FEF7FEFF04460028EFD1D6B92846FEF771FD0446E9E785
:201D2000EB698342E5D00E9021460CA80C95FEF789FF04460028DDD101460CA8FEF702FFED
:201D400004460028D5D00428D4D1DDE7024631460098FEF7FDFD04460028CBD1DBE7062497
:201D6000C8E72DE9F0410E468CB002210546FEF781FB0446002868D1314668460095FFF7A3
:201D8000B5F9044600286ED004285ED19DF82B1011F0200169D12846FEF710FE0646002879
:201DA00057D0012857D0431C5C425C4156F0B0F90746002C51D131462846FEF7F6FC044672
:201DC00000284AD14FF02033EB632B64C5F843302E2385F83C30102385F84730394605F14B
:201DE000520005F13C04FEF7D1F9324621462846FEF7DFF905F15C031A4651F8040B42F83B
:201E0000040B9942F9D12E23029A85F85D3028464FF00108FEF7CDF985F807806846FFF7FE
:201E20003FF80446C8B9079839461630FEF7AEF9324607992846FEF7BCF9079B1022DA7250
:201E400085F80780FEF7DBFC044620460CB0BDE8F0810724AAE70224A8E7002231462846B8
:201E6000FEF776FDF1E70824EFE70624EDE7F0B50D46A1B0022104461746FEF7FBFA0028FD
:201E800077D1294608A80894FFF730F9002870D19DF84B3013F0A00F6DD10F9B6D4603F166
:201EA0002006186859682A4603C20833B3421546F7D108AE0FCE14AD0FC50FCE0FC596E8DC
:201EC0000F0085E80F00394614A8FFF70FF948B9169A0A9B9A4203D1189A0C9B9A4203D030
:201EE000082046E0042844D114A8FEF7D9FF00283FD11B990DF10D0301F10D020DF11D00B4
:201F000053F8045B42F8045B8342F9D1188810809B7893709DF80B30DA0658BF43F020038C
:201F20000125CB72E571CB7ADB061BD50A9A169B9A4217D06079FEF7ADFC01462046FEF7A1
:201F40002DF90146C8B12046FEF744FA88B994F85D302E2B06D1169A04F15C012046FEF71B
:201F600028F9E57108A8FEF7D0FE10B92046FEF746FC21B0F0BD0620FBE70220F9E7000089
:201F8000F0B595B0064601910221FEF773FA0446002833D102AF4FF02033029305467B6080
:201FA000C7F80730019B1B781F2B20D89DF80830E52B22D01DB16B1EFA5C202A30D00021D3
:201FC00008A808960A91FEF73DFE0446B0B9012108A8FEF7B7FD70BB0F9A1DB33B4603CBC7
:201FE0001060516019889B78937211811CE001A8FEF7BBF9B0F5803F03D30624204615B098
:020000040800F2
:20200000F0BD57F07FFD40F2B51157F047FD0028F3D01D4A12F8013B83B39842FAD1ECE787
:202020001D46C7E7E52313700123F3713046FEF7E6FB0446E2E70428FBD1002DDED0012128
:2020400008A8FEF740FE04460028D7D1202201460F9841F07BF80F9B0822DA720F9ABDE742
:20206000092DCAD814AB2B44020A03F8482C013514AB2B44013503F8480C93E7FF28EFD88E
:202080000A2DF5D9B9E700BF4D5107082DE9F04FD0F800808BB01C4600234371029103790F
:2020A0000193154605210DF11F02404600F020FB9DF81F30DA0700F17D825E0700F17C8252
:2020C00008AA0321404600F013FB30B9089A531EB3F5004F01D21A4201D0012308935DB1E6
:2020E0005A4BA5F500729A4203D913200BB0BDE8F08F6B1E2B42F8D1002C00F05F82149BFA
:20210000B3F5007FC0F05A82019B002B62D0012300222146404600F0C7FA08B10120E5E789
:20212000B4F8FE214AF655239A4201D00E20DDE7019B04EB031202F5D77392F8B221002A15
:20214000F4D003F10800FEF71FF8074603F10C00FEF71AF80990DDF824B0BBF1150FE5D98F
:20216000B5F5813FC1D2029B13F0020305934FEA5522029B41D003F00703022B00F02C82FF
:20218000029BD80740F12882002A3FD130484FEA1B35012630F8023B0BB1AB4234D940F635
:2021A000F573BBFBF6F59D429BBF05EB4505013502356D088CBF6D0003354FF0200305F278
:2021C000FF1504938CBF4FF002094FF001096D0A012324E209AA0121404600F089FA0028DF
:2021E0009CD1029B13F0080F099B14BF00273F27BB429BD3DB1B0993ADE7D907C4D474E753
:202200005200F0E11346F5E17600C3E71646C6E7B9F1020F1ED103994FF6F570814208D9AF
:20222000002A40F0D5817600402E00F230823246AAE7039940F6F570814213D8002A7FF4DB
:2022400075AF7200802A9FD970E700BF00FEFF0060510708039940F6F57291423FF666AF9D
:202260004FF001094FF4007200212046059340F06DFFD34A059B1168A373C3F30723B9F1CF
:20228000030F2160E373516861604FF0010323741189927AA2720CBF00234FF4007302227F
:2022A0001B0ABBF5803F218122736673A37480F01D8184F813B0CBF3072B84F814B0F823CB
:2022C00063753F2323764FF0000BFF2384F819B0A37684F81BB0394604F11C00FDF756FF41
:2022E000B9F1030F40F0088155F012FF014604F14300FDF74BFF294604F12400FDF746FF95
:20230000022384F82C30012384F83030062384F83230802384F84030292384F84230A94BFC
:2023200084F82DB084F82EB084F82FB084F831B084F833B004F1470203F1100153F8040B36
:2023400042F8040B8B42F9D119889B7893704FF05503118084F8FE316FF0550384F8FF31B0
:202360003A4601232146404600F0ADF9834600287FF4D4AEB9F1030F3ED10123BA1D214623
:20238000404600F0A0F94FF400725946204640F0DDFE5223237063706123A37084F8E73163
:2023A000039B41227221E27084F8E41184F8E51184F8E621591E04F5F470FDF7E7FE0223FF
:2023C00084F8EC314FF0550384F8FE316FF0550384F8FF31FA1D0123214684F8EDB184F887
:2023E000EEB184F8EFB1404600F06DF90123FA182146404600F067F9149B23F4FF7222F08A
:2024000001020021204640F0A1FEB9F1030F40F09080F8232370FF236370A370E3702371CA
:202420006371A371E37123726372A3720F23E372149B5B0A0393039BAB4228BF2B46214666
:20244000524640469B4600F03EF9014600287FF465AE4FF40072204640F078FEB5EB0B05F0
:20246000DA44E8D1049BB9F1030F18BF1E46039BB34228BF33465246214640461D4600F024
:2024800022F900287FF44AAE761BAA44EFD1B9F1030F58D0099BB3F5803F56D2B9F1020F7D
:2024A0000CBF04250125019B002B50D0002201232146404600F0F8F8024600287FF42EAE49
:2024C000019B04EB031383F8B25101232146404600F0F9F800287FF421AE00221146404682
:2024E00000F006F9003818BF0120FFE5594604F12000FDF74BFEE2E655F00AFE014604F197
:202500002700FDF743FEC5F30723E375802384F82430292384F826302B4BA57504F12B02E2
:2025200003F1100153F8040B42F8040B8B42F9D10AE7B9F1010F2549204618BF6FF007019F
:20254000FDF724FE74E70C25ADE70625ABE7029B1B07C2D401994FF40072204640F0F6FD5B
:20256000099A84F8C251552384F8FE31AA2384F8FF313A4443F6C163B2FBF3F2FE2384F883
:20258000C331930843F03F03012684F8C43184F8C521394604F5E37084F8BF6184F8C06139
:2025A000FDF7F4FD099904F5E570FDF7EFFD019A33468BE7032099E50A2097E5112095E5EE
:2025C0008C50070898500708AC500708F8FFFF00059B002B3FF4AAAD002A7FF413AE3048ED
:2025E0004FEA5B45012230F8023B1BB1AB427FF607AE0023BBFBF2F02A4E8500A0F57F408B
:20260000F63805F20725B0424FEA55253FF68EAD16461A46002304934FF0030920230498B4
:20262000DDF820E007EB030A05EB000CD4440EF1FF306044CEF1000E00EA0E00A0EB0C0084
:20264000B9F1030F06BF1B1882442D18C7EB06108444E345FFF46AAD0498ABEB0000C01AED
:20266000B9F1030FA0EB0500B0FBF6F003907FF4CFAD03994FF6F57081423FF6F3AD002AF3
:202680007FF454AD012E7FF651AD7208A4E7059B002BA4D1802E3FF649AD32467FE500BF6B
:2026A0006E510708FFFFFE0F10B50C4611461A4638B1234604303CF0B1FB003818BF0120E5
:2026C00010BD0420FCE710B50C4611461A4650B1234604303CF0E8FB10F11E0F05D0003870
:2026E00018BF012010BD0420FCE70220FAE7000070B50D4614460646002833D0244A01F063
:202700000703D15C00292FD0002204303CF01CFC062D27D8DFE805F008050A16261919004D
:2027200006202AF0B1FE2060002070BD062805D14FF4007323802388B360F5E72AF0A4FE2A
:202740002080F8E701232360EEE7062801D0430806D1336A002B0CBF042300232370E3E723
:202760000123FBE70420E0E7062DFBD801A353F825F000BF29270008212700083127000897
:2027800045270008652700085327000853270008048D0608086833F09CBA0000022970B555
:2027A000044615461E4613D15368012B0AD0022B0CD01BB91168201DFFF72DF9A3692B6025
:2027C000002070BD81692B681944F4E70169FAE701290AD10430FFF72AF80028F0D0084B20
:2027E0001B5C33604FF0FF30EBE7042906D14368002BE5D00430FFF751F8EEE71623F0E7A8
:20280000448D060837B51D46043001AB1446FEF74EFF38B1064B1B5C2B604FF0FF342046FA
:2028200003B030BD019BA342F9D01C23F4E700BF448D060813B51C46043001ABFEF7A1FE58
:2028400030B1044B1B5C23604FF0FF3002B010BD0198FBE7448D06082DE9F8438146506837
:202860000E46904630F086FD2E4A2F490138002410F8013FD3B92C201DF01CFC0746054661
:2028800047F8046BD8F8000030F074FDE3B20246394609F14400FEF7ADFD0646C0B32846C3
:2028A0001DF022FC214B985D29F0CAFF782BDFD8712B08D8612B24D0622B25D02B2BD7D1D4
:2028C00044F00304D4E7723B062BD1D801A555F823F000BFF1280008712800080D290008B6
:2028E0007128000871280008F7280008FD28000844F00104BCE744F00A04B9E744F0060446
:20290000B6E744F01204B3E70E46B1E71646AFE7E30603D529693846FFF77DF82846BDE809
:20292000F88300BF948D0608588D0608448D060830B587B0044603AD084611461A46064BF0
:202940000093019503232AF087FA2A4621460020FFF782FF07B030BD2C8D06081FB50623B7
:20296000CDE901120349039301AAFFF775FF05B05DF804FB948D060813B50446084601916D
:202980002AF0F6FC019B04490246204602B0BDE8104000F0A5BF00BF0C8D06082DE9F74FD7
:2029A000062907469DF8300010D8012905D93F2307F8013B00233B7001E00029FAD101297C
:2029C00094BF0020012003B0BDE8F08F10EE104A002C3C4622DAB4EE400AF1EE10FA1DD6C2
:2029E0002D2004F8010BB1EE400A9FEDC57AF0EEC07AF4EE477AF1EE10FA02F0200912DD20
:202A000089F04903237089F0460589F04E036370E01CA57000230370C01BD4E70028E4D0E4
:202A200004F8010BE1E7B4EE400AF1EE10FA08D749F04E0389F0410523706570E01CA37052
:202A4000E8E7002B42F02006B8BF0623672E02D1002B08BF0123E01B091A10EE100A0028A8
:202A600001F1FF324CD1662E3BD1581C9042A8BFCB1E4FF000085A1C6621404645466529FD
:202A800023EAE37A40F00C810AF10102002301934FF02E0BB2EE047A019B9A4200F30981CF
:202AA000662E40F03781954240F39481B8F1000F13D00A2195FBF1F393FBF1F201FB123290
:202AC00001FB135349F045093032303384F8009084F80180A270E370043400232370E01BF1
:202AE00071E7581D9042A8BFCB1F652E31464FF0000240F0CF804FF02B0810461546BEE754
:202B0000B0F17E5F6ED2DFED7F7ADFF80082DFF800C2B4EEE70AF1EE10FAACBF4FF0310ADF
:202B20004FF0300A06204FF0200E0025B8EC017AB4EEC07AF1EE10FAC2BF9CED007A754443
:202B400020EE070A01384FEA6E0E0CF1040CEDD110EE100AB0F17E5F29D2B4EEE70AF1EE9A
:202B600010FA1FDB002D14BF4FF02D084FF02B08B7EE000A662E03D0672E29D1042D27DC92
:202B8000672E04BF05F1FF301B18581C9042A8BFCB1E84F800A06BB901341A4698464FF0FD
:202BA000FF3057E0F2EE047A20EE270A01354FF02D08DFE72E22627030211A460234013D5B
:202BC0006AD00AB99046EAE704F8011B013AF6E78A1F9A4202DC672E60D0CB1F3146002276
:202BE00010464CE7DFF82881DFF820C106204FF0200E0025F8EC017AF4EEC07AF1EE10FAF8
:202C00009EBFDCED007A754420EE270A01384FEA6E0E0CF1040CEDD1FDEEC07A17EE900A9F
:202C20000928C2BFDFED387A013520EE270A662E12D1954219DA59190131914205DB521BEA
:202C4000012AA2F1020308BF0023EA18013228464FF00008662112E7652E06D0672E0ED081
:202C6000314600224FF02B08BAE78A1F9A4200DCCB1F00224FF02B0810466521FFE6181DD3
:202C8000904200DB8B1F9D4201DB6721E9E76A1C9B1ADAE7904630E7A84680E713469DE7AF
:202CA00067297FF4F3AE002BDABF012292465246ECE6FDEEC07A04F1010E17EE903A002B24
:202CC000A8BF03F1300C019BACBF5FFA8CFC4FF0300C984284F800C006D1BAF1000F03D080
:202CE00004F1020E84F801B0F8EEE77A019B30EE670A013320EE070A01937446CCE600BF1E
:202D0000FFFF7F7FF8FF7F3FCDCCCC3D5836060870360608F1EE047AB4EEE70AF1EE10FA37
:202D200038DB621E302013782E2B934602F1FF32F9D0A3F1300CBCF1090F3DD90BF1010B53
:202D40009BF80030302B25D19BF801202E2A3FD166293DD0B8F12D0F8BF800208BF801306B
:202D600034D1013D08BF4FF02B085C450BF10100ABEB0401A0EB04003CBF00210120A4EB43
:202D80000B02214438BF0022204440F0CBF931238BF80030672E7FF489AEBAF1000F3FF41D
:202DA00085AE23461C46013B14F8012C302AF9D02E2A08BF1C4679E6392B03D001338BF8AF
:202DC0000030BDE7BB455070ADD1B9E70135CCE70134CAE7F1EE047AB4EEE70AF1EE10FA99
:202DE0009FDA63E608B5044631B1054B4A6C0360096800232CF0B4FB20461DF029F900BF0C
:202E0000D04606082DE9FF471E460192451812B1023A222A34D80446AC42274639D214F8CB
:202E2000010B1EF0C5F980460028F5D13B782B2B29D12746E91B384601AA27F0FEFF07440A
:202E4000B9460024A9454B4626D3B8F1000F00D06442640044F00104BB4209D01F46AF42E0
:202E60003B4641D2187801371EF0A2F90028F6D12049019A20482CF037FB3146FFF7B2FF86
:202E80001E4829F0CFFA2D2B04BF27464FF00108D0E74FF00008CDE719F8012BA2F1300A5E
:202EA000BAF1090F09D95F2ACCD042F02002A2F161011929C9D8A2F1570A01995145C4D95B
:202EC000204636F0F7FD28B9019B03FB04A494EA4403B7D5019B03974246E91B03A82DF074
:202EE000F9FC039B0446B7E7C2D1204604B0BDE8F08700BF9D360608C0470608883606080D
:202F00002DE9F04F2DED028B83B00446DDF83880019391464618B442254680F031812878BF
:202F20001EF046F9013407460028F4D12B782B2B09D125468246B4420CD30023DFED938AEE
:202F40001F4618468BE02D2B03D125464FF0010AF1E782462B7843F02003692B32D1AB1C6B
:202F60009E4240F205816B7843F020036E2B40F0FF80AB7843F02003662B40F0F980EB1D7D
:202F80009E4205F103041AD9EB7843F02003692B15D12B7943F020036E2B10D16B7943F0A3
:202FA0002003692B0BD1AB7943F02003742B06D1EB7943F02003792B01D105F108049FEDD0
:202FC000748A14E06E2B2AD1AB1C9E4240F2D0806B7843F02003612B40F0CA80AB7843F0AD
:202FE00020036E2B40F0C4809FED6A8AEC1CBAF1000F01D0B1EE488AA54209D0B4422346FE
:2030000080F09880187801341EF0D2F80028F5D1614962482CF0D2F94146FFF7E3FE0023E1
:20302000DFED5A8A9FED5E7A0093AC4618461946F2EE046A644614F801EBAEF1300BBBF1C4
:20304000090F38D8022922D1564A904202DC0A2202FB00B0A6425ED8009A02B140420344CD
:2030600013F1250FBEBFDFED507A253368EEA78A13F1090F53D35B4200EE903AB2EE040AE1
:20308000F8EEE00A3DF0A6F888EE808AAFE7F4EEC78AF1EE10FA0BD507EE90BAF8EEE77AFD
:2030A0000129E8EEA67AF0EE678A31D1013BD1E729B90133CEE721B9BEF12E0F03D10121A4
:2030C000C8E7022917D04EF0200BBBF1650F12D1A64258D99CF801102B2905D10CF10204D8
:2030E000B44295D00221B5E72D2913D101220CF102040092F4E7B9F1000F04D04EF0200BF3
:20310000BBF16A0F09D0BEF15F0FA3D06446A3E700219FE70221A4468CE74F469CE707EEB9
:20312000903AB2EE040AF8EEE70A3DF053F828EE808A5CE77FF46CAF57B19FED140AF0EE47
:20314000480A03B0BDEC028BBDE8F04F2BF0DCB9019B23B1DFED0D0AB0EE480AF1E7B0EEE7
:20316000480A03B0BDEC028BBDE8F04F2CF008BBBAF1000F3FF44CAF9FED048A2C4639E7BD
:203180004FF0000AD9E63FF443AF65E7000000000000807F0000C07FA9360608C047060876
:2031A000EC78AD6064666606EA1C08020846114640F04CBE37B505460846019140F000F83A
:2031C000044620B102466B68019928689847204603B030BD2DE9F74F89469DF8301017464D
:2031E0000D9A11F0DF0F0646A2EB07023DD0302925490CA813BF804688464FF0100A4FF0D1
:20320000010A13F0800535D002EBD2746510A2EB6404002D35DDAB46DA455246736830681F
:20322000A8BF5A46414601929847019AABEB020BBBF1000FF0DC2FB1736830683A46494667
:2032400098473D44002C0CDD2544A2455746A8BF2746736830683A464146E41B9847002CB4
:20326000F3DC284603B0BDE8F08FDFF820804FF0100AC6E713F0010401D11546C9E714467E
:20328000D9E70025D7E700BFB5260608A42606082DE9F04389B006460020119D9DF8488012
:2032A000139F8DF80F000AB381421ADA2D228DF80F204942109A08ACA2F10A000DF11009B4
:2032C000B1FBF3FC03FB1C12092A8CBF1218303204F8012D4C458E4661460ED07345EFD989
:2032E0000BE0A80727D52B228DF80F200029E1D130238DF81F300DF11F0415F040099DF831
:203300000F301CD023B30122CDE900822B460DF10F013046FFF75EFF013F814608AACDE99A
:2033200000872B46121B21463046FFF753FF484409B0BDE8F0836A07D8D52022D4E7002BA0
:20334000ECD004AA9442E9D904F8013C013CE5E79946E3E72DE9F04F93B01E469DF874304B
:203360000793CB07DDE91E871C9D81460C4692460BD4880703D109687F4B994205D0204639
:203380002AF082F8400040F0010415F0810306D1079A302A03D1B845B8BFB8461F462046B8
:2033A0002DF0AAF900280DF1280B18DBA90712D52B238DF828300DF12901EB06F6B21DD58C
:2033C000BAF1020F0DD10B46302003F8020B701C4870194612E06A0701D52023E9E759461C
:2033E000EBE7BAF1080F62D1A8054FF030030B7045BF06F10E034B7001310231002315F018
:20340000200FA1EB0B020B700CBF19462C21012F0EA8C8BF45F0400506920B9015F0400291
:203420004FF01000CDE90C03CDE902618DF82730059246D0CDE900A30DAA23460CA90BA8F5
:203440002DF036F803782D2B824606D18DF827300D9B013B00F1010A0D93012F40F38480EC
:203460000D9C059BBC42B8BF3C462BB19DF8273003B10134069B1C44A0452DDD15F0010362
:20348000A8EB040429D126461C4625F001054EB1202300930023019638491A464846FFF7BA
:2034A00099FE0646059BD3B9302307933AE0BAF1100FA3D10B46302003F8020B06F1170001
:2034C00086E70AABCDE900A30DAA23460CA90BA82CF0EEFF8246C0E700240026D5E7302318
:2034E00007939DF827305BB100230122CDE900320DF127014846FFF76DFE08F1FF3806447D
:20350000069B63B100230122CDE900325946069A4846FFF75FFE069B0644A8EB0308012FEF
:20352000D8BF4746079B00930D9A01972B4651464846FFF74FFE06444CB1202300930023DA
:203540000E4901941A464846FFF744FE06440B980EAB984201D01CF0C7FD304613B0BDE85A
:20356000F08F00242646BCE7059B002BF9D11C461E464746D6E700BF104D06086BEC060865
:203580002DE9F04316468BB0B207DDF84890074698463DD416F0040F0CBF002320230093CC
:2035A0000A46139B202102A8FFF7F8F9F30504460DD5431C1F2B0AD80AAA1444252204F83D
:2035C000202C0AAA1A44002102F8201C1C4616F040051FD09DF808302F2B4FF000031BD83E
:2035E000012202A9CDE900323846FFF7F3FD09F1FF390546013C0DF10901CDE90089334637
:2036000022463846FFF7E6FD28440BB0BDE8F0832B23C4E702A9F0E702A91D46EDE700004F
:203620002DE9F04F824689B0144600260B461D4613F8012B82B9A94211D30B78002B00F021
:203640004681013120234FF000080A4612F8015B7DB94FF00A0C2AE0252AE8D1EBE76F1A39
:20366000DAF80430DAF800003A4698473E442946E3E72D2D03D148F001081146E5E72B2D6E
:2036800002D148F00208F8E7202D02D148F00408F3E7212D02D148F00808EEE7302D22D16A
:2036A00048F040082B46E8E70CFB0525303D0F4611F8012BA2F130000928F5D92E2A42D1F5
:2036C0007A782A2A11D00A464FF00A0C0021174612F801BBABF13000092809D80CFB01BB39
:2036E000ABF13001F3E70025B3E754F8041B023721EAE17B3A786C2A08BF013797F80090F3
:20370000B9F1000F00F0E380B9F1780F6BD8B9F1570F1BD8B9F1470F62D8B9F1440F62D9B4
:20372000073424F00704F4E80201049359F06CFCCDE9005B00EE100A049B424649465046A3
:20374000FFF71EFF63E04FF0FF3BD3E7A9F15802202A48D801A151F822F000BF9D380008E9
:20376000E7370008E7370008E7370008E7370008E7370008E7370008E7370008E737000819
:20378000E7370008F93700081B38000881380008213700082137000821370008E737000869
:2037A000E7370008E7370008E7370008E7370008E7370008E7370008E7370008BF38000800
:2037C0002F380008E737000859380008E73700089D380008E7370008E73700089D3800088F
:2037E000B9F1500F6BD0DAF80430DAF8000001223946984701360BE054F8042BCDE90035A4
:2038000043463AB1344904225046FFF7E3FC0644791C0BE731490522F6E754F8042B8DF8D7
:203820001C20CDE900350122434607A9ECE707A954F8040B04931DF08EFABBF1FF3F049B72
:20384000014604D0079A934538BFCDF81CB0CDE90035079A4346D7E754F8041B0593084628
:2038600004913FF0ADFCBBF1FF3FDDE90413024602D0584528BF5A46CDE900354346C3E7B8
:20388000CDE9023561230093CDF804800A23012254F8041B5046FFF7FBFCB8E729F00F02D4
:2038A00009F101010F3A01F00601D2B2CDE90235CDF804800092C1F110030022E8E7CDE913
:2038C000023561230093CDF804801023F5E7304609B0BDE8F08F00BF9026060895260608A3
:2038E0000EB403B503AA52F8041B0192FFF798FE02B05DF804EB03B07047000000000000B9
:020000040802F0
:20000000024B5A69026058610020704710000020024B5A6912685A61704700BF10000020C3
:20002000C460056146618761C0F81C80C0F82090C0F824A0C0F828B0C0F82CD080ED0C8B27
:2000400080ED0E9B80ED10ABC0F808E0FFF7D8BF104908B54B690BB92DF05EFC1A685860F6
:200060004A611846C468056946698769D0F81C80D0F82090D0F824A0D0F828B0D0F82CD072
:2000800090ED0C8B90ED0E9B90ED10ABD0F808E0012070471000002010B50021044600F016
:2000A000B3FA18B914B120460CF0A8F910BD002100F0AABA10B50121044600F0A5FA18B927
:2000C00014B120460CF09AF910BDFFF7E5BF10B501220C4600F0AAFB18B914B120460CF038
:2000E0008DF910BD00F0A2BB00F062BB2DE9F0432A4C00254FF0030CD4F880620021013120
:2001000043189A0803F00303B25C5B0042FA03F303F00303022BF2D0D4F88C32090103EBE4
:2001200000104FEA910E81B300EB8E0E03681A0728D1D4F88C229A4224D89A1AC2F30111CA
:200140004F00D4F8901299424FEA92164FEA121218D9D4F8808218F8069049FA07F101F038
:20016000030101290ED10CFA07F305F5A6773F2D43EA090308F806309ABF24F8172001359E
:20018000C4F8941204307045D0D12DB1013D05F5A67334F81300AFE7BDE8F0831000002027
:2001A00030B51C4CD4E9A253C01AC109C0F3021E6B5C012202FA0EF223EA02036B54D4F846
:2001C000242383094FEA101CB2EB901FD4F8800288BFC4F82433C15C4FEA9C0E0CF00303F1
:2001E00003255B0005FA03F321EA030300F80E300CF1010CD4F880024FEA9C0E0CF0030303
:2002000010F80E105A0041FA02F202F00302022AE7D030BD1000002021F00F0138B5154ACB
:20022000154D0C1AE400A2FB0424640A03462344C5F888322246A1EB8413C5F890120021ED
:20024000C5F88C32C5E9A00422F080FFA2000732D2080021D5F8880222F078FF0023012145
:200260004FF0FF32C5E9C732C5F824332B81A5F8181338BDF32C23FA10000020024A138996
:2002800001331381704700BF10000020024A1389013B1381704700BF10000020024B1889A4
:2002A000003818BF0120704710000020F8B51C4D2B8900220133C5F81C232B81C5F89422EC
:2002C00005F1080405F5F076032754F8043F1A071AD1D5F88C02834216D3D5F89012181A4D
:2002E000C0F301128B424FEA901C4FEA42024FEA101009D2D5F8801211F80CE04EFA02F344
:2003000003F00303012B02D0A642DED1F8BD07FA02F242EA0E0201F80C20FFF7E7FEF3E78F
:2003200010000020A1B32DE9F8461A4E8A46051F0024032755F8043F1A0704F101041AD1A5
:20034000D6F88C02984216D8181AC0F301124FEA420CD6F890229A424FEA901E4FEA10105E
:2003600009D9D6F8801211F80E9049FA0CF303F00303012B03D0A245DCD1BDE8F88607FAA2
:200380000CF242EA090201F80E20FFF7AFFEF2E7704700BF100000202DE9F04F574ED6F817
:2003A0008432D6F8942285B09800CAB10025C6F89452002844D00024D6F88012A20804F094
:2003C00003038A5C5B0042FA03F303F00303032B3FD001348442EFD3D6F89432002BE6D13B
:2003E00070B34FF0000C654603274FF001094FF0020804E0012B4AD00135854220D2D6F841
:2004000080E24FEA950A05F003041EF80A20640042FA04F303F00303022B0EEB950128D022
:20042000032BE7D108FA04F422EA04020EF80A20D6F884320135980085424FF0000CDED385
:2004400033890022013BC6F82423338105B0BDE8F08F2046FFF74AFED6F884320134B4EBF4
:20046000830F4FEA8300A7D3D6F89432002B9ED1B6E7BCF1000FBFD007FA04F422EA040293
:200480000A70D6F884324FF0010C9800B4E7D6F88802EB0805F0070B10F803E0019300EB23
:2004A000D50C4EFA0BF0C307E6D5D6F88C022901415800EB0510A9B102AAB1210BF094F914
:2004C000DDE9013242B10CF0FDF9DDE902010CF0C9F90CF00DFA019BD6F8882212F803E0B3
:2004E00002EB030C09FA0BFB2EEA0B0E8CF800E0D6F8801211F80A205144BDE71000002066
:20050000044B1A8900210132C3F894121A81FFF743BF00BF100000203A4A2DE9F047D2E926
:20052000A3410023091BD2F880620160D2F88412C0E90133C0E90333C0E905334FEA810CC0
:200540001D469E461F461C461A4699461946984616F8093049000B4103F00303012B47D0F9
:20056000022B41D0002B38D0013294450ED04FEA920902F0030116F809304FEA410A43FA4E
:200580000AF313F0030301D0012BE1D1012C11D0022C02D14169013141618169A14238BF55
:2005A000846194450FD0012B26D04FEA920902F00301CDE70169013101618169A14238BF3C
:2005C00084619445EFD1474500D9C7602D014FEA0E13C0E90153BDE8F0870EF1010EC0F8AA
:2005E00008E001371C46BFE7013545600134BBE7013545601C46B7E7B84501D2C760B84651
:200600000027D2E7100000200F302DE9F843060950D0664C2389002B4CD1B4F81833002B43
:200620000D460CBF4FF0010E4FF0000E46D1D4F82403D4F88472874239D9D4F880C2411EED
:20064000614400221AE00132964252D913F00C0F1ED10132964240F2A08013F0300F1CD10A
:200660000132964240F29C8013F0C00F1AD10132964240F298800130B84218D211F8013FB1
:2006800013F0030FDFD013F00C0F4FF00002E0D013F0300F4FF00002E2D013F0C00F4FF041
:2006A0000002E4D00130B8424FF00002E6D3BEF1000F13D000231846BDE8F883D4E9C72376
:2006C0009A42B4D333F0E8FFD4F82403D4F88472B84238BF4FF0010EAFD3EBE733F0DCFF67
:2006E000D4F82403D4F8847287424FF0010EA4D8E0E78000811A012A01F1010703D1431C78
:200700009B08C4F824334FEA970E07F003031CF80E904FEA43080123023103FA08F343EA96
:20072000090388420CF80E3013D34FF002084FEA910CD4F880E201F003031EF80C905B006A
:2007400008FA03F3013143EA090388420EF80C30EDD2D4F81C33D4F88C823344C4F81C33F4
:2007600008EB071312011846002122F0EFFCEA074FEA071603469ED50022D4F8880248F822
:200780000620F9080122445C07F0070702FA07F7274347541846BDE8F88380000130A9E7AC
:2007A00080000230A6E780000330A3E710000020034B1A8912B908B1FFF7F2BC704700BFFE
:2007C0001000002010F00F021CD11749D1F88C32834218D810B4D1F8904284420ED9C31A66
:2007E000D1F880429909C3F30110615C4000014101F0030101294FEA131306D010465DF8C7
:20080000044B704700221046704701329918880801F00301205C490040FA01F101F0030154
:200820000229F2D01201E9E7100000202DE9F84F89460646002800F09F80544D2C8900298A
:200840006FD0002C6FD1D5F88C12D5F88432411A4FEA111E0EF1010709F10F0CB7EB830FEC
:200860004FEA830A4FEA1C1C234680F08B80D5F880024FF00108BC0807F0030B045D4FEA63
:200880004B0B44FA0BF404F00304022C4FD024B9013303EB080464454BD3C4453DD04CD376
:2008A000434463451DD2002A3DD0D5F88832C9090EF0070E595C41FA0EF1484601F0010107
:2008C000FFF7A2FE044670B34FEA0812314622F0F9FB2B8913BB3046FFF762FC2046BDE8EE
:2008E000F88F0EEB0802E64496450ED902219008D5F8804202F00303275C5B0001FA03F371
:2009000001323B4396452354F1D1ACEB08021201002106EB081022F019FC34462046BDE888
:20092000F88F002CD8D000242046BDE8F88F08F101080137BA459ED1AFE7F4446046C64480
:200940004FF003098708D5F8801200F00303CC5D5B0009FA03F3013024EA03037045CB55D1
:20096000F0D1D5F82433B3EB9C0F4FEA9C02D4D9C5F824233446D1E701464846BDE8F84FCE
:20098000FFF742BE4FF0010887E700BF1000002010B58AB003A8FFF7BFFDDDE90430094C11
:2009A000039A009008492046E2F79AFFDDE908310698079ACDE9001004492046E2F790FFC2
:2009C0000AB010BD9C260608ACD30508D0D305082DE9F047DFF868A14A49DAF88C224A48B2
:2009E000E2F77EFFDAF88402800078D0DFF85491DFF85481444F00250EE0012E48D02E22DC
:200A000042493846E2F76CFFDAF884320135B5EB830F4FEA830062D205F00306AA06DAF829
:200A200080124FEA46060BD0AB08CB5C43FA06F606F00306022E29D0032EDED16D22DFE754
:200A40002C46A20804F003038A5C5B0042FA03F39B0702D101348442F3D3621B7F2A0CD9CC
:200A60002B4992093846E2F73BFFDAF8843224F03F05B5EB830F32D20026414609EA051209
:200A80003846E2F72DFFDAF88012CDE73D22B7E7DAF88C221F492B01D2588A421DD01E4B5E
:200AA0009A4222D01D4B9A4223D01D4B9A421ED01C4B9A421BD01C4B9A421CD01B4B9A4260
:200AC00019D01B4B9A421AD01A4B9A4215D01A4B9A420CBF4D22682292E7542290E7BDE8CB
:200AE000F04716490848E2F765BB4C2288E7532286E7442284E7412282E7422280E7462288
:200B00007EE700BF18D405089C2606085CD4050838D40508145D06087C4E06089840060855
:200B2000945A0608305806089C3C0608243C0608C0480608504906083050060834D405086F
:200B400010000020F0FF0F0054D40508054B1B6A5A68824204D8801A043053F8200070470B
:200B60001B68F5E710000020014441F20553884204D398B2012838BF0120704710F8012BFF
:200B800003EB43135340F2E7034B044A1A620022C3F8E421704700BF100000206CDA0608B1
:200BA0002DE9F84F80460D46FFF7DEFF134B1C6A07460CB920461EE0E36804F1100B0BEB41
:200BC00083095E464E45B24601D32468F1E756F8040B0388BB42F5D18378AB42F2D12A465C
:200BE0004146033022F0DAFA0028EBD16068AAEB0B0A00EBAA00BDE8F88F00BF100000204F
:200C00002DE9F04780460E46FFF7CAFF0246002877D1FF2E03D9404940480AF05BFE404CFD
:200C2000D4F8E401351D90B1D4E97A132B448B422BD92944FFF756FA0746E8B90246D4F831
:200C4000EC11D4F8E401FFF74DFAC4F8E471802D2F4638BF80273846FFF729FAC4F8E401A0
:200C6000002852D12846FFF722FAC4F8E40100284AD128460BF0C2FBD4F8E8312B44C4F88F
:200C8000E831D4F8E431002BE1D0D4F8EC91D4F8E4A131464D444046C4F8EC51FFF764FF04
:200CA0000AEB09070AF80900000A7870BE7032464146F81C22F006FAB9190026CE70236A1C
:200CC000D3E90253AB4212D36D000A2D38BF0A25281D8000FFF7EBF90028CAD0226A026018
:200CE0005368D268C6601344C0E901352062236AD9685A68481C0431D860013A43F82170B9
:200D000002441046BDE8F0872F460023C4F8E871C4F8EC31B9E700BF5FD405081C46060886
:200D20001000002010B5044622F04AFA01462046BDE81040FFF764BF08B5FFF707FF008822
:200D400008BD08B5FFF702FF807808BD08B5FFF7FDFE033008BD08B5FFF7F8FE83780B60A8
:200D6000033008BD2DE9F8431D46002303600B6013602B60174BDFF860901C6A074688460E
:200D800016460CB14C4505D12B68326813442B60BDE8F8833B6801333B60E268D8F80030E8
:200DA0001344C8F80030E26804F1100303EB8202934207D32046FFF705FD2B6824681844A0
:200DC0002860DEE753F8041B88783168043101443160EDE7100000206CDA06082DE9F8430F
:200DE0000E4B0F4F1C6ADFF83C80DFF83C900CB1BC4201D1BDE8F883E36804F1100505EB8E
:200E00008306B54201D32468F1E755F8042B414603324846E2F764FDF3E700BF1000002051
:200E20006CDA060864D405089C26060830B50023202411F8012F0AB9027030BD120600F199
:200E400001051FD50BB1047028460B78124A03F07F036BB9013A12F8013F13F0800F054620
:200E600000F101000BD003F07F032B700123E0E712F9015B002DFBDA013BDBB2E9E700F8B0
:200E8000013CE8E7012B04BF047028460B7800F8013B0223CDE700BF6BD4050838B5446841
:200EA000036821449942054611D9037BDB0703D5074800210AF00EFD01F1100424F0070480
:200EC000083480682146FFF702F92C60A86038BD1C46060870B504460E4611461546FFF732
:200EE000DDFFD4E901302A463146184422F01AF962682A44626070BD70B54668B142044689
:200F000028BF31460D460121FFF7C8FFA368681C5919721B184422F005F96368A068013340
:200F20006360284470BD38B50129044638BF01210025084621606560FFF7AEF8237BA060E8
:200F400065F30003237338BD38B505460C460131FFF7E9FF6C6038BD0023C0E90132037BD3
:200F6000016043F0010303737047000038B514460546FFF7D8FF024B2560636038BD00BF04
:200F8000D50E0208037BDB0710B5044602D48068FFF7AAF80023A36010BD13B50190102023
:200FA000FFF77AF801990446FFF7BDFF204602B010BD10B5044650B1037BDB0702D4806820
:200FC000FFF792F82046BDE81040FFF78DB810BD38B5037BDB0704460D4603D507480021FC
:200FE0000AF078FC016880682944FFF770F82368A0601D442560184438BD00BF1C46060876
:2010000038B504460D46FFF749FFD4E901301D446560184438BDD0E900239A4210B50446DC
:2010200002D10121FFF7D4FFD4E901320021D154A06810BD10B50C460121FFF7E1FF047064
:2010400010BD7F29F8B50C46CEB204D80121FFF7D7FF0670F8BD06F03F06B1F5006FC1F3A3
:20106000871546F0800607D20221FFF7C9FF65F03F0505704670EDE705F03F05B1F5803F28
:20108000C1F3073745F0800508D20321FFF7B8FF67F01F07077045708670DBE70421FFF77D
:2010A000AFFFA40C07F03F0764F00F0467F07F07047047708570C670CCE713B504460846E8
:2010C000019122F07DF801990246204602B0BDE81040FFF7FFBE10B51446FFF70DFF0470C0
:2010E00010BD10B51446FFF707FF047010BD43688B422CBF591A00214160704738B5044641
:20110000154662688A42084603D929448A4201D8606038BDA368521A1844194422F002F8B1
:201120006268521B6260F4E790F9001003780029024601DB1846704703F07F004023184236
:2011400006D112F8013F03F0C001802904D0704720EA03005B08F2E703F03F0343EA80104B
:20116000EFE7431C18460133027802F0C002802AF8D0704703460020994200D8704711F875
:20118000012D02F0C002802A18BF0130F4E701440346002099421A4600D87047127802F0EC
:2011A000C002802A03F1010318BF0130F2E700007F289DBF024B185CC0F34000002070475C
:2011C000C62606087F289DBF024B185CC0F3C00000207047C62606087F289DBF024B185C49
:2011E000C0F3800000207047C62606087F289DBF024B185CC0F3801000207047C626060813
:201200007F2809D8064B1B5C13F00C0F06D1A0F15F035842584170470020704701207047FD
:20122000C62606087F289DBF024B185CC0F3001000207047C62606087F289DBF024B185C98
:20124000C0F3401000207047C626060808B50246FFF7E8FF00B12032104608BD08B50246B5
:20126000FFF7EAFF00B1203A104608BD3038092884BF20F020000738704710B50144024615
:20128000E5240020914203D8B0FA80F0400917E012F8013B30B103F0C003802B11D101387A
:2012A000C0B2EFE7BF2B09D9F72B09D8D80800F0060044FA00F000F00300E3E71B06E1D57F
:2012C00010BD0020FCE7023981420B4603D31A880239002AF8D00233181A40107047B2EB3F
:2012E000131F70B505464FEA131614D9901B03F00F0401EB460102460E46012A31F8023BEC
:2013000018BF3368E3409BB2013A25F8023BF3D103B9013870BD0020FCE7F0B5059F002400
:20132000D21B2646A74210D100EB470C01EB47010024A24214D10CEB42031EB101212CF8DA
:2013400012100233181A4010F0BD31F8145033F814C06544354420F814502E0C0134E1E7A6
:2013600031F8145035442CF814502E0C0134E0E7F0B4049F0025D21B2C46AF420BD100EB26
:20138000470601EB470500239A420FD106EB4201F0BCFFF798BF31F81560344433F8156006
:2013A000A41B20F8154024140135E6E735F813100C4426F8134024140133E5E72DE9F04334
:2013C000079CDDF828E0DDE908760239154684464FF6FF78A4EB020955B900EB42011FB187
:2013E000012320F812300231BDE8F043FFF76BBF31F8024F013D4444264405EB0904AC42AF
:2014000096BF33F8024B4FF6FF744444744486EA040E17FA8EF72CF8027B4FEA144E360C71
:201420003F0CD9E738B502290446806838BF02210D4618B12368B1EB930F07D96900FEF71A
:2014400046FE2368A06065F39F03236038BD38B504460C20FEF720FE23682278054602F073
:201460000102C3F39D0023F0030313432B6063686B604000FEF710FEA8602268A168C2F3F3
:201480009D02520021F01EFE284638BD994210B511D313D800EB410002EB410209B90846F0
:2014A00010BD30F8023D32F8024D1B1B002B02DB04D10139F2E74FF0FF30F1E70120EFE71C
:2014C00010B5044638B18068FEF70EFE2046BDE81040FEF709BE10BD38B505460C4602219A
:2014E000FFF7A0FF002C2B78B4BF0122002262F300032B70AB68B4BF61422146023B0122ED
:2015000023F8021F090C104602F10102F8D1686038BD0023C0E900338360704728B10378BB
:201520009B0702D48068FEF7DFBD704738B505460C464968FFF776FF22782B78A86862F3BB
:2015400000032B7063686B606268A1685200BDE8384021F0B7BD09B941607047FFF7BCBF05
:2015600008B5FFF7D6FFBDE80840FFF7F4BF920042F0020210B402600022C0E901215DF81D
:20158000044B1946FFF7E7BFF8B59DF8187014461D4604210646FFF745FF22462B4627B11E
:2015A000002D0CDA624265EB4503317867F3000131700021716052EA030102D1F8BD002756
:2015C000F3E7D6E901104C1C746020F81120120C42EA03421B0CEEE72DE9F3418DED010A82
:2015E000019C0378E20F62F300030370C4F30F4313F4FF43074604D100237B6002B0BDE84E
:20160000F081B3F5FF4FF7D0C4F3C753A3F17F05002DF1DB05D1012102B0BDE8F041FFF744
:201620005BBFB3F16F0848BFA3F16008C4F31604162D4FEA281844F4000421DCC5F11705DA
:20164000EC4000252E4641463846FFF7EBFEC7F8048026B1B8687200002121F077FD45B199
:20166000BB6804FA05F223F81620C5F11005EC400136B045C2D0BB6823F81640240CF7E7AA
:20168000B3F1960605F1090548BFA3F1870605F00F053611D7E72DE9F84304468F18C2F3D9
:2016A0005B020D46511C9846089EFFF7BBFE237868F3000323700023636029461FFA86FC5E
:2016C000B942084602D3401BBDE8F8830278A2F13003092B01F1010105D9A2F14103192B10
:2016E00014D8A2F13703B342EDD2D4E901E0F0468146B8F1000F10D100EB4E0213B120F832
:201700001E300232121A52106260D9E7A2F16103192BD8D8A2F15703E5E7B9F8002002FBC5
:201720000C3329F8023B08F1FF381B0CE1E7F8B5044615461E46C1B1531E1E444FF0FF377D
:20174000E9000F3109092046FFF76CFE237800216FF30003237061604DB9D4E9011000EB54
:201760004101FFF7B0FD6060F8BD0127E8E700230F2908DC32788A401343013D9BB201F192
:2017800008013E44F4D16268501C6060A068103920F81230E0E770B5466804460EB94868FD
:2017A00080B10B78257803F0010305F00100181A08D1D1E90132A0683146FFF767FEEB0727
:2017C00048BF404270BD884210B5044601D0FFF7ADFE23786FF30003237010BD884210B519
:2017E000044601D0FFF7A2FE2378C3F30002C2F1010262F30003237010BD88421FB504468F
:2018000001D0FFF793FE626862B901212046FFF709FEA268012313806360237843F00103B0
:20182000237010E02378D9070FD5A1686FF3000323700123ADF80E30009308460DF10E03CE
:20184000FFF796FD606004B010BD511C2046FFF7E9FDD4E901210123ADF80E300093084648
:201860000DF10E03FFF759FD6060D6E72DE9F8434B6805460E46144603B12AB93146284617
:20188000BDE8F843FFF752BE02F10F014FEA111803EB1111FFF7C6FDD6E9013108EB030746
:2018A000A86807F1004214F00F0402F1FF3208BF102400EB420001EB430E814619464FF0D9
:2018C000000CC4F11004E9B96FF0010253432CFA04F4C218C452C8F1010302EB430308F1A2
:2018E000FF321846520021F031FC831E17B133F817209AB16F6032782B7862F300032B70A4
:20190000BDE8F8833EF8022D42EA0C0C2CFA04F229F802294FEA0C4C0139D4E7013FE5E704
:20192000F0B50E46496885B00546144601B132B93146284605B0BDE8F040FFF7F7BDFFF777
:2019400071FDD6E901212346A868FFF7C8FC686032782B7862F300032B70DB072DD50023F6
:201960007168ADF80E302209994201D093420FD1914222D9B36804F00F0433F812200123AE
:2019800003FA04F4013C224213D0ADF80E3008E0B76837F8137057B101239142ADF80E3050
:2019A000E8D8A968012350B90B806B6005E00133DAE7BDF80E30002BF3D105B0F0BD009322
:2019C00002460DF10E030846FFF7A7FC6860F4E773B50C4615460646D2E90132D1E901104C
:2019E000FFF754FD0028BEBF23462C461D4623782A7861685340DB0713D401313046FFF7BD
:201A000011FD6B680093D4E90121AB68B068FFF784FC70602278337862F30003337002B010
:201A200070BD3046FFF7FEFC6B680093D4E90121AB68B068FFF79CFCEBE7F7B50C461546EA
:201A40000646D2E90132D1E90110FFF71FFD0028BEBF23462C461D4623782A78616883EA19
:201A60000203B4BF01270027DB0718D501313046FFF7D8FC6B680093D4E90121AB68B068EE
:201A8000FFF74BFC7060237803F001030FB183F00103327863F30002327003B0F0BD3046F6
:201AA000FFF7C0FC6B680093D4E90121AB68B068FFF75EFCE6E72DE9F04F15464A686B68B2
:201AC0009A420E463EBF2E460B461D4633787168DB0785B0044621D42B7813F001071DD13B
:201AE000FFF7A0FCD5E9011CA068B6683B4699420BD100EB4101FFF7E6FB237860606FF35A
:201B00000003237005B0BDE8F08F36F813203CF813502A4020F813200133E8E7013120460E
:201B2000FFF780FC96F800A02B78D6F804C0A0688AEA0307FF4307F0010E47F30007BFB250
:201B4000D5E901120AF001084AF3000A02971FFA8AF703F00109019743F30003B7689BB2FD
:201B6000A1EB0C01A7F1020A0093674683460391BFB900EB4C01BEF1000F03D0012320F80E
:201B80001C300231FFF79FFB606033782A78C3F30003C2F300021340227863F300022270E2
:201BA000B0E73AF8021F019B5940039B013F8844D919B9429BBF32F8021B009B0099594001
:201BC0008944029B08EA090159401EFA81F12BF8021B4FEA19494FEA18484FEA114EC7E7C2
:201BE0002DE9F84F16464A6873689A420D463EBF35460B461E462B786968DB07044631D49E
:201C0000327812F001072DD1FFF70CFCD6E9013EA9686D68D4F808C0ED1A3A46934212D15D
:201C200001EB430100220CEB4303954214D103EB4503A3EB0C035B10636023786FF3000358
:201C40002370BDE8F88F31F812003EF8126030432CF812000132E1E731F8120023F81200D6
:201C60000132E2E701312046FFF7DCFB2A7833786968A068AD68D6E901E702F0010803F033
:201C8000010942F3000243F30003A5F1020C92B29BB20E4682460125AEEB010E46B900EBC1
:201CA0004101FFF710FB2378606043F00103C7E73CF802BF013E8BEA020BD8440EEB060BC5
:201CC000B34596BF37F802BB9B468BEA030BD94448EA090B6FEA0B0B15FA8BF52AF8025B87
:201CE0004FEA19494FEA18482D0CD7E7F0B516464A6873689A4238BF0B460C463CBF344640
:201D00001E462778337861685F4017F0010785B005463AD1FFF786FB237813F0010328D101
:201D2000D6E9012C6168A868A768891A9A4211D107EB4207002300EB4202994213D102EB35
:201D40004101FFF7C0FA2B7868606FF300032B7005B0F0BD37F813403CF81360744020F8CF
:201D600013400133E2E737F8134022F813400133E3E7CDE90277019773680093D4E9012112
:201D8000B368A868FFF71AFBDDE70131FFF74AFB3378A868DB4303F0010303932378DB43BD
:201DA00003F0010302930123019373680093B368D4E90121FFF702FB2B78686043F00103E2
:201DC000C5E72DE9F04F4B6885B006460D4614460BB1536823B90023736005B0BDE8F08FFF
:201DE00081422ED1FFF733FBB4420546074600D104466368696830461944FFF713FB326847
:201E0000B068C2F39D025200002121F09FF9AB68D6F808E0D5F804900193A36802930022BA
:201E2000636803930EEB4908F4461146039B934231D0DDF804B0CDF80090ACF10200002352
:201E400018E0824204D1FFF702FB04460746D0E70027CEE730F802AF53441946029B3BF835
:201E600002AB33F8123003FB0A130099038001391B0C009100990029ECD14146881C13B1B1
:201E8000A8F800300146A1EB0E0149100CF1020C01328046CAE7716022782B785340327837
:201EA000384663F30002327005B0BDE8F04FFFF707BB4B6870B50646144613B11378DA07AB
:201EC00002D50023736070BD636823B9BDE870400121FFF701BB0846FFF7B9FA0546204690
:201EE000FFF7B5FA012104463046FFF7F5FA636883B1A3681B88DB0704D52A4631463046B1
:201F0000FFF75FFFD4E9012101230846FFF7E7F9606038B92846FFF7D3FA2046BDE87040A9
:201F2000FFF7CEBA2A4629462846FFF74AFFDEE72DE9F04F0D4651688FB090460131029395
:201F40000646FFF76FFAD8F80420B068013252000021002421F0FAF87460D8F804102846D7
:201F60000131FFF75FFA41462846FFF7DFFA029BAF68D5F80490D3E9013A0193B3680393CB
:201F80005246019B49463846FFF780FA002823D1039A6860012313807360029A98F8003029
:201FA00012785340DB0714D5337843F0010333706B6873B14FF0FF310BA8FFF7D1FA0BAA25
:201FC00031463046FFF704FD029A29462846FFF7FFFC0FB0BDE8F08F01DA7460DDE7019BC1
:201FE00003F10042013A4FEA420E3AF81230180404F1010151D509F10103002127F81910D3
:020000040802F0
:2020000005936B60A3B207EB490BC3F110040BF10209BC4608460494CC4542D33AF8122081
:202020009A400492019A012A09D90AEB0E02C3F1100132F8022CCA40049911430491019A3B
:202040000599881A7060039A00F10040013802EB400206920EF102020992AAF1020A6A688B
:2020600005920599019A8A4228D301F1004B0BF1FF3B07EB4B0B0020C3F110045F4571D938
:202080006FF0004173682BB103985A1830F81220002A71D06FF0004173E05B009BB20C462A
:2020A000A5E7BCF8004004FA03F1084304992CF8020B24FA01F189B20846ADE7BBF80010A5
:2020C0003BF8022C42EA01420499B2FBF1F20999ABEB0101CDE9071A00200C468646A345CC
:2020E0000DD8BBF800100844B8BB069921F80229059A0691013AABF1020B6A60AFE708997B
:20210000B4F8009031F802CF08910CFA03F141EA1E4E1FFA8EF1514319FA80F91FFA81FC11
:20212000090CA9EB0C0CC1EB204124F802CB01EB2C40D4E739F802CF0CFA03FC4CEA1E4E2C
:20214000B4F800C011FA8EF1614424F8021B090CA345EFD80844013AC6E70021079CD146D8
:202160008E46F5E7BBF8002042FA03F10143A2402BF8021990B281E7013B736082E7013BEA
:202180006B606B68002B3FF408AF5A1837F81220002AF4D001E7F0B51F464B6885B00646A5
:2021A0000C4615464BB11378DA0706D47B68012B07D1BB681B88012B03D10023736005B0D8
:2021C000F0BD01213046FFF787F96B68002BF6D02046FFF73CF904462846FFF738F90546C5
:2021E00001A8FFF796F96B68B3B1AB681B88DB070AD5224631463046FFF7E3FD3B463246DF
:20220000314601A8FFF794FED5E9012101230846FFF765F8686048B901A8FFF77FF920462B
:20222000FFF74EF92846FFF74BF9C8E7224621462046FFF7C6FD3B462246214601A8FFF72D
:2022400077FED0E710B5D0E90121034601EB42020020914204D31B78DB0748BF404210BDA4
:2022600032F8024D44EA0040F3E730B5D0E90124002304EB4202944206D30278D20748BF7B
:202280005B420B60012030BDB3F5004F04D232F8025D45EA0343EEE70020F4E72DE9F04740
:2022A0000546D1B19818D5E901840026A4F1020E4FF0010C374603EB0209B8F1000F0ED13A
:2022C000B9B3C21A18462B7813F0010FBDE8F04714BFFF21002120F039BF1846E3E73EF84C
:2022E000024F103744EA064695F800A0072F0AF0010A02DC08F1FF38DFE7B4B2BAF1000F70
:2023000006D0E4435CFA84FC1FFA8CF4CCF3072CE4B249B100F1FF3A00F8014C53450BD0ED
:20232000083F360A5046DFE782460AF8014BCA45F5E713441A1AC6E7BDE8F087D0E9013279
:202340009FED0C0A9FED0C7A02EB43039A4205D30378DB0748BFB1EE400A704733F8021D94
:2023600007EE901AF8EEE77AE0EE077AB0EE670AECE700BF00000000000080472DE9F84F63
:2023800044689DF828A00B9E8046894615469B469CB982B1551E334615F8011F184639B9C9
:2023A00030230370002300F8013F801BBDE8F88F03F8011BF0E73046F2E764002046FDF73A
:2023C0006BFED8F808100746224620F07BFEABF13A0B314632463819A0F1020C00236745DF
:2023E000644639D93033392B144688BF5B4404F8013B3B4698429C4638D8BAF1000F0AD001
:202400000123A4EB010CBCF1030F02BF941C82F801A02146F3B13846FDF766FE5DB1284654
:2024200020F0CEFE2A18611E1346AB4229D8954288BF0020044498F80030DB0744BF2D233D
:2024400004F8013B3346621E9A421FD800232370A01BABE72246BFE7248844EA0343B3FB99
:20246000F9F42CF8024909FB1433B8E7BCF800C00233BCF1000FBDD0BAF1000FEAD000238D
:20248000BFE713F8017D01F8017FCEE71978107803F8010B02F80119D6E7D0E9023293422C
:2024A0003DBF5A1C826018784FF0FF307047036810B5044613B14068FDF716FE2046BDE81A
:2024C0001040FDF711BE0000F8B5054610200C461F461646FDF7E0FD054B8460C0E900748C
:2024E0003444C4606B60034B2860AB60F8BD00BF9B240208AF24020802690A2A10B50446CC
:2025000035D1836A013383620123A269E36263696261226F2361002A31D0616E8A423FBFD3
:20252000501CA16E20678A5C28BF0022A2613BB9E2692261226A6261626AA2616366236774
:2025400063690D2B08D1A3690A229342626103D1D4E901039847A061A369013306D1636976
:202560005A1C03D00A2B1CBF0A23A36110BDC36A092A04BF073323F007030133C5E7D4E9ED
:2025800001039847A061DBE70369272B2BD0222B29D0A3F1620113291ED8174ACA40D20729
:2025A0001AD54269272A1ED0222A1CD0722B1CD1662A06D18269272A15D0222A13D0722B2C
:2025C00015D14369622B0CD1806927280BD0A0F12203584258417047662BF0D14269722AB3
:2025E000E8D00020704701207047662BF6D0622BF7D14369722BE6E71100090070B5044629
:202600000D4600262069431C01D1304670BD0A2808D115B1636B002BF7D02046FFF76CFF8C
:202620000126EFE7FEF7C4FD18B12046FFF764FFE8E72369232B08D12046FFF75DFF236999
:202640005A1CDFD00A2BF7D1DCE75C2BDDD163690A2BDAD12046FFF74FFFE6E72DE9F04FE8
:202660002DED028B436E85B00446A3B1036F93B929216030FEF7DEFC2369E36163692362A7
:20268000A3696362A36E1A7822615A7862619B78A36103232367002161652046FFF7AEFFF7
:2026A000A36A6364236BE56AA564002B01930ADA019F082384F84C300137276305B0BDECDA
:2026C000028BBDE8F08F05D0072384F84C30019B5F1EF2E7002834D0636B93BB062384F873
:2026E0004C30D4E90F306FF000429918013D30F811108D42E2D019D9A16B8B4207D308312A
:202700004900FDF7E4FCA36B20640833A363D4E90F32591CE16322F81350236B013323634D
:20272000CCE7013BE363236B013B2363E36B991830F811108D42F4D3C0D0022384F84C3089
:20274000BCE725696A1C01D10023F7E72046FFF71BFF8146002800F0A781002384F84C3057
:202760002369752B51D0622B07D16369722B51D1C84602260D23002512E0722B06D163695F
:20278000622BF5D0662B49D10523D7E7662B49D16369722BF8D04D4601260C234FF000084A
:2027A00094F84C20002A3FD184F84C303EB12046FFF7A2FE022E02D12046FFF79DFE23697E
:2027C0002046222B14BF4FF0270B4FF0220BFFF793FE23695B452AD163699B4527D12046DE
:2027E000FFF78AFE2046FFF787FE4FF0030A25B1AB4904F16000FEF760FC04F1600308EE70
:20280000103A002704F150061EE0012600250C23A846C5E701260D230025BFE7C846012692
:202820000C23A8E7019EF1E79A42BFD046E74FF0010ADCE7934533D1594630460137FEF7A0
:2028400000FC2046FFF758FE2269511C00F02181BAF1010F02D10A2A00F01B815745E9D39A
:20286000394604F15000FEF742FC01212046FFF7C5FE2046FFF788FE00287FF471AF1DE77F
:202880002046FFF739FE21697B291ED13046FEF7D1FB2046FFF730FE7B213046FEF7CAFBFB
:2028A00021690DB17B29EBD05C2940F0ED8020460291FFF721FE27690299B8F1000F2AD064
:2028C0003046FEF7BEFB3946BDE0676E21694B1C03D03A2901D07D2914D1D4E919218818C9
:2028E00010F8010C3D2807D1D21B39443046FEF7F1FA636E013B636618EE100A2C21FEF78E
:2029000099FBC9E718EE100AC9B2FEF793FB2046FFF7F2FDDAE7782F06D85B2F0BD8222F06
:2029200072D053D80A2F4FD0A7F13001072900F2A58003279BE0A7F15C021C2AF4D801A371
:2029400053F822F0092A020829290208292902082929020829290208B9290208E529020869
:20296000292902082929020829290208F529020829290208292902082929020829290208AB
:20298000292902082929020829290208ED290208292902082929020829290208E1290208DB
:2029A00029290208E9290208F9290208F129020829290208592A0208072194F84C300C2BFF
:2029C0005ED13046FEF73DFB00273AE7552F13D0AAD8272F18D04E2FA6D1324809F014FF3C
:2029E0000D21EAE70821E8E70921E6E70A21E4E70B21E2E70C21E0E794F84C200D2A05D105
:202A00005C213046FEF71DFB3946D6E7752F0CBF04270827002114E020460291FFF76CFD44
:202A2000226903921046FEF7E1FB002800F04D810299039A090110460291FEF717FC02999B
:202A40000144013FE8D2481CBED0B1F5881FB4D3012384F84C30B7E70227DBE720460291D3
:202A6000FFF74AFD22690299303A02EBC1016269303A072AE7D8013FF0D1E4E75C211FE766
:202A8000FF29E5D80D2BE3D1C9B23046FEF7D2FA9AE757453CBF032284F84C20E0E600BF09
:202AA0008B270608942706082846FEF78BFB054620691DB95F2801D07F283ED9092384F83C
:202AC0004C3004F15005C1B22846FEF7B3FA2046FFF712FD2069421C1BD12846FEF79BFA77
:202AE0007C4F0646002557F8041B304620F076FB00281CD10F35EDB2122D84F84C507FF473
:202B0000DDAD754BD3F8F031002B0CBF11230F2314E6FEF757FB40B920695F2805D07F285D
:202B200003D8FEF759FB0028D7D0217CCCE7FFF6C5AD0135242DD6D1C0E5FEF74DFB68B3C0
:202B400021692E2935D10B2384F84C3004F150063046FEF776FA2046FFF7CEFC0B27206961
:202B6000431C3FF4ABAD002D39D120F02003452B35D16521304684F84C70FEF762FA2046A0
:202B8000FFF7BAFC21692B2901D02D29E7D13046FEF757FA2046FFF7AFFCE0E723692E2B5D
:202BA00004D16069FEF718FB0028C9D14B4D002635E00A23302984F84C30C7D1656945F0C1
:202BC0002005A5F16203162B9FBF454DDD40ED4305F0010588BF012585F00105B6E7FEF7E2
:202BE000F1FA28B121692E290DD184F84C70CEE72069FEF7F1FA0028F4D123692E2BF1D069
:202C00005F2BC7D05AE521F020034A2BBFD1ECE7652F01D0632F00D10135013601352F7836
:202C200017B12369BB42F3D12046FFF765FC0FB9012383E5212F07D123693D2BF8D1204623
:202C4000FFF75AFC3A2379E52E2F0FD123692E2B02D163692E2B01D05D236FE52046FFF752
:202C60004BFC2046FFF748FC0E2367E50335334615F8027C632F0FD0652F0DD0194AD35C40
:202C800084F84C3003F0FD02552A01D0592B14D1636B0133636311E515F8012C216991423C
:202CA00006F1010607D12046FFF726FC3346652FE4D00235DCE7632FFAE7562B02D0582ABD
:202CC0007FF4FCAC636B013BE4E7012384F84C30014672E648280608100000204627060820
:202CE000012040001A2806087FB5064601AD742085E80E00FDF7D0F90446034695E8070012
:202D000043F8046B83E8070001236FF00102C4E90A3200250A22C4E90E23C4E90C551420B7
:202D2000FDF7BAF92021206404F15000FEF7FBF8294604F16000FEF7F6F8236C20461D80C1
:202D4000C4E905552561FFF7D7FB2046FFF7D4FB2046FFF7D1FB2046FFF780FCA36C012BB8
:202D600018BF0723204618BF84F84C3004B070BD30B585B001AC05462046FFF7A5FB94E8B2
:202D80000E002846FFF7B0FF05B030BD30B585B001AC0146054620461CF02AF92846FDF720
:202DA000C1FF94E80E00FFF79FFF05B030BD10B5044690B1C3684068984704F15000FEF757
:202DC000E1F804F16000FEF7DDF8206CFDF78CF92046BDE81040FDF787B910BDD0E90432AB
:202DE000013B036152F8230070470369C9431944436953F821007047F8B5446A06460D4671
:202E0000BCB1D4E900132B448B4223D905F10803002219442046FDF765F90246B8B9616883
:202E200020460831FDF75EF963682360336A63603462802D2F4638BF802707F10800FDF7B0
:202E40002BF90023076043600446706202E023682B44236060680544656008342044F8BD7B
:202E600038B5D0E903329A4204460D4608D3103399004069FDF72BF9E36860611033E360F4
:202E8000D4E90432591C216142F8235038BDF8B504461D46D0E9000383420F46164608D33F
:202EA0001030C100A068FDF712F92368A06010332360D4E90103421C626053F8301067F3F3
:202EC000170143F8301003EBC002D6705560F8BD10B48469CAB20023616C5DF8044BFFF748
:202EE000D6BF0000F7B5866996F84C30092B05460F461ED1D6E91510FDF782FE902F044674
:202F00000ED1C100002241F0020105F128000AF007F828B14468E3071FD544F0010102E029
:202F2000210141F00201284603B0BDE8F040FFF797BF0A2B07D1D6E9151033460022DFF797
:202F400061FF0446E7E70B2B13D10096D6E9151000230122DFF7D4FF04460C212846766CAF
:202F6000FFF74AFF4FF49D73C0E9013401460660D9E7A3F10C02012A1CD8D6E915100A299C
:202F80000BD8FDF73DFE96F84C3048B10C2B0CBF06230A2343EA0011C5E7FDF701FEF2E70E
:202FA000064C0748D6E915210C2B08BF20460FF07DFCD1E7190141F00E01B4E7945A0608F6
:202FC00030580608FE2807D010F0010306D043080CBF012000207047012070471846704789
:202FE000B0F58F7F07D010F0010306D0430814BF012000207047012070471846704700006A
:2030000010F0010204D040F00100086001207047A8B110F003030FD102793A2A0ED1836880
